Archive member included to satisfy reference by file (symbol)

/home/chuong/workspace/tools/gcc-arm-none-eabi-5_4-2016q3/arm-none-eabi/lib/armv7-m/libc.a(lib_a-atof.o)
                              build_arm_cortex_m3_base_application_stm32l/WString.o (atof)
/home/chuong/workspace/tools/gcc-arm-none-eabi-5_4-2016q3/arm-none-eabi/lib/armv7-m/libc.a(lib_a-atol.o)
                              build_arm_cortex_m3_base_application_stm32l/WString.o (atol)
/home/chuong/workspace/tools/gcc-arm-none-eabi-5_4-2016q3/arm-none-eabi/lib/armv7-m/libc.a(lib_a-isspace.o)
                              build_arm_cortex_m3_base_application_stm32l/WString.o (isspace)
/home/chuong/workspace/tools/gcc-arm-none-eabi-5_4-2016q3/arm-none-eabi/lib/armv7-m/libc.a(lib_a-locale.o)
                              /home/chuong/workspace/tools/gcc-arm-none-eabi-5_4-2016q3/arm-none-eabi/lib/armv7-m/libc.a(lib_a-isspace.o) (__locale_ctype_ptr)
/home/chuong/workspace/tools/gcc-arm-none-eabi-5_4-2016q3/arm-none-eabi/lib/armv7-m/libc.a(lib_a-malloc.o)
                              build_arm_cortex_m3_base_application_stm32l/message.o (malloc)
/home/chuong/workspace/tools/gcc-arm-none-eabi-5_4-2016q3/arm-none-eabi/lib/armv7-m/libc.a(lib_a-mallocr.o)
                              /home/chuong/workspace/tools/gcc-arm-none-eabi-5_4-2016q3/arm-none-eabi/lib/armv7-m/libc.a(lib_a-malloc.o) (_malloc_r)
/home/chuong/workspace/tools/gcc-arm-none-eabi-5_4-2016q3/arm-none-eabi/lib/armv7-m/libc.a(lib_a-mbtowc_r.o)
                              /home/chuong/workspace/tools/gcc-arm-none-eabi-5_4-2016q3/arm-none-eabi/lib/armv7-m/libc.a(lib_a-locale.o) (__ascii_mbtowc)
/home/chuong/workspace/tools/gcc-arm-none-eabi-5_4-2016q3/arm-none-eabi/lib/armv7-m/libc.a(lib_a-memcmp.o)
                              build_arm_cortex_m3_base_application_stm32l/task_fw.o (memcmp)
/home/chuong/workspace/tools/gcc-arm-none-eabi-5_4-2016q3/arm-none-eabi/lib/armv7-m/libc.a(lib_a-memcpy.o)
                              build_arm_cortex_m3_base_application_stm32l/message.o (memcpy)
/home/chuong/workspace/tools/gcc-arm-none-eabi-5_4-2016q3/arm-none-eabi/lib/armv7-m/libc.a(lib_a-memmove.o)
                              build_arm_cortex_m3_base_application_stm32l/WString.o (memmove)
/home/chuong/workspace/tools/gcc-arm-none-eabi-5_4-2016q3/arm-none-eabi/lib/armv7-m/libc.a(lib_a-memset.o)
                              build_arm_cortex_m3_base_application_stm32l/task.o (memset)
/home/chuong/workspace/tools/gcc-arm-none-eabi-5_4-2016q3/arm-none-eabi/lib/armv7-m/libc.a(lib_a-mlock.o)
                              /home/chuong/workspace/tools/gcc-arm-none-eabi-5_4-2016q3/arm-none-eabi/lib/armv7-m/libc.a(lib_a-mallocr.o) (__malloc_lock)
/home/chuong/workspace/tools/gcc-arm-none-eabi-5_4-2016q3/arm-none-eabi/lib/armv7-m/libc.a(lib_a-rand.o)
                              build_arm_cortex_m3_base_application_stm32l/WMath.o (srand)
/home/chuong/workspace/tools/gcc-arm-none-eabi-5_4-2016q3/arm-none-eabi/lib/armv7-m/libc.a(lib_a-realloc.o)
                              build_arm_cortex_m3_base_application_stm32l/MPU6050.o (realloc)
/home/chuong/workspace/tools/gcc-arm-none-eabi-5_4-2016q3/arm-none-eabi/lib/armv7-m/libc.a(lib_a-reallocr.o)
                              /home/chuong/workspace/tools/gcc-arm-none-eabi-5_4-2016q3/arm-none-eabi/lib/armv7-m/libc.a(lib_a-realloc.o) (_realloc_r)
/home/chuong/workspace/tools/gcc-arm-none-eabi-5_4-2016q3/arm-none-eabi/lib/armv7-m/libc.a(lib_a-sbrkr.o)
                              /home/chuong/workspace/tools/gcc-arm-none-eabi-5_4-2016q3/arm-none-eabi/lib/armv7-m/libc.a(lib_a-mallocr.o) (_sbrk_r)
/home/chuong/workspace/tools/gcc-arm-none-eabi-5_4-2016q3/arm-none-eabi/lib/armv7-m/libc.a(lib_a-strcat.o)
                              build_arm_cortex_m3_base_application_stm32l/dtostrf.o (strcat)
/home/chuong/workspace/tools/gcc-arm-none-eabi-5_4-2016q3/arm-none-eabi/lib/armv7-m/libc.a(lib_a-strchr.o)
                              build_arm_cortex_m3_base_application_stm32l/WString.o (strchr)
/home/chuong/workspace/tools/gcc-arm-none-eabi-5_4-2016q3/arm-none-eabi/lib/armv7-m/libc.a(lib_a-strcmp.o)
                              build_arm_cortex_m3_base_application_stm32l/cmd_line.o (strcmp)
/home/chuong/workspace/tools/gcc-arm-none-eabi-5_4-2016q3/arm-none-eabi/lib/armv7-m/libc.a(lib_a-strcpy.o)
                              build_arm_cortex_m3_base_application_stm32l/sys_dbg.o (strcpy)
/home/chuong/workspace/tools/gcc-arm-none-eabi-5_4-2016q3/arm-none-eabi/lib/armv7-m/libc.a(lib_a-strlen-stub.o)
                              build_arm_cortex_m3_base_application_stm32l/dtostrf.o (strlen)
/home/chuong/workspace/tools/gcc-arm-none-eabi-5_4-2016q3/arm-none-eabi/lib/armv7-m/libc.a(lib_a-strncmp.o)
                              build_arm_cortex_m3_base_application_stm32l/WString.o (strncmp)
/home/chuong/workspace/tools/gcc-arm-none-eabi-5_4-2016q3/arm-none-eabi/lib/armv7-m/libc.a(lib_a-strncpy.o)
                              build_arm_cortex_m3_base_application_stm32l/WString.o (strncpy)
/home/chuong/workspace/tools/gcc-arm-none-eabi-5_4-2016q3/arm-none-eabi/lib/armv7-m/libc.a(lib_a-strrchr.o)
                              build_arm_cortex_m3_base_application_stm32l/WString.o (strrchr)
/home/chuong/workspace/tools/gcc-arm-none-eabi-5_4-2016q3/arm-none-eabi/lib/armv7-m/libc.a(lib_a-strstr.o)
                              build_arm_cortex_m3_base_application_stm32l/WString.o (strstr)
/home/chuong/workspace/tools/gcc-arm-none-eabi-5_4-2016q3/arm-none-eabi/lib/armv7-m/libc.a(lib_a-strtod.o)
                              /home/chuong/workspace/tools/gcc-arm-none-eabi-5_4-2016q3/arm-none-eabi/lib/armv7-m/libc.a(lib_a-atof.o) (strtod)
/home/chuong/workspace/tools/gcc-arm-none-eabi-5_4-2016q3/arm-none-eabi/lib/armv7-m/libc.a(lib_a-strtol.o)
                              /home/chuong/workspace/tools/gcc-arm-none-eabi-5_4-2016q3/arm-none-eabi/lib/armv7-m/libc.a(lib_a-atol.o) (_strtol_r)
/home/chuong/workspace/tools/gcc-arm-none-eabi-5_4-2016q3/arm-none-eabi/lib/armv7-m/libc.a(lib_a-tolower.o)
                              build_arm_cortex_m3_base_application_stm32l/WString.o (tolower)
/home/chuong/workspace/tools/gcc-arm-none-eabi-5_4-2016q3/arm-none-eabi/lib/armv7-m/libc.a(lib_a-toupper.o)
                              build_arm_cortex_m3_base_application_stm32l/WString.o (toupper)
/home/chuong/workspace/tools/gcc-arm-none-eabi-5_4-2016q3/arm-none-eabi/lib/armv7-m/libc.a(lib_a-wctomb_r.o)
                              /home/chuong/workspace/tools/gcc-arm-none-eabi-5_4-2016q3/arm-none-eabi/lib/armv7-m/libc.a(lib_a-locale.o) (__ascii_wctomb)
/home/chuong/workspace/tools/gcc-arm-none-eabi-5_4-2016q3/arm-none-eabi/lib/armv7-m/libc.a(lib_a-ctype_.o)
                              /home/chuong/workspace/tools/gcc-arm-none-eabi-5_4-2016q3/arm-none-eabi/lib/armv7-m/libc.a(lib_a-locale.o) (_ctype_)
/home/chuong/workspace/tools/gcc-arm-none-eabi-5_4-2016q3/arm-none-eabi/lib/armv7-m/libc.a(lib_a-freer.o)
                              /home/chuong/workspace/tools/gcc-arm-none-eabi-5_4-2016q3/arm-none-eabi/lib/armv7-m/libc.a(lib_a-malloc.o) (_free_r)
/home/chuong/workspace/tools/gcc-arm-none-eabi-5_4-2016q3/arm-none-eabi/lib/armv7-m/libc.a(lib_a-gdtoa-gethex.o)
                              /home/chuong/workspace/tools/gcc-arm-none-eabi-5_4-2016q3/arm-none-eabi/lib/armv7-m/libc.a(lib_a-strtod.o) (__gethex)
/home/chuong/workspace/tools/gcc-arm-none-eabi-5_4-2016q3/arm-none-eabi/lib/armv7-m/libc.a(lib_a-gdtoa-hexnan.o)
                              /home/chuong/workspace/tools/gcc-arm-none-eabi-5_4-2016q3/arm-none-eabi/lib/armv7-m/libc.a(lib_a-strtod.o) (__match)
/home/chuong/workspace/tools/gcc-arm-none-eabi-5_4-2016q3/arm-none-eabi/lib/armv7-m/libc.a(lib_a-impure.o)
                              /home/chuong/workspace/tools/gcc-arm-none-eabi-5_4-2016q3/arm-none-eabi/lib/armv7-m/libc.a(lib_a-locale.o) (_impure_ptr)
/home/chuong/workspace/tools/gcc-arm-none-eabi-5_4-2016q3/arm-none-eabi/lib/armv7-m/libc.a(lib_a-localeconv.o)
                              /home/chuong/workspace/tools/gcc-arm-none-eabi-5_4-2016q3/arm-none-eabi/lib/armv7-m/libc.a(lib_a-strtod.o) (__localeconv_l)
/home/chuong/workspace/tools/gcc-arm-none-eabi-5_4-2016q3/arm-none-eabi/lib/armv7-m/libc.a(lib_a-memchr-stub.o)
                              /home/chuong/workspace/tools/gcc-arm-none-eabi-5_4-2016q3/arm-none-eabi/lib/armv7-m/libc.a(lib_a-strstr.o) (memchr)
/home/chuong/workspace/tools/gcc-arm-none-eabi-5_4-2016q3/arm-none-eabi/lib/armv7-m/libc.a(lib_a-mprec.o)
                              /home/chuong/workspace/tools/gcc-arm-none-eabi-5_4-2016q3/arm-none-eabi/lib/armv7-m/libc.a(lib_a-strtod.o) (_Balloc)
/home/chuong/workspace/tools/gcc-arm-none-eabi-5_4-2016q3/arm-none-eabi/lib/armv7-m/libc.a(lib_a-reent.o)
                              /home/chuong/workspace/tools/gcc-arm-none-eabi-5_4-2016q3/arm-none-eabi/lib/armv7-m/libc.a(lib_a-sbrkr.o) (errno)
/home/chuong/workspace/tools/gcc-arm-none-eabi-5_4-2016q3/arm-none-eabi/lib/armv7-m/libc.a(lib_a-sf_nan.o)
                              /home/chuong/workspace/tools/gcc-arm-none-eabi-5_4-2016q3/arm-none-eabi/lib/armv7-m/libc.a(lib_a-strtod.o) (nanf)
/home/chuong/workspace/tools/gcc-arm-none-eabi-5_4-2016q3/arm-none-eabi/lib/armv7-m/libc.a(lib_a-callocr.o)
                              /home/chuong/workspace/tools/gcc-arm-none-eabi-5_4-2016q3/arm-none-eabi/lib/armv7-m/libc.a(lib_a-mprec.o) (_calloc_r)
/home/chuong/workspace/tools/gcc-arm-none-eabi-5_4-2016q3/arm-none-eabi/lib/armv7-m/libm.a(lib_a-w_log.o)
                              build_arm_cortex_m3_base_application_stm32l/thermistor.o (log)
/home/chuong/workspace/tools/gcc-arm-none-eabi-5_4-2016q3/arm-none-eabi/lib/armv7-m/libm.a(lib_a-w_sqrt.o)
                              build_arm_cortex_m3_base_application_stm32l/EmonLib.o (sqrt)
/home/chuong/workspace/tools/gcc-arm-none-eabi-5_4-2016q3/arm-none-eabi/lib/armv7-m/libm.a(lib_a-e_log.o)
                              /home/chuong/workspace/tools/gcc-arm-none-eabi-5_4-2016q3/arm-none-eabi/lib/armv7-m/libm.a(lib_a-w_log.o) (__ieee754_log)
/home/chuong/workspace/tools/gcc-arm-none-eabi-5_4-2016q3/arm-none-eabi/lib/armv7-m/libm.a(lib_a-e_sqrt.o)
                              /home/chuong/workspace/tools/gcc-arm-none-eabi-5_4-2016q3/arm-none-eabi/lib/armv7-m/libm.a(lib_a-w_sqrt.o) (__ieee754_sqrt)
/home/chuong/workspace/tools/gcc-arm-none-eabi-5_4-2016q3/arm-none-eabi/lib/armv7-m/libm.a(lib_a-s_lib_ver.o)
                              /home/chuong/workspace/tools/gcc-arm-none-eabi-5_4-2016q3/arm-none-eabi/lib/armv7-m/libm.a(lib_a-w_log.o) (__fdlib_version)
/home/chuong/workspace/tools/gcc-arm-none-eabi-5_4-2016q3/arm-none-eabi/lib/armv7-m/libm.a(lib_a-s_matherr.o)
                              /home/chuong/workspace/tools/gcc-arm-none-eabi-5_4-2016q3/arm-none-eabi/lib/armv7-m/libm.a(lib_a-w_log.o) (matherr)
/home/chuong/workspace/tools/gcc-arm-none-eabi-5_4-2016q3/arm-none-eabi/lib/armv7-m/libm.a(lib_a-s_nan.o)
                              /home/chuong/workspace/tools/gcc-arm-none-eabi-5_4-2016q3/arm-none-eabi/lib/armv7-m/libm.a(lib_a-w_log.o) (nan)
/home/chuong/workspace/tools/gcc-arm-none-eabi-5_4-2016q3/lib/gcc/arm-none-eabi/5.4.1/armv7-m/libgcc.a(_arm_addsubdf3.o)
                              build_arm_cortex_m3_base_application_stm32l/dtostrf.o (__aeabi_dsub)
/home/chuong/workspace/tools/gcc-arm-none-eabi-5_4-2016q3/lib/gcc/arm-none-eabi/5.4.1/armv7-m/libgcc.a(_arm_muldivdf3.o)
                              build_arm_cortex_m3_base_application_stm32l/dtostrf.o (__aeabi_dmul)
/home/chuong/workspace/tools/gcc-arm-none-eabi-5_4-2016q3/lib/gcc/arm-none-eabi/5.4.1/armv7-m/libgcc.a(_arm_cmpdf2.o)
                              /home/chuong/workspace/tools/gcc-arm-none-eabi-5_4-2016q3/arm-none-eabi/lib/armv7-m/libc.a(lib_a-strtod.o) (__aeabi_dcmpeq)
/home/chuong/workspace/tools/gcc-arm-none-eabi-5_4-2016q3/lib/gcc/arm-none-eabi/5.4.1/armv7-m/libgcc.a(_arm_unorddf2.o)
                              build_arm_cortex_m3_base_application_stm32l/Print.o (__aeabi_dcmpun)
/home/chuong/workspace/tools/gcc-arm-none-eabi-5_4-2016q3/lib/gcc/arm-none-eabi/5.4.1/armv7-m/libgcc.a(_arm_fixdfsi.o)
                              build_arm_cortex_m3_base_application_stm32l/dtostrf.o (__aeabi_d2iz)
/home/chuong/workspace/tools/gcc-arm-none-eabi-5_4-2016q3/lib/gcc/arm-none-eabi/5.4.1/armv7-m/libgcc.a(_arm_fixunsdfsi.o)
                              build_arm_cortex_m3_base_application_stm32l/dtostrf.o (__aeabi_d2uiz)
/home/chuong/workspace/tools/gcc-arm-none-eabi-5_4-2016q3/lib/gcc/arm-none-eabi/5.4.1/armv7-m/libgcc.a(_arm_truncdfsf2.o)
                              build_arm_cortex_m3_base_application_stm32l/SHT1x.o (__aeabi_d2f)
/home/chuong/workspace/tools/gcc-arm-none-eabi-5_4-2016q3/lib/gcc/arm-none-eabi/5.4.1/armv7-m/libgcc.a(_arm_addsubsf3.o)
                              build_arm_cortex_m3_base_application_stm32l/fuzzy_logic.o (__aeabi_fsub)
/home/chuong/workspace/tools/gcc-arm-none-eabi-5_4-2016q3/lib/gcc/arm-none-eabi/5.4.1/armv7-m/libgcc.a(_arm_muldivsf3.o)
                              build_arm_cortex_m3_base_application_stm32l/fuzzy_logic.o (__aeabi_fmul)
/home/chuong/workspace/tools/gcc-arm-none-eabi-5_4-2016q3/lib/gcc/arm-none-eabi/5.4.1/armv7-m/libgcc.a(_arm_cmpsf2.o)
                              build_arm_cortex_m3_base_application_stm32l/fuzzy_logic.o (__aeabi_fcmplt)
/home/chuong/workspace/tools/gcc-arm-none-eabi-5_4-2016q3/lib/gcc/arm-none-eabi/5.4.1/armv7-m/libgcc.a(_arm_fixsfsi.o)
                              build_arm_cortex_m3_base_application_stm32l/task_game_oled.o (__aeabi_f2iz)
/home/chuong/workspace/tools/gcc-arm-none-eabi-5_4-2016q3/lib/gcc/arm-none-eabi/5.4.1/armv7-m/libgcc.a(_arm_fixunssfsi.o)
                              build_arm_cortex_m3_base_application_stm32l/fuzzy_logic.o (__aeabi_f2uiz)
/home/chuong/workspace/tools/gcc-arm-none-eabi-5_4-2016q3/arm-none-eabi/lib/armv7-m/libg.a(lib_a-errno.o)
                              /home/chuong/workspace/tools/gcc-arm-none-eabi-5_4-2016q3/arm-none-eabi/lib/armv7-m/libm.a(lib_a-w_log.o) (__errno)

Allocating common symbols
Common symbol       size              file

SaveRState          0x2               build_arm_cortex_m3_base_application_stm32l/usb_int.o
temp_fuzzy_logic    0x24              build_arm_cortex_m3_base_application_stm32l/fuzzy_logic.o
ak_timer_payload_irq
                    0x8               build_arm_cortex_m3_base_application_stm32l/timer.o
HSEStartUpStatus    0x1               build_arm_cortex_m3_base_application_stm32l/hw_config.o
SaveState           0x2               build_arm_cortex_m3_base_application_stm32l/usb_init.o
errno               0x4               /home/chuong/workspace/tools/gcc-arm-none-eabi-5_4-2016q3/arm-none-eabi/lib/armv7-m/libc.a(lib_a-reent.o)
usb_recv_buffer     0x40              build_arm_cortex_m3_base_application_stm32l/hw_config.o
usb_packet_sent_flag
                    0x4               build_arm_cortex_m3_base_application_stm32l/usb_endp.o
system_info         0x28              build_arm_cortex_m3_base_application_stm32l/system.o
xfunc_out           0x4               build_arm_cortex_m3_base_application_stm32l/xprintf.o
wIstr               0x2               build_arm_cortex_m3_base_application_stm32l/usb_istr.o
pProperty           0x4               build_arm_cortex_m3_base_application_stm32l/usb_init.o
EPindex             0x1               build_arm_cortex_m3_base_application_stm32l/usb_init.o
SaveTState          0x2               build_arm_cortex_m3_base_application_stm32l/usb_int.o
Device_Info         0x1c              build_arm_cortex_m3_base_application_stm32l/usb_init.o
pUser_Standard_Requests
                    0x4               build_arm_cortex_m3_base_application_stm32l/usb_init.o
StatusInfo          0x2               build_arm_cortex_m3_base_application_stm32l/usb_core.o
pInformation        0x4               build_arm_cortex_m3_base_application_stm32l/usb_init.o
ResumeS             0x2               build_arm_cortex_m3_base_application_stm32l/usb_pwr.o
usb_recv_len        0x4               build_arm_cortex_m3_base_application_stm32l/usb_endp.o
EP                  0x20              build_arm_cortex_m3_base_application_stm32l/usb_pwr.o
EXTI_InitStructure  0x8               build_arm_cortex_m3_base_application_stm32l/hw_config.o
wInterrupt_Mask     0x2               build_arm_cortex_m3_base_application_stm32l/usb_init.o

Discarded input sections

 .text          0x00000000        0x0 build_arm_cortex_m3_base_application_stm32l/message.o
 .data          0x00000000        0x0 build_arm_cortex_m3_base_application_stm32l/message.o
 .bss           0x00000000        0x0 build_arm_cortex_m3_base_application_stm32l/message.o
 .text.get_common_msg_pool_used
                0x00000000       0x18 build_arm_cortex_m3_base_application_stm32l/message.o
 .text.get_pure_msg_pool_used
                0x00000000       0x18 build_arm_cortex_m3_base_application_stm32l/message.o
 .text.get_dynamic_msg_pool_used
                0x00000000       0x18 build_arm_cortex_m3_base_application_stm32l/message.o
 .text.msg_dbg_dum
                0x00000000       0x30 build_arm_cortex_m3_base_application_stm32l/message.o
 .text          0x00000000        0x0 build_arm_cortex_m3_base_application_stm32l/fsm.o
 .data          0x00000000        0x0 build_arm_cortex_m3_base_application_stm32l/fsm.o
 .bss           0x00000000        0x0 build_arm_cortex_m3_base_application_stm32l/fsm.o
 .text          0x00000000        0x0 build_arm_cortex_m3_base_application_stm32l/tsm.o
 .data          0x00000000        0x0 build_arm_cortex_m3_base_application_stm32l/tsm.o
 .bss           0x00000000        0x0 build_arm_cortex_m3_base_application_stm32l/tsm.o
 .text.tsm_tran
Memory Configuration

Name             Origin             Length             Attributes
FLASH            0x08000000         0x0000d000         xr
SRAM             0x20000000         0x00004000         xrw
*default*        0x00000000         0xffffffff

Linker script and memory map

                0x00000800                HEAP_SIZE = 0x800

.start_flash    0x08000000        0x0
                0x08000000                _start_flash = .

.isr_vector     0x08000000       0xf4
 *(.isr_vector)
 .isr_vector    0x08000000       0xf4 build_arm_cortex_m3_base_application_stm32l/system.o
                0x08000000                isr_vector
                0x080000f4                . = ALIGN (0x4)

.text           0x080000f8     0xa394
                0x080000f8                . = ALIGN (0x4)
 *(.text)
 .text          0x080000f8       0xec /home/chuong/workspace/tools/gcc-arm-none-eabi-5_4-2016q3/arm-none-eabi/lib/armv7-m/libc.a(lib_a-memcpy.o)
                0x080000f8                memcpy
 .text          0x080001e4      0x1bc /home/chuong/workspace/tools/gcc-arm-none-eabi-5_4-2016q3/arm-none-eabi/lib/armv7-m/libc.a(lib_a-strcmp.o)
                0x080001e4                strcmp
 .text          0x080003a0      0x370 /home/chuong/workspace/tools/gcc-arm-none-eabi-5_4-2016q3/lib/gcc/arm-none-eabi/5.4.1/armv7-m/libgcc.a(_arm_addsubdf3.o)
                0x080003a0                __aeabi_drsub
                0x080003a8                __aeabi_dsub
                0x080003a8                __subdf3
                0x080003ac                __adddf3
                0x080003ac                __aeabi_dadd
                0x08000624                __aeabi_ui2d
                0x08000624                __floatunsidf
                0x08000644                __floatsidf
                0x08000644                __aeabi_i2d
                0x08000668                __extendsfdf2
                0x08000668                __aeabi_f2d
                0x080006a4                __aeabi_ul2d
                0x080006a4                __floatundidf
                0x080006b4                __floatdidf
                0x080006b4                __aeabi_l2d
 .text          0x08000710      0x424 /home/chuong/workspace/tools/gcc-arm-none-eabi-5_4-2016q3/lib/gcc/arm-none-eabi/5.4.1/armv7-m/libgcc.a(_arm_muldivdf3.o)
                0x08000710                __aeabi_dmul
                0x08000710                __muldf3
                0x08000964                __aeabi_ddiv
                0x08000964                __divdf3
 .text          0x08000b34       0x50 /home/chuong/workspace/tools/gcc-arm-none-eabi-5_4-2016q3/lib/gcc/arm-none-eabi/5.4.1/armv7-m/libgcc.a(_arm_fixdfsi.o)
                0x08000b34                __fixdfsi
                0x08000b34                __aeabi_d2iz
 .text          0x08000b84      0x21c /home/chuong/workspace/tools/gcc-arm-none-eabi-5_4-2016q3/lib/gcc/arm-none-eabi/5.4.1/armv7-m/libgcc.a(_arm_addsubsf3.o)
                0x08000b84                __aeabi_frsub
                0x08000b8c                __subsf3
                0x08000b8c                __aeabi_fsub
                0x08000b90                __aeabi_fadd
                0x08000b90                __addsf3
                0x08000cf0                __aeabi_ui2f
                0x08000cf0                __floatunsisf
                0x08000cf8                __aeabi_i2f
                0x08000cf8                __floatsisf
                0x08000d14                __floatundisf
                0x08000d14                __aeabi_ul2f
                0x08000d24                __floatdisf
                0x08000d24                __aeabi_l2f
 .text          0x08000da0       0xec /home/chuong/workspace/tools/gcc-arm-none-eabi-5_4-2016q3/lib/gcc/arm-none-eabi/5.4.1/armv7-m/libgcc.a(_arm_cmpsf2.o)
                0x08000da0                __gtsf2
                0x08000da0                __gesf2
                0x08000da8                __lesf2
                0x08000da8                __ltsf2
                0x08000db0                __nesf2
                0x08000db0                __eqsf2
                0x08000db0                __cmpsf2
                0x08000e10                __aeabi_cfrcmple
                0x08000e18                __aeabi_cfcmple
                0x08000e18                __aeabi_cfcmpeq
                0x08000e28                __aeabi_fcmpeq
                0x08000e3c                __aeabi_fcmplt
                0x08000e50                __aeabi_fcmple
                0x08000e64                __aeabi_fcmpge
                0x08000e78                __aeabi_fcmpgt
 .text          0x08000e8c       0x4c /home/chuong/workspace/tools/gcc-arm-none-eabi-5_4-2016q3/lib/gcc/arm-none-eabi/5.4.1/armv7-m/libgcc.a(_arm_fixsfsi.o)
                0x08000e8c                __fixsfsi
                0x08000e8c                __aeabi_f2iz
 *(.text*)
 .text.msg_init
                0x08000ed8       0xf8 build_arm_cortex_m3_base_application_stm32l/message.o
                0x08000ed8                msg_init
 .text.msg_inc_ref_count
                0x08000fd0       0x28 build_arm_cortex_m3_base_application_stm32l/message.o
                0x08000fd0                msg_inc_ref_count
 .text.msg_dec_ref_count
                0x08000ff8       0x24 build_arm_cortex_m3_base_application_stm32l/message.o
                0x08000ff8                msg_dec_ref_count
 .text.msg_free
                0x0800101c       0x98 build_arm_cortex_m3_base_application_stm32l/message.o
                0x0800101c                msg_free
 .text.ak_malloc
                0x080010b4       0x48 build_arm_cortex_m3_base_application_stm32l/message.o
                0x080010b4                ak_malloc
 .text.ak_free  0x080010fc        0x4 build_arm_cortex_m3_base_application_stm32l/message.o
                0x080010fc                ak_free
 .text.get_common_msg
                0x08001100       0x50 build_arm_cortex_m3_base_application_stm32l/message.o
                0x08001100                get_common_msg
 .text.set_data_common_msg
                0x08001150       0x44 build_arm_cortex_m3_base_application_stm32l/message.o
                0x08001150                set_data_common_msg
 .text.get_data_common_msg
                0x08001194       0x30 build_arm_cortex_m3_base_application_stm32l/message.o
                0x08001194                get_data_common_msg
 .text.get_data_len_common_msg
                0x080011c4       0x20 build_arm_cortex_m3_base_application_stm32l/message.o
                0x080011c4                get_data_len_common_msg
 .text.get_pure_msg
                0x080011e4       0x50 build_arm_cortex_m3_base_application_stm32l/message.o
                0x080011e4                get_pure_msg
 .text.get_dynamic_msg
                0x08001234       0x54 build_arm_cortex_m3_base_application_stm32l/message.o
                0x08001234                get_dynamic_msg
 .text.set_data_dynamic_msg
                0x08001288       0xb0 build_arm_cortex_m3_base_application_stm32l/message.o
                0x08001288                set_data_dynamic_msg
 .text.get_data_dynamic_msg
                0x08001338       0x68 build_arm_cortex_m3_base_application_stm32l/message.o
                0x08001338                get_data_dynamic_msg
 .text.get_data_len_dynamic_msg
                0x080013a0        0x4 build_arm_cortex_m3_base_application_stm32l/message.o
                0x080013a0                get_data_len_dynamic_msg
 .text.fsm_dispatch
                0x080013a4        0x6 build_arm_cortex_m3_base_application_stm32l/fsm.o
                0x080013a4                fsm_dispatch
 *fill*         0x080013aa        0x2 
 .text.task_create
                0x080013ac       0x38 build_arm_cortex_m3_base_application_stm32l/task.o
                0x080013ac                task_create
 .text.task_post
                0x080013e4       0x80 build_arm_cortex_m3_base_application_stm32l/task.o
                0x080013e4                task_post
 .text.task_remove_msg
                0x08001464       0x98 build_arm_cortex_m3_base_application_stm32l/task.o
                0x08001464                task_remove_msg
 .text.task_post_pure_msg
                0x080014fc       0x18 build_arm_cortex_m3_base_application_stm32l/task.o
                0x080014fc                task_post_pure_msg
 .text.task_post_common_msg
                0x08001514       0x2a build_arm_cortex_m3_base_application_stm32l/task.o
                0x08001514                task_post_common_msg
 *fill*         0x0800153e        0x2 
 .text.task_entry_interrupt
                0x08001540       0x1c build_arm_cortex_m3_base_application_stm32l/task.o
                0x08001540                task_entry_interrupt
 .text.task_exit_interrupt
                0x0800155c       0x24 build_arm_cortex_m3_base_application_stm32l/task.o
                0x0800155c                task_exit_interrupt
 .text.task_init
                0x08001580       0x40 build_arm_cortex_m3_base_application_stm32l/task.o
                0x08001580                task_init
 .text.task_run
                0x080015c0      0x110 build_arm_cortex_m3_base_application_stm32l/task.o
                0x080015c0                task_run
 .text.get_current_task_id
                0x080016d0        0xc build_arm_cortex_m3_base_application_stm32l/task.o
                0x080016d0                get_current_task_id
 .text.get_current_task_info
                0x080016dc        0x8 build_arm_cortex_m3_base_application_stm32l/task.o
                0x080016dc                get_current_task_info
 .text.get_current_active_object
                0x080016e4        0x8 build_arm_cortex_m3_base_application_stm32l/task.o
                0x080016e4                get_current_active_object
 .text.timer_remove_msg
                0x080016ec       0x58 build_arm_cortex_m3_base_application_stm32l/timer.o
 .text.task_timer_tick
                0x08001744       0x7c build_arm_cortex_m3_base_application_stm32l/timer.o
                0x08001744                task_timer_tick
 .text.timer_init
                0x080017c0       0x48 build_arm_cortex_m3_base_application_stm32l/timer.o
                0x080017c0                timer_init
 .text.timer_tick
                0x08001808       0x40 build_arm_cortex_m3_base_application_stm32l/timer.o
                0x08001808                timer_tick
 .text.timer_set
                0x08001848       0xa0 build_arm_cortex_m3_base_application_stm32l/timer.o
                0x08001848                timer_set
 .text.timer_remove_attr
                0x080018e8       0x18 build_arm_cortex_m3_base_application_stm32l/timer.o
                0x080018e8                timer_remove_attr
 .text.xputc    0x08001900       0x24 build_arm_cortex_m3_base_application_stm32l/xprintf.o
                0x08001900                xputc
 .text.sxputc   0x08001924       0x10 build_arm_cortex_m3_base_application_stm32l/xprintf.o
                0x08001924                sxputc
 .text.xstream  0x08001934      0x124 build_arm_cortex_m3_base_application_stm32l/xprintf.o
                0x08001934                xstream
 .text.xprintf  0x08001a58       0x24 build_arm_cortex_m3_base_application_stm32l/xprintf.o
                0x08001a58                xprintf
 .text.set_dymc_output_type
                0x08001a7c       0x14 build_arm_cortex_m3_base_application_stm32l/xprintf.o
                0x08001a7c                set_dymc_output_type
 .text.xdymcprintf
                0x08001a90       0x6c build_arm_cortex_m3_base_application_stm32l/xprintf.o
                0x08001a90                xdymcprintf
 .text.cmd_line_parser
                0x08001afc       0x7c build_arm_cortex_m3_base_application_stm32l/cmd_line.o
                0x08001afc                cmd_line_parser
 .text.fifo_init
                0x08001b78       0x34 build_arm_cortex_m3_base_application_stm32l/fifo.o
                0x08001b78                fifo_init
 .text.fifo_availble
                0x08001bac        0x4 build_arm_cortex_m3_base_application_stm32l/fifo.o
                0x08001bac                fifo_availble
 .text.fifo_is_full
                0x08001bb0        0xc build_arm_cortex_m3_base_application_stm32l/fifo.o
                0x08001bb0                fifo_is_full
 .text.fifo_put
                0x08001bbc       0x5c build_arm_cortex_m3_base_application_stm32l/fifo.o
                0x08001bbc                fifo_put
 .text.fifo_get
                0x08001c18       0x5c build_arm_cortex_m3_base_application_stm32l/fifo.o
                0x08001c18                fifo_get
 .text.button_init
                0x08001c74       0x34 build_arm_cortex_m3_base_application_stm32l/button.o
                0x08001c74                button_init
 .text.button_enable
                0x08001ca8        0x6 build_arm_cortex_m3_base_application_stm32l/button.o
                0x08001ca8                button_enable
 .text.button_timer_polling
                0x08001cae       0x72 build_arm_cortex_m3_base_application_stm32l/button.o
                0x08001cae                button_timer_polling
 .text.flash_wait_to_idle
                0x08001d20       0x3c build_arm_cortex_m3_base_application_stm32l/flash.o
 .text.flash_set_write_enable.constprop.0
                0x08001d5c       0x1a build_arm_cortex_m3_base_application_stm32l/flash.o
 .text.flash_read
                0x08001d76       0x4a build_arm_cortex_m3_base_application_stm32l/flash.o
                0x08001d76                flash_read
 .text.flash_write
                0x08001dc0       0x62 build_arm_cortex_m3_base_application_stm32l/flash.o
                0x08001dc0                flash_write
 .text.flash_erase_sector
                0x08001e22       0x48 build_arm_cortex_m3_base_application_stm32l/flash.o
                0x08001e22                flash_erase_sector
 .text.flash_erase_block_64k
                0x08001e6a       0x46 build_arm_cortex_m3_base_application_stm32l/flash.o
                0x08001e6a                flash_erase_block_64k
 .text.flash_erase_full
                0x08001eb0       0x26 build_arm_cortex_m3_base_application_stm32l/flash.o
                0x08001eb0                flash_erase_full
 .text.led_init
                0x08001ed6       0x20 build_arm_cortex_m3_base_application_stm32l/led.o
                0x08001ed6                led_init
 .text.led_on   0x08001ef6        0xc build_arm_cortex_m3_base_application_stm32l/led.o
                0x08001ef6                led_on
 .text.led_off  0x08001f02        0xc build_arm_cortex_m3_base_application_stm32l/led.o
                0x08001f02                led_off
 .text.led_toggle
                0x08001f0e       0x12 build_arm_cortex_m3_base_application_stm32l/led.o
                0x08001f0e                led_toggle
 .text.sys_dbg_fatal
                0x08001f20      0x348 build_arm_cortex_m3_base_application_stm32l/sys_dbg.o
                0x08001f20                sys_dbg_fatal
 .text.sys_dbg_func_stack_dump
                0x08002268       0x68 build_arm_cortex_m3_base_application_stm32l/sys_dbg.o
                0x08002268                sys_dbg_func_stack_dump
 .text.sys_dbg_cpu_dump
                0x080022d0       0x4c build_arm_cortex_m3_base_application_stm32l/sys_dbg.o
                0x080022d0                sys_dbg_cpu_dump
 .text.sys_dbg_stack_space_dump
                0x0800231c       0x30 build_arm_cortex_m3_base_application_stm32l/sys_dbg.o
                0x0800231c                sys_dbg_stack_space_dump
 .text.sys_boot_get
                0x0800234c        0xc build_arm_cortex_m3_base_application_stm32l/sys_boot.o
                0x0800234c                sys_boot_get
 .text.sys_boot_set
                0x08002358       0x30 build_arm_cortex_m3_base_application_stm32l/sys_boot.o
                0x08002358                sys_boot_set
 .text.sys_svc_restart_app
                0x08002388        0x4 build_arm_cortex_m3_base_application_stm32l/sys_svc.o
                0x08002388                sys_svc_restart_app
 .text.hal_nrf_rw
                0x0800238c        0x4 build_arm_cortex_m3_base_application_stm32l/hal_nrf_hw.o
                0x0800238c                hal_nrf_rw
 .text.hal_nrf_read_rx_pl_w
                0x08002390       0x1c build_arm_cortex_m3_base_application_stm32l/hal_nrf_l01.o
                0x08002390                hal_nrf_read_rx_pl_w
 .text.hal_nrf_read_reg
                0x080023ac       0x1e build_arm_cortex_m3_base_application_stm32l/hal_nrf_l01.o
                0x080023ac                hal_nrf_read_reg
 .text.hal_nrf_get_address_width
                0x080023ca        0xe build_arm_cortex_m3_base_application_stm32l/hal_nrf_l01.o
                0x080023ca                hal_nrf_get_address_width
 .text.hal_nrf_write_reg
                0x080023d8       0x42 build_arm_cortex_m3_base_application_stm32l/hal_nrf_l01.o
                0x080023d8                hal_nrf_write_reg
 .text.hal_nrf_set_irq_mode
                0x0800241a       0x34 build_arm_cortex_m3_base_application_stm32l/hal_nrf_l01.o
                0x0800241a                hal_nrf_set_irq_mode
 .text.hal_nrf_get_clear_irq_flags
                0x0800244e       0x10 build_arm_cortex_m3_base_application_stm32l/hal_nrf_l01.o
                0x0800244e                hal_nrf_get_clear_irq_flags
 .text.hal_nrf_set_crc_mode
                0x0800245e       0x1e build_arm_cortex_m3_base_application_stm32l/hal_nrf_l01.o
                0x0800245e                hal_nrf_set_crc_mode
 .text.hal_nrf_open_pipe
                0x0800247c       0x60 build_arm_cortex_m3_base_application_stm32l/hal_nrf_l01.o
                0x0800247c                hal_nrf_open_pipe
 .text.hal_nrf_close_pipe
                0x080024dc       0x4e build_arm_cortex_m3_base_application_stm32l/hal_nrf_l01.o
                0x080024dc                hal_nrf_close_pipe
 .text.hal_nrf_set_auto_retr
                0x0800252a       0x14 build_arm_cortex_m3_base_application_stm32l/hal_nrf_l01.o
                0x0800252a                hal_nrf_set_auto_retr
 .text.hal_nrf_set_address_width
                0x0800253e        0xa build_arm_cortex_m3_base_application_stm32l/hal_nrf_l01.o
                0x0800253e                hal_nrf_set_address_width
 .text.hal_nrf_set_rx_pload_width
                0x08002548        0x8 build_arm_cortex_m3_base_application_stm32l/hal_nrf_l01.o
                0x08002548                hal_nrf_set_rx_pload_width
 .text.hal_nrf_set_operation_mode
                0x08002550       0x28 build_arm_cortex_m3_base_application_stm32l/hal_nrf_l01.o
                0x08002550                hal_nrf_set_operation_mode
 .text.hal_nrf_set_power_mode
                0x08002578       0x28 build_arm_cortex_m3_base_application_stm32l/hal_nrf_l01.o
                0x08002578                hal_nrf_set_power_mode
 .text.hal_nrf_set_rf_channel
                0x080025a0        0x8 build_arm_cortex_m3_base_application_stm32l/hal_nrf_l01.o
                0x080025a0                hal_nrf_set_rf_channel
 .text.hal_nrf_set_output_power
                0x080025a8       0x1e build_arm_cortex_m3_base_application_stm32l/hal_nrf_l01.o
                0x080025a8                hal_nrf_set_output_power
 .text.hal_nrf_set_datarate
                0x080025c6       0x26 build_arm_cortex_m3_base_application_stm32l/hal_nrf_l01.o
                0x080025c6                hal_nrf_set_datarate
 .text.hal_nrf_flush_rx
                0x080025ec        0x8 build_arm_cortex_m3_base_application_stm32l/hal_nrf_l01.o
                0x080025ec                hal_nrf_flush_rx
 .text.hal_nrf_flush_tx
                0x080025f4        0x8 build_arm_cortex_m3_base_application_stm32l/hal_nrf_l01.o
                0x080025f4                hal_nrf_flush_tx
 .text.hal_nrf_nop
                0x080025fc        0x8 build_arm_cortex_m3_base_application_stm32l/hal_nrf_l01.o
                0x080025fc                hal_nrf_nop
 .text.hal_nrf_get_rx_data_source
                0x08002604        0xc build_arm_cortex_m3_base_application_stm32l/hal_nrf_l01.o
                0x08002604                hal_nrf_get_rx_data_source
 .text.hal_nrf_rx_fifo_empty
                0x08002610        0xe build_arm_cortex_m3_base_application_stm32l/hal_nrf_l01.o
                0x08002610                hal_nrf_rx_fifo_empty
 .text.hal_nrf_set_lna_gain
                0x0800261e       0x28 build_arm_cortex_m3_base_application_stm32l/hal_nrf_l01.o
                0x0800261e                hal_nrf_set_lna_gain
 .text.hal_nrf_read_multibyte_reg
                0x08002646       0x66 build_arm_cortex_m3_base_application_stm32l/hal_nrf_l01.o
                0x08002646                hal_nrf_read_multibyte_reg
 .text.hal_nrf_read_rx_pload
                0x080026ac        0x8 build_arm_cortex_m3_base_application_stm32l/hal_nrf_l01.o
                0x080026ac                hal_nrf_read_rx_pload
 .text.hal_nrf_write_multibyte_reg
                0x080026b4       0x4e build_arm_cortex_m3_base_application_stm32l/hal_nrf_l01.o
                0x080026b4                hal_nrf_write_multibyte_reg
 .text.hal_nrf_set_address
                0x08002702       0x2e build_arm_cortex_m3_base_application_stm32l/hal_nrf_l01.o
                0x08002702                hal_nrf_set_address
 .text.hal_nrf_write_tx_pload
                0x08002730        0xa build_arm_cortex_m3_base_application_stm32l/hal_nrf_l01.o
                0x08002730                hal_nrf_write_tx_pload
 .text.GPIO_Init
                0x0800273a       0x78 build_arm_cortex_m3_base_application_stm32l/stm32l1xx_gpio.o
                0x0800273a                GPIO_Init
 .text.GPIO_ReadInputDataBit
                0x080027b2        0xc build_arm_cortex_m3_base_application_stm32l/stm32l1xx_gpio.o
                0x080027b2                GPIO_ReadInputDataBit
 .text.GPIO_SetBits
                0x080027be        0x4 build_arm_cortex_m3_base_application_stm32l/stm32l1xx_gpio.o
                0x080027be                GPIO_SetBits
 .text.GPIO_ResetBits
                0x080027c2        0x4 build_arm_cortex_m3_base_application_stm32l/stm32l1xx_gpio.o
                0x080027c2                GPIO_ResetBits
 .text.GPIO_PinAFConfig
                0x080027c6       0x24 build_arm_cortex_m3_base_application_stm32l/stm32l1xx_gpio.o
                0x080027c6                GPIO_PinAFConfig
 *fill*         0x080027ea        0x2 
 .text.RCC_HSICmd
                0x080027ec        0xc build_arm_cortex_m3_base_application_stm32l/stm32l1xx_rcc.o
                0x080027ec                RCC_HSICmd
 .text.RCC_GetClocksFreq
                0x080027f8       0xa8 build_arm_cortex_m3_base_application_stm32l/stm32l1xx_rcc.o
                0x080027f8                RCC_GetClocksFreq
 .text.RCC_AHBPeriphClockCmd
                0x080028a0       0x18 build_arm_cortex_m3_base_application_stm32l/stm32l1xx_rcc.o
                0x080028a0                RCC_AHBPeriphClockCmd
 .text.RCC_APB2PeriphClockCmd
                0x080028b8       0x18 build_arm_cortex_m3_base_application_stm32l/stm32l1xx_rcc.o
                0x080028b8                RCC_APB2PeriphClockCmd
 .text.RCC_APB1PeriphClockCmd
                0x080028d0       0x18 build_arm_cortex_m3_base_application_stm32l/stm32l1xx_rcc.o
                0x080028d0                RCC_APB1PeriphClockCmd
 .text.RCC_GetFlagStatus
                0x080028e8       0x20 build_arm_cortex_m3_base_application_stm32l/stm32l1xx_rcc.o
                0x080028e8                RCC_GetFlagStatus
 .text.USART_Init
                0x08002908       0xa4 build_arm_cortex_m3_base_application_stm32l/stm32l1xx_usart.o
                0x08002908                USART_Init
 .text.USART_Cmd
                0x080029ac       0x18 build_arm_cortex_m3_base_application_stm32l/stm32l1xx_usart.o
                0x080029ac                USART_Cmd
 .text.USART_SendData
                0x080029c4        0x8 build_arm_cortex_m3_base_application_stm32l/stm32l1xx_usart.o
                0x080029c4                USART_SendData
 .text.USART_ReceiveData
                0x080029cc        0x8 build_arm_cortex_m3_base_application_stm32l/stm32l1xx_usart.o
                0x080029cc                USART_ReceiveData
 .text.USART_ITConfig
                0x080029d4       0x30 build_arm_cortex_m3_base_application_stm32l/stm32l1xx_usart.o
                0x080029d4                USART_ITConfig
 .text.USART_GetFlagStatus
                0x08002a04        0xc build_arm_cortex_m3_base_application_stm32l/stm32l1xx_usart.o
                0x08002a04                USART_GetFlagStatus
 .text.USART_GetITStatus
                0x08002a10       0x40 build_arm_cortex_m3_base_application_stm32l/stm32l1xx_usart.o
                0x08002a10                USART_GetITStatus
 .text.USART_ClearITPendingBit
                0x08002a50       0x10 build_arm_cortex_m3_base_application_stm32l/stm32l1xx_usart.o
                0x08002a50                USART_ClearITPendingBit
 .text.SPI_I2S_ReceiveData
                0x08002a60        0x6 build_arm_cortex_m3_base_application_stm32l/stm32l1xx_spi.o
                0x08002a60                SPI_I2S_ReceiveData
 .text.SPI_I2S_SendData
                0x08002a66        0x4 build_arm_cortex_m3_base_application_stm32l/stm32l1xx_spi.o
                0x08002a66                SPI_I2S_SendData
 .text.SPI_I2S_GetFlagStatus
                0x08002a6a        0xc build_arm_cortex_m3_base_application_stm32l/stm32l1xx_spi.o
                0x08002a6a                SPI_I2S_GetFlagStatus
 *fill*         0x08002a76        0x2 
 .text.NVIC_PriorityGroupConfig
                0x08002a78       0x14 build_arm_cortex_m3_base_application_stm32l/misc.o
                0x08002a78                NVIC_PriorityGroupConfig
 .text.NVIC_Init
                0x08002a8c       0x70 build_arm_cortex_m3_base_application_stm32l/misc.o
                0x08002a8c                NVIC_Init
 .text.EXTI_GetITStatus
                0x08002afc       0x14 build_arm_cortex_m3_base_application_stm32l/stm32l1xx_exti.o
                0x08002afc                EXTI_GetITStatus
 .text.EXTI_ClearITPendingBit
                0x08002b10        0xc build_arm_cortex_m3_base_application_stm32l/stm32l1xx_exti.o
                0x08002b10                EXTI_ClearITPendingBit
 .text.SYSCFG_USBPuCmd
                0x08002b1c       0x18 build_arm_cortex_m3_base_application_stm32l/stm32l1xx_syscfg.o
                0x08002b1c                SYSCFG_USBPuCmd
 .text.TIM_TimeBaseInit
                0x08002b34       0x58 build_arm_cortex_m3_base_application_stm32l/stm32l1xx_tim.o
                0x08002b34                TIM_TimeBaseInit
 .text.TIM_ARRPreloadConfig
                0x08002b8c       0x18 build_arm_cortex_m3_base_application_stm32l/stm32l1xx_tim.o
                0x08002b8c                TIM_ARRPreloadConfig
 .text.TIM_Cmd  0x08002ba4       0x18 build_arm_cortex_m3_base_application_stm32l/stm32l1xx_tim.o
                0x08002ba4                TIM_Cmd
 .text.TIM_GetITStatus
                0x08002bbc       0x16 build_arm_cortex_m3_base_application_stm32l/stm32l1xx_tim.o
                0x08002bbc                TIM_GetITStatus
 .text.TIM_ClearITPendingBit
                0x08002bd2        0x8 build_arm_cortex_m3_base_application_stm32l/stm32l1xx_tim.o
                0x08002bd2                TIM_ClearITPendingBit
 .text.TIM_DMACmd
                0x08002bda       0x12 build_arm_cortex_m3_base_application_stm32l/stm32l1xx_tim.o
                0x08002bda                TIM_DMACmd
 .text.TIM_ITConfig
                0x08002bec        0x4 build_arm_cortex_m3_base_application_stm32l/stm32l1xx_tim.o
                0x08002bec                TIM_ITConfig
 .text.TIM_EncoderInterfaceConfig
                0x08002bf0       0x3c build_arm_cortex_m3_base_application_stm32l/stm32l1xx_tim.o
                0x08002bf0                TIM_EncoderInterfaceConfig
 .text.FLASH_Lock
                0x08002c2c       0x10 build_arm_cortex_m3_base_application_stm32l/stm32l1xx_flash.o
                0x08002c2c                FLASH_Lock
 .text.DATA_EEPROM_Unlock
                0x08002c3c       0x20 build_arm_cortex_m3_base_application_stm32l/stm32l1xx_flash.o
                0x08002c3c                DATA_EEPROM_Unlock
 .text.FLASH_Unlock
                0x08002c5c       0x2c build_arm_cortex_m3_base_application_stm32l/stm32l1xx_flash.o
                0x08002c5c                FLASH_Unlock
 .text.DATA_EEPROM_Lock
                0x08002c88       0x10 build_arm_cortex_m3_base_application_stm32l/stm32l1xx_flash.o
                0x08002c88                DATA_EEPROM_Lock
 .text.FLASH_ClearFlag
                0x08002c98        0xc build_arm_cortex_m3_base_application_stm32l/stm32l1xx_flash.o
                0x08002c98                FLASH_ClearFlag
 .text.FLASH_GetStatus
                0x08002ca4       0x28 build_arm_cortex_m3_base_application_stm32l/stm32l1xx_flash.o
                0x08002ca4                FLASH_GetStatus
 .text.FLASH_WaitForLastOperation
                0x08002ccc       0x38 build_arm_cortex_m3_base_application_stm32l/stm32l1xx_flash.o
                0x08002ccc                FLASH_WaitForLastOperation
 .text.FLASH_ErasePage
                0x08002d04       0x44 build_arm_cortex_m3_base_application_stm32l/stm32l1xx_flash.o
                0x08002d04                FLASH_ErasePage
 .text.DATA_EEPROM_EraseWord
                0x08002d48       0x16 build_arm_cortex_m3_base_application_stm32l/stm32l1xx_flash.o
                0x08002d48                DATA_EEPROM_EraseWord
 *fill*         0x08002d5e        0x2 
 .text.DATA_EEPROM_FastProgramWord
                0x08002d60       0x30 build_arm_cortex_m3_base_application_stm32l/stm32l1xx_flash.o
                0x08002d60                DATA_EEPROM_FastProgramWord
 .text.DATA_EEPROM_ProgramByte
                0x08002d90       0x4c build_arm_cortex_m3_base_application_stm32l/stm32l1xx_flash.o
                0x08002d90                DATA_EEPROM_ProgramByte
 .text.DATA_EEPROM_ProgramWord
                0x08002ddc       0x22 build_arm_cortex_m3_base_application_stm32l/stm32l1xx_flash.o
                0x08002ddc                DATA_EEPROM_ProgramWord
 .text.FLASH_FastProgramWord
                0x08002dfe        0x4 build_arm_cortex_m3_base_application_stm32l/stm32l1xx_flash.o
                0x08002dfe                FLASH_FastProgramWord
 *fill*         0x08002e02        0x2 
 .text.IWDG_WriteAccessCmd
                0x08002e04        0xc build_arm_cortex_m3_base_application_stm32l/stm32l1xx_iwdg.o
                0x08002e04                IWDG_WriteAccessCmd
 .text.IWDG_SetPrescaler
                0x08002e10        0xc build_arm_cortex_m3_base_application_stm32l/stm32l1xx_iwdg.o
                0x08002e10                IWDG_SetPrescaler
 .text.IWDG_SetReload
                0x08002e1c        0xc build_arm_cortex_m3_base_application_stm32l/stm32l1xx_iwdg.o
                0x08002e1c                IWDG_SetReload
 .text.IWDG_ReloadCounter
                0x08002e28       0x10 build_arm_cortex_m3_base_application_stm32l/stm32l1xx_iwdg.o
                0x08002e28                IWDG_ReloadCounter
 .text.IWDG_Enable
                0x08002e38       0x10 build_arm_cortex_m3_base_application_stm32l/stm32l1xx_iwdg.o
                0x08002e38                IWDG_Enable
 .text.I2C_SendData
                0x08002e48        0x4 build_arm_cortex_m3_base_application_stm32l/stm32l1xx_i2c.o
                0x08002e48                I2C_SendData
 .text.I2C_CheckEvent
                0x08002e4c       0x1a build_arm_cortex_m3_base_application_stm32l/stm32l1xx_i2c.o
                0x08002e4c                I2C_CheckEvent
 *fill*         0x08002e66        0x2 
 .text.Standard_GetConfiguration
                0x08002e68       0x24 build_arm_cortex_m3_base_application_stm32l/usb_core.o
                0x08002e68                Standard_GetConfiguration
 .text.Standard_GetInterface
                0x08002e8c       0x24 build_arm_cortex_m3_base_application_stm32l/usb_core.o
                0x08002e8c                Standard_GetInterface
 .text.Standard_GetStatus
                0x08002eb0       0x90 build_arm_cortex_m3_base_application_stm32l/usb_core.o
                0x08002eb0                Standard_GetStatus
 .text.DataStageIn
                0x08002f40       0xa8 build_arm_cortex_m3_base_application_stm32l/usb_core.o
 .text.Standard_SetConfiguration
                0x08002fe8       0x38 build_arm_cortex_m3_base_application_stm32l/usb_core.o
                0x08002fe8                Standard_SetConfiguration
 .text.Standard_SetInterface
                0x08003020       0x48 build_arm_cortex_m3_base_application_stm32l/usb_core.o
                0x08003020                Standard_SetInterface
 .text.Standard_ClearFeature
                0x08003068       0xd8 build_arm_cortex_m3_base_application_stm32l/usb_core.o
                0x08003068                Standard_ClearFeature
 .text.Standard_SetEndPointFeature
                0x08003140       0x8c build_arm_cortex_m3_base_application_stm32l/usb_core.o
                0x08003140                Standard_SetEndPointFeature
 .text.Standard_SetDeviceFeature
                0x080031cc       0x24 build_arm_cortex_m3_base_application_stm32l/usb_core.o
                0x080031cc                Standard_SetDeviceFeature
 .text.Standard_GetDescriptorData
                0x080031f0       0x1c build_arm_cortex_m3_base_application_stm32l/usb_core.o
                0x080031f0                Standard_GetDescriptorData
 .text.Post0_Process
                0x0800320c       0x40 build_arm_cortex_m3_base_application_stm32l/usb_core.o
                0x0800320c                Post0_Process
 .text.Setup0_Process
                0x0800324c      0x304 build_arm_cortex_m3_base_application_stm32l/usb_core.o
                0x0800324c                Setup0_Process
 .text.Out0_Process
                0x08003550       0xe8 build_arm_cortex_m3_base_application_stm32l/usb_core.o
                0x08003550                Out0_Process
 .text.SetDeviceAddress
                0x08003638       0x40 build_arm_cortex_m3_base_application_stm32l/usb_core.o
                0x08003638                SetDeviceAddress
 .text.In0_Process
                0x08003678       0x5c build_arm_cortex_m3_base_application_stm32l/usb_core.o
                0x08003678                In0_Process
 .text.NOP_Process
                0x080036d4        0x2 build_arm_cortex_m3_base_application_stm32l/usb_core.o
                0x080036d4                NOP_Process
 *fill*         0x080036d6        0x2 
 .text.CTR_LP   0x080036d8      0x178 build_arm_cortex_m3_base_application_stm32l/usb_int.o
                0x080036d8                CTR_LP
 .text.UserToPMABufferCopy
                0x08003850       0x24 build_arm_cortex_m3_base_application_stm32l/usb_mem.o
                0x08003850                UserToPMABufferCopy
 .text.PMAToUserBufferCopy
                0x08003874       0x24 build_arm_cortex_m3_base_application_stm32l/usb_mem.o
                0x08003874                PMAToUserBufferCopy
 .text.SetISTR  0x08003898        0xc build_arm_cortex_m3_base_application_stm32l/usb_regs.o
                0x08003898                SetISTR
 .text.SetBTABLE
                0x080038a4       0x10 build_arm_cortex_m3_base_application_stm32l/usb_regs.o
                0x080038a4                SetBTABLE
 .text.SetEPType
                0x080038b4       0x1c build_arm_cortex_m3_base_application_stm32l/usb_regs.o
                0x080038b4                SetEPType
 .text.SetEPTxStatus
                0x080038d0       0x32 build_arm_cortex_m3_base_application_stm32l/usb_regs.o
                0x080038d0                SetEPTxStatus
 .text.SetEPRxStatus
                0x08003902       0x32 build_arm_cortex_m3_base_application_stm32l/usb_regs.o
                0x08003902                SetEPRxStatus
 .text.SetEPRxValid
                0x08003934       0x26 build_arm_cortex_m3_base_application_stm32l/usb_regs.o
                0x08003934                SetEPRxValid
 .text.ClearEPDoubleBuff
                0x0800395a       0x20 build_arm_cortex_m3_base_application_stm32l/usb_regs.o
                0x0800395a                ClearEPDoubleBuff
 .text.Clear_Status_Out
                0x0800397a        0x4 build_arm_cortex_m3_base_application_stm32l/usb_regs.o
                0x0800397a                Clear_Status_Out
 .text.ClearDTOG_RX
                0x0800397e       0x24 build_arm_cortex_m3_base_application_stm32l/usb_regs.o
                0x0800397e                ClearDTOG_RX
 .text.ClearDTOG_TX
                0x080039a2       0x24 build_arm_cortex_m3_base_application_stm32l/usb_regs.o
                0x080039a2                ClearDTOG_TX
 *fill*         0x080039c6        0x2 
 .text.SetEPTxCount
                0x080039c8       0x1c build_arm_cortex_m3_base_application_stm32l/usb_regs.o
                0x080039c8                SetEPTxCount
 .text.SetEPRxCount
                0x080039e4       0x40 build_arm_cortex_m3_base_application_stm32l/usb_regs.o
                0x080039e4                SetEPRxCount
 .text.SetEPDblBuf0Addr
                0x08003a24       0x20 build_arm_cortex_m3_base_application_stm32l/usb_regs.o
                0x08003a24                SetEPDblBuf0Addr
 .text.SetEPTxAddr
                0x08003a44        0x4 build_arm_cortex_m3_base_application_stm32l/usb_regs.o
                0x08003a44                SetEPTxAddr
 .text.SetEPDblBuf1Addr
                0x08003a48       0x20 build_arm_cortex_m3_base_application_stm32l/usb_regs.o
                0x08003a48                SetEPDblBuf1Addr
 .text.SetEPRxAddr
                0x08003a68        0x4 build_arm_cortex_m3_base_application_stm32l/usb_regs.o
                0x08003a68                SetEPRxAddr
 .text.GetEPDblBuf0Addr
                0x08003a6c       0x1c build_arm_cortex_m3_base_application_stm32l/usb_regs.o
                0x08003a6c                GetEPDblBuf0Addr
 .text.GetEPTxAddr
                0x08003a88        0x4 build_arm_cortex_m3_base_application_stm32l/usb_regs.o
                0x08003a88                GetEPTxAddr
 .text.GetEPDblBuf1Addr
                0x08003a8c       0x1c build_arm_cortex_m3_base_application_stm32l/usb_regs.o
                0x08003a8c                GetEPDblBuf1Addr
 .text.GetEPRxAddr
                0x08003aa8        0x4 build_arm_cortex_m3_base_application_stm32l/usb_regs.o
                0x08003aa8                GetEPRxAddr
 .text.GetEPDblBuf1Count
                0x08003aac       0x20 build_arm_cortex_m3_base_application_stm32l/usb_regs.o
                0x08003aac                GetEPDblBuf1Count
 .text.GetEPRxCount
                0x08003acc        0x4 build_arm_cortex_m3_base_application_stm32l/usb_regs.o
                0x08003acc                GetEPRxCount
 .text.ByteSwap
                0x08003ad0        0xa build_arm_cortex_m3_base_application_stm32l/usb_regs.o
                0x08003ad0                ByteSwap
 *fill*         0x08003ada        0x2 
 .text.USB_SIL_Init
                0x08003adc       0x20 build_arm_cortex_m3_base_application_stm32l/usb_sil.o
                0x08003adc                USB_SIL_Init
 .text.IntToUnicode
                0x08003afc       0x28 build_arm_cortex_m3_base_application_stm32l/hw_config.o
 .text.USB_Cable_Config
                0x08003b24       0x1a build_arm_cortex_m3_base_application_stm32l/hw_config.o
                0x08003b24                USB_Cable_Config
 *fill*         0x08003b3e        0x2 
 .text.Get_SerialNum
                0x08003b40       0x40 build_arm_cortex_m3_base_application_stm32l/hw_config.o
                0x08003b40                Get_SerialNum
 .text.CDC_Receive_DATA
                0x08003b80        0xc build_arm_cortex_m3_base_application_stm32l/hw_config.o
                0x08003b80                CDC_Receive_DATA
 .text.EP1_IN_Callback
                0x08003b8c        0xc build_arm_cortex_m3_base_application_stm32l/usb_endp.o
                0x08003b8c                EP1_IN_Callback
 .text.EP3_OUT_Callback
                0x08003b98       0x40 build_arm_cortex_m3_base_application_stm32l/usb_endp.o
                0x08003b98                EP3_OUT_Callback
 .text.USB_Istr
                0x08003bd8      0x16c build_arm_cortex_m3_base_application_stm32l/usb_istr.o
                0x08003bd8                USB_Istr
 .text.Virtual_Com_Port_Status_In
                0x08003d44       0x14 build_arm_cortex_m3_base_application_stm32l/usb_prop.o
                0x08003d44                Virtual_Com_Port_Status_In
 .text.Virtual_Com_Port_Status_Out
                0x08003d58        0x2 build_arm_cortex_m3_base_application_stm32l/usb_prop.o
                0x08003d58                Virtual_Com_Port_Status_Out
 *fill*         0x08003d5a        0x2 
 .text.Virtual_Com_Port_Data_Setup
                0x08003d5c       0x5c build_arm_cortex_m3_base_application_stm32l/usb_prop.o
                0x08003d5c                Virtual_Com_Port_Data_Setup
 .text.Virtual_Com_Port_NoData_Setup
                0x08003db8       0x24 build_arm_cortex_m3_base_application_stm32l/usb_prop.o
                0x08003db8                Virtual_Com_Port_NoData_Setup
 .text.Virtual_Com_Port_Get_Interface_Setting
                0x08003ddc       0x10 build_arm_cortex_m3_base_application_stm32l/usb_prop.o
                0x08003ddc                Virtual_Com_Port_Get_Interface_Setting
 .text.Virtual_Com_Port_SetLineCoding
                0x08003dec       0x18 build_arm_cortex_m3_base_application_stm32l/usb_prop.o
                0x08003dec                Virtual_Com_Port_SetLineCoding
 .text.Virtual_Com_Port_GetLineCoding
                0x08003e04        0x4 build_arm_cortex_m3_base_application_stm32l/usb_prop.o
                0x08003e04                Virtual_Com_Port_GetLineCoding
 .text.Virtual_Com_Port_init
                0x08003e08       0x24 build_arm_cortex_m3_base_application_stm32l/usb_prop.o
                0x08003e08                Virtual_Com_Port_init
 .text.Virtual_Com_Port_Reset
                0x08003e2c       0xe0 build_arm_cortex_m3_base_application_stm32l/usb_prop.o
                0x08003e2c                Virtual_Com_Port_Reset
 .text.Virtual_Com_Port_GetDeviceDescriptor
                0x08003f0c        0xc build_arm_cortex_m3_base_application_stm32l/usb_prop.o
                0x08003f0c                Virtual_Com_Port_GetDeviceDescriptor
 .text.Virtual_Com_Port_GetConfigDescriptor
                0x08003f18        0xc build_arm_cortex_m3_base_application_stm32l/usb_prop.o
                0x08003f18                Virtual_Com_Port_GetConfigDescriptor
 .text.Virtual_Com_Port_GetStringDescriptor
                0x08003f24       0x20 build_arm_cortex_m3_base_application_stm32l/usb_prop.o
                0x08003f24                Virtual_Com_Port_GetStringDescriptor
 .text.PowerOn  0x08003f44       0x38 build_arm_cortex_m3_base_application_stm32l/usb_pwr.o
                0x08003f44                PowerOn
 .text.Suspend  0x08003f7c       0x88 build_arm_cortex_m3_base_application_stm32l/usb_pwr.o
                0x08003f7c                Suspend
 .text.Resume_Init
                0x08004004       0x18 build_arm_cortex_m3_base_application_stm32l/usb_pwr.o
                0x08004004                Resume_Init
 .text.Resume   0x0800401c       0xa8 build_arm_cortex_m3_base_application_stm32l/usb_pwr.o
                0x0800401c                Resume
 .text.disable_interrupts
                0x080040c4       0x10 build_arm_cortex_m3_base_application_stm32l/stm32l.o
                0x080040c4                disable_interrupts
 .text.entry_critical
                0x080040d4       0x14 build_arm_cortex_m3_base_application_stm32l/stm32l.o
                0x080040d4                entry_critical
 .text.exit_critical
                0x080040e8       0x30 build_arm_cortex_m3_base_application_stm32l/stm32l.o
                0x080040e8                exit_critical
 .text.get_nest_entry_critical_counter
                0x08004118        0xc build_arm_cortex_m3_base_application_stm32l/stm32l.o
                0x08004118                get_nest_entry_critical_counter
 .text.svc_handler
                0x08004124       0x12 build_arm_cortex_m3_base_application_stm32l/system.o
                0x08004124                svc_handler
 .text.pendsv_handler
                0x08004136       0x12 build_arm_cortex_m3_base_application_stm32l/system.o
                0x08004136                pendsv_handler
 .text.default_handler
                0x08004148       0x18 build_arm_cortex_m3_base_application_stm32l/system.o
                0x08004148                default_handler
                0x08004148                dg_monitor_handler
 .text.nmi_handler
                0x08004160       0x18 build_arm_cortex_m3_base_application_stm32l/system.o
                0x08004160                nmi_handler
 .text.hard_fault_handler
                0x08004178       0x18 build_arm_cortex_m3_base_application_stm32l/system.o
                0x08004178                hard_fault_handler
 .text.mem_manage_handler
                0x08004190       0x18 build_arm_cortex_m3_base_application_stm32l/system.o
                0x08004190                mem_manage_handler
 .text.bus_fault_handler
                0x080041a8       0x18 build_arm_cortex_m3_base_application_stm32l/system.o
                0x080041a8                bus_fault_handler
 .text.usage_fault_handler
                0x080041c0       0x18 build_arm_cortex_m3_base_application_stm32l/system.o
                0x080041c0                usage_fault_handler
 .text.systick_handler
                0x080041d8       0x40 build_arm_cortex_m3_base_application_stm32l/system.o
                0x080041d8                systick_handler
 .text.shell_handler
                0x08004218       0x24 build_arm_cortex_m3_base_application_stm32l/system.o
                0x08004218                shell_handler
 .text.exti_line1_irq
                0x0800423c       0x20 build_arm_cortex_m3_base_application_stm32l/system.o
                0x0800423c                exti_line1_irq
 .text.timer6_irq
                0x0800425c       0x28 build_arm_cortex_m3_base_application_stm32l/system.o
                0x0800425c                timer6_irq
 .text.usb_lp_irq
                0x08004284       0x12 build_arm_cortex_m3_base_application_stm32l/system.o
                0x08004284                usb_lp_irq
 *fill*         0x08004296        0x2 
 .text.timer7_irq
                0x08004298       0x24 build_arm_cortex_m3_base_application_stm32l/system.o
                0x08004298                timer7_irq
 .text.sys_ctrl_delay
                0x080042bc        0x8 build_arm_cortex_m3_base_application_stm32l/system.o
                0x080042bc                sys_ctrl_delay
 .text.reset_handler
                0x080042c4       0xcc build_arm_cortex_m3_base_application_stm32l/system.o
                0x080042c4                reset_handler
 .text.sys_ctrl_millis
                0x08004390       0x1c build_arm_cortex_m3_base_application_stm32l/system.o
                0x08004390                sys_ctrl_millis
 .text._init    0x080043ac        0x2 build_arm_cortex_m3_base_application_stm32l/system.o
                0x080043ac                _init
 .text.pendsv_exe
                0x080043ae        0xe build_arm_cortex_m3_base_application_stm32l/system.o
                0x080043ae                pendsv_exe
 .text.svc_exe  0x080043bc        0x4 build_arm_cortex_m3_base_application_stm32l/system.o
                0x080043bc                svc_exe
 .text.sys_cfg_clock
                0x080043c0       0x22 build_arm_cortex_m3_base_application_stm32l/sys_cfg.o
                0x080043c0                sys_cfg_clock
 *fill*         0x080043e2        0x2 
 .text.sys_cfg_tick
                0x080043e4       0x48 build_arm_cortex_m3_base_application_stm32l/sys_cfg.o
                0x080043e4                sys_cfg_tick
 .text.sys_cfg_console
                0x0800442c       0xdc build_arm_cortex_m3_base_application_stm32l/sys_cfg.o
                0x0800442c                sys_cfg_console
 .text.sys_cfg_svc
                0x08004508       0x26 build_arm_cortex_m3_base_application_stm32l/sys_cfg.o
                0x08004508                sys_cfg_svc
 .text.sys_cfg_pendsv
                0x0800452e       0x26 build_arm_cortex_m3_base_application_stm32l/sys_cfg.o
                0x0800452e                sys_cfg_pendsv
 .text.sys_cfg_update_info
                0x08004554       0xe8 build_arm_cortex_m3_base_application_stm32l/sys_cfg.o
                0x08004554                sys_cfg_update_info
 .text.sys_ctrl_shell_put_char
                0x0800463c       0x2c build_arm_cortex_m3_base_application_stm32l/sys_cfg.o
                0x0800463c                sys_ctrl_shell_put_char
 .text.xputchar
                0x08004668        0x4 build_arm_cortex_m3_base_application_stm32l/sys_cfg.o
 .text.sys_ctrl_shell_get_char
                0x0800466c       0x34 build_arm_cortex_m3_base_application_stm32l/sys_cfg.o
                0x0800466c                sys_ctrl_shell_get_char
 .text.sys_ctrl_reset
                0x080046a0       0x20 build_arm_cortex_m3_base_application_stm32l/sys_cfg.o
                0x080046a0                sys_ctrl_reset
 .text.sys_ctrl_delay_us
                0x080046c0       0x28 build_arm_cortex_m3_base_application_stm32l/sys_cfg.o
                0x080046c0                sys_ctrl_delay_us
 .text.sys_ctrl_delay_ms
                0x080046e8       0x1a build_arm_cortex_m3_base_application_stm32l/sys_cfg.o
                0x080046e8                sys_ctrl_delay_ms
 .text.sys_ctr_sleep_wait_for_irq
                0x08004702        0x4 build_arm_cortex_m3_base_application_stm32l/sys_cfg.o
                0x08004702                sys_ctr_sleep_wait_for_irq
 .text.sys_ctrl_independent_watchdog_init
                0x08004706       0x2e build_arm_cortex_m3_base_application_stm32l/sys_cfg.o
                0x08004706                sys_ctrl_independent_watchdog_init
 .text.sys_ctrl_independent_watchdog_reset
                0x08004734       0x12 build_arm_cortex_m3_base_application_stm32l/sys_cfg.o
                0x08004734                sys_ctrl_independent_watchdog_reset
 *fill*         0x08004746        0x2 
 .text.sys_ctrl_soft_watchdog_init
                0x08004748       0x6c build_arm_cortex_m3_base_application_stm32l/sys_cfg.o
                0x08004748                sys_ctrl_soft_watchdog_init
 .text.sys_ctrl_soft_watchdog_reset
                0x080047b4       0x18 build_arm_cortex_m3_base_application_stm32l/sys_cfg.o
                0x080047b4                sys_ctrl_soft_watchdog_reset
 .text.sys_ctrl_soft_watchdog_increase_counter
                0x080047cc       0x3c build_arm_cortex_m3_base_application_stm32l/sys_cfg.o
                0x080047cc                sys_ctrl_soft_watchdog_increase_counter
 .text.sys_ctrl_get_firmware_info
                0x08004808       0x40 build_arm_cortex_m3_base_application_stm32l/sys_cfg.o
                0x08004808                sys_ctrl_get_firmware_info
 .text.ak_irq_io_entry_trigger
                0x08004848        0x2 build_arm_cortex_m3_base_application_stm32l/sys_cfg.o
                0x08004848                ak_irq_io_entry_trigger
 .text.ak_irq_io_exit_trigger
                0x0800484a        0x2 build_arm_cortex_m3_base_application_stm32l/sys_cfg.o
                0x0800484a                ak_irq_io_exit_trigger
 .text.io_button_mode_init
                0x0800484c       0x34 build_arm_cortex_m3_base_application_stm32l/io_cfg.o
                0x0800484c                io_button_mode_init
 .text.io_button_up_init
                0x08004880       0x34 build_arm_cortex_m3_base_application_stm32l/io_cfg.o
                0x08004880                io_button_up_init
 .text.io_button_down_init
                0x080048b4       0x38 build_arm_cortex_m3_base_application_stm32l/io_cfg.o
                0x080048b4                io_button_down_init
 .text.io_button_mode_read
                0x080048ec        0xc build_arm_cortex_m3_base_application_stm32l/io_cfg.o
                0x080048ec                io_button_mode_read
 .text.io_button_up_read
                0x080048f8        0xc build_arm_cortex_m3_base_application_stm32l/io_cfg.o
                0x080048f8                io_button_up_read
 .text.io_button_down_read
                0x08004904       0x10 build_arm_cortex_m3_base_application_stm32l/io_cfg.o
                0x08004904                io_button_down_read
 .text.led_life_init
                0x08004914       0x38 build_arm_cortex_m3_base_application_stm32l/io_cfg.o
                0x08004914                led_life_init
 .text.led_life_on
                0x0800494c       0x10 build_arm_cortex_m3_base_application_stm32l/io_cfg.o
                0x0800494c                led_life_on
 .text.led_life_off
                0x0800495c       0x10 build_arm_cortex_m3_base_application_stm32l/io_cfg.o
                0x0800495c                led_life_off
 .text.nrf24l01_io_ctrl_init
                0x0800496c        0x2 build_arm_cortex_m3_base_application_stm32l/io_cfg.o
                0x0800496c                nrf24l01_io_ctrl_init
 .text.nrf24l01_spi_ctrl_init
                0x0800496e        0x2 build_arm_cortex_m3_base_application_stm32l/io_cfg.o
                0x0800496e                nrf24l01_spi_ctrl_init
 .text.nrf24l01_ce_low
                0x08004970       0x10 build_arm_cortex_m3_base_application_stm32l/io_cfg.o
                0x08004970                nrf24l01_ce_low
 .text.nrf24l01_ce_high
                0x08004980       0x10 build_arm_cortex_m3_base_application_stm32l/io_cfg.o
                0x08004980                nrf24l01_ce_high
 .text.nrf24l01_csn_low
                0x08004990       0x10 build_arm_cortex_m3_base_application_stm32l/io_cfg.o
                0x08004990                nrf24l01_csn_low
 .text.nrf24l01_csn_high
                0x080049a0       0x10 build_arm_cortex_m3_base_application_stm32l/io_cfg.o
                0x080049a0                nrf24l01_csn_high
 .text.flash_cs_low
                0x080049b0       0x10 build_arm_cortex_m3_base_application_stm32l/io_cfg.o
                0x080049b0                flash_cs_low
 .text.flash_cs_high
                0x080049c0       0x10 build_arm_cortex_m3_base_application_stm32l/io_cfg.o
                0x080049c0                flash_cs_high
 .text.flash_transfer
                0x080049d0       0x80 build_arm_cortex_m3_base_application_stm32l/io_cfg.o
                0x080049d0                flash_transfer
 .text.nrf24l01_spi_rw
                0x08004a50        0x4 build_arm_cortex_m3_base_application_stm32l/io_cfg.o
                0x08004a50                nrf24l01_spi_rw
 .text.timer_50us_init
                0x08004a54       0x60 build_arm_cortex_m3_base_application_stm32l/io_cfg.o
                0x08004a54                timer_50us_init
 .text.timer_50us_enable
                0x08004ab4       0x1c build_arm_cortex_m3_base_application_stm32l/io_cfg.o
                0x08004ab4                timer_50us_enable
 .text.sht1x_clk_input_mode
                0x08004ad0       0x38 build_arm_cortex_m3_base_application_stm32l/io_cfg.o
                0x08004ad0                sht1x_clk_input_mode
 .text.sht1x_clk_output_mode
                0x08004b08       0x38 build_arm_cortex_m3_base_application_stm32l/io_cfg.o
                0x08004b08                sht1x_clk_output_mode
 .text.sht1x_clk_digital_write_low
                0x08004b40       0x10 build_arm_cortex_m3_base_application_stm32l/io_cfg.o
                0x08004b40                sht1x_clk_digital_write_low
 .text.sht1x_clk_digital_write_high
                0x08004b50       0x10 build_arm_cortex_m3_base_application_stm32l/io_cfg.o
                0x08004b50                sht1x_clk_digital_write_high
 .text.sht1x_data_input_mode
                0x08004b60       0x38 build_arm_cortex_m3_base_application_stm32l/io_cfg.o
                0x08004b60                sht1x_data_input_mode
 .text.sht1x_data_output_mode
                0x08004b98       0x38 build_arm_cortex_m3_base_application_stm32l/io_cfg.o
                0x08004b98                sht1x_data_output_mode
 .text.sht1x_data_digital_write_low
                0x08004bd0       0x10 build_arm_cortex_m3_base_application_stm32l/io_cfg.o
                0x08004bd0                sht1x_data_digital_write_low
 .text.sht1x_data_digital_write_high
                0x08004be0       0x10 build_arm_cortex_m3_base_application_stm32l/io_cfg.o
                0x08004be0                sht1x_data_digital_write_high
 .text.ds1302_ce_input_mode
                0x08004bf0       0x34 build_arm_cortex_m3_base_application_stm32l/io_cfg.o
                0x08004bf0                ds1302_ce_input_mode
 .text.ds1302_ce_output_mode
                0x08004c24       0x34 build_arm_cortex_m3_base_application_stm32l/io_cfg.o
                0x08004c24                ds1302_ce_output_mode
 .text.ds1302_ce_digital_write_low
                0x08004c58        0xc build_arm_cortex_m3_base_application_stm32l/io_cfg.o
                0x08004c58                ds1302_ce_digital_write_low
 .text.ds1302_ce_digital_write_high
                0x08004c64        0xc build_arm_cortex_m3_base_application_stm32l/io_cfg.o
                0x08004c64                ds1302_ce_digital_write_high
 .text.ds1302_clk_input_mode
                0x08004c70       0x38 build_arm_cortex_m3_base_application_stm32l/io_cfg.o
                0x08004c70                ds1302_clk_input_mode
 .text.ds1302_clk_output_mode
                0x08004ca8       0x38 build_arm_cortex_m3_base_application_stm32l/io_cfg.o
                0x08004ca8                ds1302_clk_output_mode
 .text.ds1302_clk_digital_write_low
                0x08004ce0       0x10 build_arm_cortex_m3_base_application_stm32l/io_cfg.o
                0x08004ce0                ds1302_clk_digital_write_low
 .text.ds1302_clk_digital_write_high
                0x08004cf0       0x10 build_arm_cortex_m3_base_application_stm32l/io_cfg.o
                0x08004cf0                ds1302_clk_digital_write_high
 .text.ds1302_data_input_mode
                0x08004d00       0x34 build_arm_cortex_m3_base_application_stm32l/io_cfg.o
                0x08004d00                ds1302_data_input_mode
 .text.ds1302_data_output_mode
                0x08004d34       0x34 build_arm_cortex_m3_base_application_stm32l/io_cfg.o
                0x08004d34                ds1302_data_output_mode
 .text.ds1302_data_digital_write_low
                0x08004d68        0xc build_arm_cortex_m3_base_application_stm32l/io_cfg.o
                0x08004d68                ds1302_data_digital_write_low
 .text.ds1302_data_digital_write_high
                0x08004d74        0xc build_arm_cortex_m3_base_application_stm32l/io_cfg.o
                0x08004d74                ds1302_data_digital_write_high
 .text.ssd1306_clk_input_mode
                0x08004d80       0x38 build_arm_cortex_m3_base_application_stm32l/io_cfg.o
                0x08004d80                ssd1306_clk_input_mode
 .text.ssd1306_clk_output_mode
                0x08004db8       0x38 build_arm_cortex_m3_base_application_stm32l/io_cfg.o
                0x08004db8                ssd1306_clk_output_mode
 .text.ssd1306_clk_digital_write_low
                0x08004df0       0x10 build_arm_cortex_m3_base_application_stm32l/io_cfg.o
                0x08004df0                ssd1306_clk_digital_write_low
 .text.ssd1306_clk_digital_write_high
                0x08004e00       0x10 build_arm_cortex_m3_base_application_stm32l/io_cfg.o
                0x08004e00                ssd1306_clk_digital_write_high
 .text.ssd1306_data_input_mode
                0x08004e10       0x38 build_arm_cortex_m3_base_application_stm32l/io_cfg.o
                0x08004e10                ssd1306_data_input_mode
 .text.ssd1306_data_output_mode
                0x08004e48       0x38 build_arm_cortex_m3_base_application_stm32l/io_cfg.o
                0x08004e48                ssd1306_data_output_mode
 .text.ssd1306_data_digital_write_low
                0x08004e80       0x10 build_arm_cortex_m3_base_application_stm32l/io_cfg.o
                0x08004e80                ssd1306_data_digital_write_low
 .text.ssd1306_data_digital_write_high
                0x08004e90       0x10 build_arm_cortex_m3_base_application_stm32l/io_cfg.o
                0x08004e90                ssd1306_data_digital_write_high
 .text.Dir_int  0x08004ea0       0x38 build_arm_cortex_m3_base_application_stm32l/io_cfg.o
                0x08004ea0                Dir_int
 .text.PWM_int  0x08004ed8       0x70 build_arm_cortex_m3_base_application_stm32l/io_cfg.o
                0x08004ed8                PWM_int
 .text.TIM3_Encoder_Config
                0x08004f48       0xb8 build_arm_cortex_m3_base_application_stm32l/io_cfg.o
                0x08004f48                TIM3_Encoder_Config
 .text.TIM2_Encoder_Config
                0x08005000       0xb8 build_arm_cortex_m3_base_application_stm32l/io_cfg.o
                0x08005000                TIM2_Encoder_Config
 .text.io_eeprom_read
                0x080050b8       0x34 build_arm_cortex_m3_base_application_stm32l/io_cfg.o
                0x080050b8                io_eeprom_read
 .text.io_eeprom_erase
                0x080050ec       0x50 build_arm_cortex_m3_base_application_stm32l/io_cfg.o
                0x080050ec                io_eeprom_erase
 .text.internal_flash_unlock
                0x0800513c       0x12 build_arm_cortex_m3_base_application_stm32l/io_cfg.o
                0x0800513c                internal_flash_unlock
 .text.internal_flash_lock
                0x0800514e        0x4 build_arm_cortex_m3_base_application_stm32l/io_cfg.o
                0x0800514e                internal_flash_lock
 .text.internal_flash_erase_pages_cal
                0x08005152       0x22 build_arm_cortex_m3_base_application_stm32l/io_cfg.o
                0x08005152                internal_flash_erase_pages_cal
 .text.internal_flash_write_cal
                0x08005174       0x48 build_arm_cortex_m3_base_application_stm32l/io_cfg.o
                0x08005174                internal_flash_write_cal
 .text.SystemInit
                0x080051bc      0x118 build_arm_cortex_m3_base_application_stm32l/system_stm32l1xx.o
                0x080051bc                SystemInit
 .text.SystemCoreClockUpdate
                0x080052d4       0x94 build_arm_cortex_m3_base_application_stm32l/system_stm32l1xx.o
                0x080052d4                SystemCoreClockUpdate
 .text.main_app
                0x08005368      0x178 build_arm_cortex_m3_base_application_stm32l/app.o
                0x08005368                main_app
 .text.sys_irq_timer_10ms
                0x080054e0       0x24 build_arm_cortex_m3_base_application_stm32l/app.o
                0x080054e0                sys_irq_timer_10ms
 .text.sys_irq_pid
                0x08005504        0x2 build_arm_cortex_m3_base_application_stm32l/app.o
                0x08005504                sys_irq_pid
 .text.sys_irq_usb_recv
                0x08005506        0x2 build_arm_cortex_m3_base_application_stm32l/app.o
                0x08005506                sys_irq_usb_recv
 .text._Z17btn_mode_callbackPv
                0x08005508       0x12 build_arm_cortex_m3_base_application_stm32l/app_bsp.o
                0x08005508                btn_mode_callback(void*)
 .text._Z15btn_up_callbackPv
                0x0800551a        0xe build_arm_cortex_m3_base_application_stm32l/app_bsp.o
                0x0800551a                btn_up_callback(void*)
 .text._Z17btn_down_callbackPv
                0x08005528        0xe build_arm_cortex_m3_base_application_stm32l/app_bsp.o
                0x08005528                btn_down_callback(void*)
 .text.rf_printf
                0x08005536        0x2 build_arm_cortex_m3_base_application_stm32l/rf_remote_ctrl.o
                0x08005536                rf_printf
 .text._ZL19str_parser_get_attrh
                0x08005538       0x1c build_arm_cortex_m3_base_application_stm32l/shell.o
 .text._ZL9shell_epiPh
                0x08005554        0x4 build_arm_cortex_m3_base_application_stm32l/shell.o
 .text._ZL9shell_psvPh
                0x08005558       0x14 build_arm_cortex_m3_base_application_stm32l/shell.o
 .text._ZL10shell_helpPh
                0x0800556c       0x30 build_arm_cortex_m3_base_application_stm32l/shell.o
 .text._ZL9shell_dbgPh
                0x0800559c       0xdc build_arm_cortex_m3_base_application_stm32l/shell.o
 .text._ZL9shell_svcPh
                0x08005678       0x10 build_arm_cortex_m3_base_application_stm32l/shell.o
 .text._ZL9shell_fwuPh
                0x08005688       0x34 build_arm_cortex_m3_base_application_stm32l/shell.o
 .text._ZL12shell_rebootPh
                0x080056bc        0xa build_arm_cortex_m3_base_application_stm32l/shell.o
 *fill*         0x080056c6        0x2 
 .text._ZL10str_parserPc
                0x080056c8       0x6c build_arm_cortex_m3_base_application_stm32l/shell.o
 .text._ZL11shell_flashPh
                0x08005734      0x148 build_arm_cortex_m3_base_application_stm32l/shell.o
 .text._ZL9shell_epsPh
                0x0800587c       0xc8 build_arm_cortex_m3_base_application_stm32l/shell.o
 .text._ZL9shell_sttPh
                0x08005944       0x34 build_arm_cortex_m3_base_application_stm32l/shell.o
 .text._ZL11shell_fatalPh
                0x08005978      0x2c0 build_arm_cortex_m3_base_application_stm32l/shell.o
 .text._ZL9shell_ramPh
                0x08005c38      0x1d0 build_arm_cortex_m3_base_application_stm32l/shell.o
 .text._ZL9shell_verPh
                0x08005e08       0xe8 build_arm_cortex_m3_base_application_stm32l/shell.o
 .text._ZL11shell_resetPh
                0x08005ef0       0x10 build_arm_cortex_m3_base_application_stm32l/shell.o
 .text._ZL10shell_bootPh
                0x08005f00       0xdc build_arm_cortex_m3_base_application_stm32l/shell.o
 .text._ZL9shell_lcdPh
                0x08005fdc       0xdc build_arm_cortex_m3_base_application_stm32l/shell.o
 .text.sys_irq_shell
                0x080060b8       0x9c build_arm_cortex_m3_base_application_stm32l/task_shell.o
                0x080060b8                sys_irq_shell
 .text._Z10task_shellP8ak_msg_t
                0x08006154       0x88 build_arm_cortex_m3_base_application_stm32l/task_shell.o
                0x08006154                task_shell(ak_msg_t*)
 .text._Z9task_lifeP8ak_msg_t
                0x080061dc       0x20 build_arm_cortex_m3_base_application_stm32l/task_life.o
                0x080061dc                task_life(ak_msg_t*)
 .text._Z7task_fwP8ak_msg_t
                0x080061fc      0x3c8 build_arm_cortex_m3_base_application_stm32l/task_fw.o
                0x080061fc                task_fw(ak_msg_t*)
 .text._Z12task_displayP8ak_msg_t
                0x080065c4       0xc8 build_arm_cortex_m3_base_application_stm32l/task_display.o
                0x080065c4                task_display(ak_msg_t*)
 .text._Z11check_statev
                0x0800668c       0x80 build_arm_cortex_m3_base_application_stm32l/task_game_oled.o
                0x0800668c                check_state()
 .text.startup._GLOBAL__sub_I_player1
                0x0800670c       0x68 build_arm_cortex_m3_base_application_stm32l/task_game_oled.o
 .text._Z9game_initv
                0x08006774       0xb0 build_arm_cortex_m3_base_application_stm32l/task_game_oled.o
                0x08006774                game_init()
 .text._Z17display_game_stopv
                0x08006824       0x3c build_arm_cortex_m3_base_application_stm32l/task_game_oled.o
                0x08006824                display_game_stop()
 .text._Z17display_game_overv
                0x08006860       0x88 build_arm_cortex_m3_base_application_stm32l/task_game_oled.o
                0x08006860                display_game_over()
 .text._Z13display_realyv
                0x080068e8      0x1d0 build_arm_cortex_m3_base_application_stm32l/task_game_oled.o
                0x080068e8                display_realy()
 .text._Z8game_runv
                0x08006ab8      0x2a8 build_arm_cortex_m3_base_application_stm32l/task_game_oled.o
                0x08006ab8                game_run()
 .text._Z9task_gameP8ak_msg_t
                0x08006d60       0xec build_arm_cortex_m3_base_application_stm32l/task_game_oled.o
                0x08006d60                task_game(ak_msg_t*)
 .text._Z7task_ifP8ak_msg_t
                0x08006e4c       0x82 build_arm_cortex_m3_base_application_stm32l/task_if.o
                0x08006e4c                task_if(ak_msg_t*)
 .text._Z12task_rf24_ifP8ak_msg_t
                0x08006ece        0x2 build_arm_cortex_m3_base_application_stm32l/task_rf24_if.o
                0x08006ece                task_rf24_if(ak_msg_t*)
 .text._ZL13tx_frame_postPhm
                0x08006ed0       0x50 build_arm_cortex_m3_base_application_stm32l/task_uart_if.o
 .text._Z12task_uart_ifP8ak_msg_t
                0x08006f20      0x160 build_arm_cortex_m3_base_application_stm32l/task_uart_if.o
                0x08006f20                task_uart_if(ak_msg_t*)
 .text._Z15rx_frame_parserh
                0x08007080      0x154 build_arm_cortex_m3_base_application_stm32l/task_uart_if.o
                0x08007080                rx_frame_parser(unsigned char)
 .text._Z8task_dbgP8ak_msg_t
                0x080071d4        0x2 build_arm_cortex_m3_base_application_stm32l/task_dbg.o
                0x080071d4                task_dbg(ak_msg_t*)
 *fill*         0x080071d6        0x2 
 .text.startup._GLOBAL__sub_I_view_render
                0x080071d8        0xc build_arm_cortex_m3_base_application_stm32l/view_render.o
 .text.exit._GLOBAL__sub_D_view_render
                0x080071e4        0xc build_arm_cortex_m3_base_application_stm32l/view_render.o
 .text._ZN12Adafruit_GFX8drawLineEsssst
                0x080071f0       0xc0 build_arm_cortex_m3_base_application_stm32l/Adafruit_GFX.o
                0x080071f0                Adafruit_GFX::drawLine(short, short, short, short, unsigned short)
 .text._ZN12Adafruit_GFX8drawRectEsssst
                0x080072b0       0x60 build_arm_cortex_m3_base_application_stm32l/Adafruit_GFX.o
                0x080072b0                Adafruit_GFX::drawRect(short, short, short, short, unsigned short)
 .text._ZN12Adafruit_GFX13drawFastVLineEssst
                0x08007310       0x1c build_arm_cortex_m3_base_application_stm32l/Adafruit_GFX.o
                0x08007310                Adafruit_GFX::drawFastVLine(short, short, short, unsigned short)
 .text._ZN12Adafruit_GFX13drawFastHLineEssst
                0x0800732c       0x1a build_arm_cortex_m3_base_application_stm32l/Adafruit_GFX.o
                0x0800732c                Adafruit_GFX::drawFastHLine(short, short, short, unsigned short)
 .text._ZN12Adafruit_GFX8fillRectEsssst
                0x08007346       0x38 build_arm_cortex_m3_base_application_stm32l/Adafruit_GFX.o
                0x08007346                Adafruit_GFX::fillRect(short, short, short, short, unsigned short)
 .text._ZN12Adafruit_GFX10fillScreenEt
                0x0800737e       0x1c build_arm_cortex_m3_base_application_stm32l/Adafruit_GFX.o
                0x0800737e                Adafruit_GFX::fillScreen(unsigned short)
 .text._ZN12Adafruit_GFX13invertDisplayEb
                0x0800739a        0x2 build_arm_cortex_m3_base_application_stm32l/Adafruit_GFX.o
                0x0800739a                Adafruit_GFX::invertDisplay(bool)
 .text._ZN12Adafruit_GFXC2Ess
                0x0800739c       0x2c build_arm_cortex_m3_base_application_stm32l/Adafruit_GFX.o
                0x0800739c                Adafruit_GFX::Adafruit_GFX(short, short)
                0x0800739c                Adafruit_GFX::Adafruit_GFX(short, short)
 .text._ZN12Adafruit_GFX8drawCharEsshtth
                0x080073c8      0x12c build_arm_cortex_m3_base_application_stm32l/Adafruit_GFX.o
                0x080073c8                Adafruit_GFX::drawChar(short, short, unsigned char, unsigned short, unsigned short, unsigned char)
 .text._ZN12Adafruit_GFX5writeEh
                0x080074f4       0x6a build_arm_cortex_m3_base_application_stm32l/Adafruit_GFX.o
                0x080074f4                Adafruit_GFX::write(unsigned char)
 .text._ZN12Adafruit_GFX9setCursorEss
                0x0800755e        0x6 build_arm_cortex_m3_base_application_stm32l/Adafruit_GFX.o
                0x0800755e                Adafruit_GFX::setCursor(short, short)
 .text._ZN12Adafruit_GFX11setTextSizeEh
                0x08007564        0xa build_arm_cortex_m3_base_application_stm32l/Adafruit_GFX.o
                0x08007564                Adafruit_GFX::setTextSize(unsigned char)
 .text._ZN12Adafruit_GFX12setTextColorEt
                0x0800756e        0x6 build_arm_cortex_m3_base_application_stm32l/Adafruit_GFX.o
                0x0800756e                Adafruit_GFX::setTextColor(unsigned short)
 .text._ZN12Adafruit_GFX12setTextColorEtt
                0x08007574        0x6 build_arm_cortex_m3_base_application_stm32l/Adafruit_GFX.o
                0x08007574                Adafruit_GFX::setTextColor(unsigned short, unsigned short)
 .text._ZN12Adafruit_GFX5widthEv
                0x0800757a        0x6 build_arm_cortex_m3_base_application_stm32l/Adafruit_GFX.o
                0x0800757a                Adafruit_GFX::width()
 .text._ZN12Adafruit_GFX6heightEv
                0x08007580        0x6 build_arm_cortex_m3_base_application_stm32l/Adafruit_GFX.o
                0x08007580                Adafruit_GFX::height()
 .text._ZN19Adafruit_ssd1306syp10drawBitmapEssPKhsst
                0x08007586       0x88 build_arm_cortex_m3_base_application_stm32l/Adafruit_ssd1306syp.o
                0x08007586                Adafruit_ssd1306syp::drawBitmap(short, short, unsigned char const*, short, short, unsigned short)
 .text._ZN19Adafruit_ssd1306syp9updateRowEii
                0x0800760e       0x1e build_arm_cortex_m3_base_application_stm32l/Adafruit_ssd1306syp.o
                0x0800760e                Adafruit_ssd1306syp::updateRow(int, int)
 .text._ZN19Adafruit_ssd1306syp9drawPixelEsst
                0x0800762c       0x70 build_arm_cortex_m3_base_application_stm32l/Adafruit_ssd1306syp.o
                0x0800762c                Adafruit_ssd1306syp::drawPixel(short, short, unsigned short)
 .text._ZN19Adafruit_ssd1306sypC2Ev
                0x0800769c       0x24 build_arm_cortex_m3_base_application_stm32l/Adafruit_ssd1306syp.o
                0x0800769c                Adafruit_ssd1306syp::Adafruit_ssd1306syp()
                0x0800769c                Adafruit_ssd1306syp::Adafruit_ssd1306syp()
 .text._ZN19Adafruit_ssd1306sypD2Ev
                0x080076c0        0x2 build_arm_cortex_m3_base_application_stm32l/Adafruit_ssd1306syp.o
                0x080076c0                Adafruit_ssd1306syp::~Adafruit_ssd1306syp()
                0x080076c0                Adafruit_ssd1306syp::~Adafruit_ssd1306syp()
 .text._ZN19Adafruit_ssd1306syp5clearEb
                0x080076c2       0x22 build_arm_cortex_m3_base_application_stm32l/Adafruit_ssd1306syp.o
                0x080076c2                Adafruit_ssd1306syp::clear(bool)
 .text._ZN19Adafruit_ssd1306syp9writeByteEh
                0x080076e4       0x56 build_arm_cortex_m3_base_application_stm32l/Adafruit_ssd1306syp.o
                0x080076e4                Adafruit_ssd1306syp::writeByte(unsigned char)
 .text._ZN19Adafruit_ssd1306syp8startIICEv
                0x0800773a       0x2c build_arm_cortex_m3_base_application_stm32l/Adafruit_ssd1306syp.o
                0x0800773a                Adafruit_ssd1306syp::startIIC()
 .text._ZN19Adafruit_ssd1306syp7stopIICEv
                0x08007766       0x2c build_arm_cortex_m3_base_application_stm32l/Adafruit_ssd1306syp.o
                0x08007766                Adafruit_ssd1306syp::stopIIC()
 .text._ZN19Adafruit_ssd1306syp12writeCommandEh
                0x08007792       0x2c build_arm_cortex_m3_base_application_stm32l/Adafruit_ssd1306syp.o
                0x08007792                Adafruit_ssd1306syp::writeCommand(unsigned char)
 *fill*         0x080077be        0x2 
 .text._ZN19Adafruit_ssd1306syp10initializeEv
                0x080077c0      0x104 build_arm_cortex_m3_base_application_stm32l/Adafruit_ssd1306syp.o
                0x080077c0                Adafruit_ssd1306syp::initialize()
 .text._ZN19Adafruit_ssd1306syp10display_onEv
                0x080078c4        0x6 build_arm_cortex_m3_base_application_stm32l/Adafruit_ssd1306syp.o
                0x080078c4                Adafruit_ssd1306syp::display_on()
 .text._ZN19Adafruit_ssd1306syp11display_offEv
                0x080078ca        0x6 build_arm_cortex_m3_base_application_stm32l/Adafruit_ssd1306syp.o
                0x080078ca                Adafruit_ssd1306syp::display_off()
 .text._ZN19Adafruit_ssd1306syp17startDataSequenceEv
                0x080078d0       0x1c build_arm_cortex_m3_base_application_stm32l/Adafruit_ssd1306syp.o
                0x080078d0                Adafruit_ssd1306syp::startDataSequence()
 .text._ZN19Adafruit_ssd1306syp6updateEv
                0x080078ec       0x54 build_arm_cortex_m3_base_application_stm32l/Adafruit_ssd1306syp.o
                0x080078ec                Adafruit_ssd1306syp::update()
 .text._ZN19Adafruit_ssd1306syp9updateRowEi
                0x08007940       0x6e build_arm_cortex_m3_base_application_stm32l/Adafruit_ssd1306syp.o
                0x08007940                Adafruit_ssd1306syp::updateRow(int)
 .text.eeprom_read
                0x080079ae        0x4 build_arm_cortex_m3_base_application_stm32l/eeprom.o
                0x080079ae                eeprom_read
 .text.eeprom_erase
                0x080079b2        0x4 build_arm_cortex_m3_base_application_stm32l/eeprom.o
                0x080079b2                eeprom_erase
 *fill*         0x080079b6        0x2 
 .text.startup._GLOBAL__sub_I__ZN9DhcpClass13beginWithDHCPEPhmm
                0x080079b8       0x1c build_arm_cortex_m3_base_application_stm32l/Dhcp.o
 .text.startup._GLOBAL__sub_I__ZN9DNSClient5beginERK9IPAddress
                0x080079d4       0x1c build_arm_cortex_m3_base_application_stm32l/Dns.o
 .text.startup._GLOBAL__sub_I__ZN14EthernetClient8_srcportE
                0x080079f0       0x1c build_arm_cortex_m3_base_application_stm32l/EthernetClient.o
 .text.startup._GLOBAL__sub_I__ZN13EthernetClass6_stateE
                0x08007a0c       0x24 build_arm_cortex_m3_base_application_stm32l/Ethernet.o
 .text.startup._GLOBAL__sub_I__ZN14EthernetServerC2Et
                0x08007a30       0x1c build_arm_cortex_m3_base_application_stm32l/EthernetServer.o
 .text.startup._GLOBAL__sub_I__ZN11EthernetUDPC2Ev
                0x08007a4c       0x1c build_arm_cortex_m3_base_application_stm32l/EthernetUdp.o
 .text._Z18nrf_nwk_pdu_mallocv
                0x08007a68       0x34 build_arm_cortex_m3_base_application_stm32l/nrf_data.o
                0x08007a68                nrf_nwk_pdu_malloc()
 .text._Z16nrf_nwk_pdu_freeP13nrf_nwk_pdu_t
                0x08007a9c       0x20 build_arm_cortex_m3_base_application_stm32l/nrf_data.o
                0x08007a9c                nrf_nwk_pdu_free(nrf_nwk_pdu_t*)
 .text._Z15nrf_nwk_pdu_getm
                0x08007abc       0x10 build_arm_cortex_m3_base_application_stm32l/nrf_data.o
                0x08007abc                nrf_nwk_pdu_get(unsigned long)
 .text._Z23nrf_get_static_nwk_addrv
                0x08007acc       0x1c build_arm_cortex_m3_base_application_stm32l/nrf_data.o
                0x08007acc                nrf_get_static_nwk_addr()
 .text._Z20nrf_get_des_phy_addrv
                0x08007ae8        0x8 build_arm_cortex_m3_base_application_stm32l/nrf_data.o
                0x08007ae8                nrf_get_des_phy_addr()
 .text._Z20nrf_get_src_phy_addrv
                0x08007af0        0x8 build_arm_cortex_m3_base_application_stm32l/nrf_data.o
                0x08007af0                nrf_get_src_phy_addr()
 .text._Z13task_rf24_macP8ak_msg_t
                0x08007af8      0x318 build_arm_cortex_m3_base_application_stm32l/nrf_mac.o
                0x08007af8                task_rf24_mac(ak_msg_t*)
 .text._Z13task_rf24_nwkP8ak_msg_t
                0x08007e10        0xc build_arm_cortex_m3_base_application_stm32l/nrf_nwk.o
                0x08007e10                task_rf24_nwk(ak_msg_t*)
 .text.sys_irq_nrf24l01
                0x08007e1c       0x8c build_arm_cortex_m3_base_application_stm32l/nrf_phy.o
                0x08007e1c                sys_irq_nrf24l01
 .text._Z23nrf_phy_switch_ptx_modev
                0x08007ea8       0x1a build_arm_cortex_m3_base_application_stm32l/nrf_phy.o
                0x08007ea8                nrf_phy_switch_ptx_mode()
 .text._Z23nrf_phy_switch_prx_modev
                0x08007ec2       0x26 build_arm_cortex_m3_base_application_stm32l/nrf_phy.o
                0x08007ec2                nrf_phy_switch_prx_mode()
 .text._Z13task_rf24_phyP8ak_msg_t
                0x08007ee8      0x148 build_arm_cortex_m3_base_application_stm32l/nrf_phy.o
                0x08007ee8                task_rf24_phy(ak_msg_t*)
 .text._Z13task_link_macP8ak_msg_t
                0x08008030        0x2 build_arm_cortex_m3_base_application_stm32l/link_mac.o
                0x08008030                task_link_mac(ak_msg_t*)
 .text._Z13task_link_phyP8ak_msg_t
                0x08008032        0x2 build_arm_cortex_m3_base_application_stm32l/link_phy.o
                0x08008032                task_link_phy(ak_msg_t*)
 .text._Z7pinModehh
                0x08008034       0xe8 build_arm_cortex_m3_base_application_stm32l/wiring_digital.o
                0x08008034                pinMode(unsigned char, unsigned char)
 .text._Z12digitalWritehh
                0x0800811c       0xd8 build_arm_cortex_m3_base_application_stm32l/wiring_digital.o
                0x0800811c                digitalWrite(unsigned char, unsigned char)
 .text._ZN5Print5writeEPKhj
                0x080081f4       0x22 build_arm_cortex_m3_base_application_stm32l/Print.o
                0x080081f4                Print::write(unsigned char const*, unsigned int)
 .text._ZN5Print5writeEPKc
                0x08008216       0x20 build_arm_cortex_m3_base_application_stm32l/Print.o
                0x08008216                Print::write(char const*)
 .text._ZN5Print5printEPKc
                0x08008236        0x8 build_arm_cortex_m3_base_application_stm32l/Print.o
                0x08008236                Print::print(char const*)
 .text._ZN5Print5printEc
                0x0800823e        0x6 build_arm_cortex_m3_base_application_stm32l/Print.o
                0x0800823e                Print::print(char)
 .text._ZN5Print11printNumberEmh
                0x08008244       0x3e build_arm_cortex_m3_base_application_stm32l/Print.o
                0x08008244                Print::printNumber(unsigned long, unsigned char)
 .text._ZN5Print5printEmi
                0x08008282       0x16 build_arm_cortex_m3_base_application_stm32l/Print.o
                0x08008282                Print::print(unsigned long, int)
 .text._ZN5Print5printEhi
                0x08008298        0x4 build_arm_cortex_m3_base_application_stm32l/Print.o
                0x08008298                Print::print(unsigned char, int)
 .text._ZN5Print5printEli
                0x0800829c       0x44 build_arm_cortex_m3_base_application_stm32l/Print.o
                0x0800829c                Print::print(long, int)
 .text._ZN5Print5printEii
                0x080082e0        0x4 build_arm_cortex_m3_base_application_stm32l/Print.o
                0x080082e0                Print::print(int, int)
 .text._Z6randoml
                0x080082e4       0x16 build_arm_cortex_m3_base_application_stm32l/WMath.o
                0x080082e4                random(long)
 .text._Z6randomll
                0x080082fa       0x14 build_arm_cortex_m3_base_application_stm32l/WMath.o
                0x080082fa                random(long, long)
 .text._ZNK9IPAddress7printToER5Print
                0x0800830e       0x3e build_arm_cortex_m3_base_application_stm32l/IPAddress.o
                0x0800830e                IPAddress::printTo(Print&) const
 .text._ZN9IPAddressC2Ev
                0x0800834c       0x10 build_arm_cortex_m3_base_application_stm32l/IPAddress.o
                0x0800834c                IPAddress::IPAddress()
                0x0800834c                IPAddress::IPAddress()
 .text._ZN9IPAddressC2Ehhhh
                0x0800835c       0x18 build_arm_cortex_m3_base_application_stm32l/IPAddress.o
                0x0800835c                IPAddress::IPAddress(unsigned char, unsigned char, unsigned char, unsigned char)
                0x0800835c                IPAddress::IPAddress(unsigned char, unsigned char, unsigned char, unsigned char)
 .text.startup._GLOBAL__sub_I__ZN8SPIClassC2Ev
                0x08008374       0x18 build_arm_cortex_m3_base_application_stm32l/SPI.o
 .text._ZN7TwoWire9availableEv
                0x0800838c       0x14 build_arm_cortex_m3_base_application_stm32l/Wire.o
                0x0800838c                TwoWire::available()
 .text._ZN7TwoWire4readEv
                0x080083a0       0x28 build_arm_cortex_m3_base_application_stm32l/Wire.o
                0x080083a0                TwoWire::read()
 .text._ZN7TwoWire4peekEv
                0x080083c8       0x24 build_arm_cortex_m3_base_application_stm32l/Wire.o
                0x080083c8                TwoWire::peek()
 .text._ZN7TwoWire5flushEv
                0x080083ec        0x2 build_arm_cortex_m3_base_application_stm32l/Wire.o
                0x080083ec                TwoWire::flush()
 *fill*         0x080083ee        0x2 
 .text._ZN7TwoWire5writeEPKhj
                0x080083f0       0x34 build_arm_cortex_m3_base_application_stm32l/Wire.o
                0x080083f0                TwoWire::write(unsigned char const*, unsigned int)
 .text._ZN7TwoWire5writeEh
                0x08008424       0x54 build_arm_cortex_m3_base_application_stm32l/Wire.o
                0x08008424                TwoWire::write(unsigned char)
 .text._ZN7TwoWireC2Ev
                0x08008478       0x14 build_arm_cortex_m3_base_application_stm32l/Wire.o
                0x08008478                TwoWire::TwoWire()
                0x08008478                TwoWire::TwoWire()
 .text.startup._GLOBAL__sub_I__ZN7TwoWire8rxBufferE
                0x0800848c        0xc build_arm_cortex_m3_base_application_stm32l/Wire.o
 .text._Z12twi_transmitPKhh
                0x08008498       0x3c build_arm_cortex_m3_base_application_stm32l/twi.o
                0x08008498                twi_transmit(unsigned char const*, unsigned char)
 .text.__cxa_pure_virtual
                0x080084d4       0x18 build_arm_cortex_m3_base_application_stm32l/mini_cpp.o
                0x080084d4                __cxa_pure_virtual
 .text._sbrk    0x080084ec       0x1c build_arm_cortex_m3_base_application_stm32l/mini_cpp.o
                0x080084ec                _sbrk
 .text.__locale_ctype_ptr_l
                0x08008508        0x8 /home/chuong/workspace/tools/gcc-arm-none-eabi-5_4-2016q3/arm-none-eabi/lib/armv7-m/libc.a(lib_a-locale.o)
                0x08008508                __locale_ctype_ptr_l
 .text.malloc   0x08008510       0x10 /home/chuong/workspace/tools/gcc-arm-none-eabi-5_4-2016q3/arm-none-eabi/lib/armv7-m/libc.a(lib_a-malloc.o)
                0x08008510                malloc
 .text.free     0x08008520       0x10 /home/chuong/workspace/tools/gcc-arm-none-eabi-5_4-2016q3/arm-none-eabi/lib/armv7-m/libc.a(lib_a-malloc.o)
                0x08008520                free
 .text._malloc_r
                0x08008530      0x558 /home/chuong/workspace/tools/gcc-arm-none-eabi-5_4-2016q3/arm-none-eabi/lib/armv7-m/libc.a(lib_a-mallocr.o)
                0x08008530                _malloc_r
 .text.__ascii_mbtowc
                0x08008a88       0x2c /home/chuong/workspace/tools/gcc-arm-none-eabi-5_4-2016q3/arm-none-eabi/lib/armv7-m/libc.a(lib_a-mbtowc_r.o)
                0x08008a88                __ascii_mbtowc
 .text.memcmp   0x08008ab4       0x64 /home/chuong/workspace/tools/gcc-arm-none-eabi-5_4-2016q3/arm-none-eabi/lib/armv7-m/libc.a(lib_a-memcmp.o)
                0x08008ab4                memcmp
 .text.memset   0x08008b18       0x9c /home/chuong/workspace/tools/gcc-arm-none-eabi-5_4-2016q3/arm-none-eabi/lib/armv7-m/libc.a(lib_a-memset.o)
                0x08008b18                memset
 .text.__malloc_lock
                0x08008bb4        0x4 /home/chuong/workspace/tools/gcc-arm-none-eabi-5_4-2016q3/arm-none-eabi/lib/armv7-m/libc.a(lib_a-mlock.o)
                0x08008bb4                __malloc_lock
 .text.__malloc_unlock
                0x08008bb8        0x4 /home/chuong/workspace/tools/gcc-arm-none-eabi-5_4-2016q3/arm-none-eabi/lib/armv7-m/libc.a(lib_a-mlock.o)
                0x08008bb8                __malloc_unlock
 .text.rand     0x08008bbc       0x40 /home/chuong/workspace/tools/gcc-arm-none-eabi-5_4-2016q3/arm-none-eabi/lib/armv7-m/libc.a(lib_a-rand.o)
                0x08008bbc                rand
 .text._sbrk_r  0x08008bfc       0x24 /home/chuong/workspace/tools/gcc-arm-none-eabi-5_4-2016q3/arm-none-eabi/lib/armv7-m/libc.a(lib_a-sbrkr.o)
                0x08008bfc                _sbrk_r
 .text.strcpy   0x08008c20       0xbc /home/chuong/workspace/tools/gcc-arm-none-eabi-5_4-2016q3/arm-none-eabi/lib/armv7-m/libc.a(lib_a-strcpy.o)
                0x08008c20                strcpy
 .text.strlen   0x08008cdc       0x5c /home/chuong/workspace/tools/gcc-arm-none-eabi-5_4-2016q3/arm-none-eabi/lib/armv7-m/libc.a(lib_a-strlen-stub.o)
                0x08008cdc                strlen
 .text._strtol_l.isra.0
                0x08008d38      0x138 /home/chuong/workspace/tools/gcc-arm-none-eabi-5_4-2016q3/arm-none-eabi/lib/armv7-m/libc.a(lib_a-strtol.o)
 .text.strtol   0x08008e70       0x2c /home/chuong/workspace/tools/gcc-arm-none-eabi-5_4-2016q3/arm-none-eabi/lib/armv7-m/libc.a(lib_a-strtol.o)
                0x08008e70                strtol
 .text.__ascii_wctomb
                0x08008e9c       0x1c /home/chuong/workspace/tools/gcc-arm-none-eabi-5_4-2016q3/arm-none-eabi/lib/armv7-m/libc.a(lib_a-wctomb_r.o)
                0x08008e9c                __ascii_wctomb
 .text._malloc_trim_r
                0x08008eb8       0x9c /home/chuong/workspace/tools/gcc-arm-none-eabi-5_4-2016q3/arm-none-eabi/lib/armv7-m/libc.a(lib_a-freer.o)
                0x08008eb8                _malloc_trim_r
 .text._free_r  0x08008f54      0x1d0 /home/chuong/workspace/tools/gcc-arm-none-eabi-5_4-2016q3/arm-none-eabi/lib/armv7-m/libc.a(lib_a-freer.o)
                0x08008f54                _free_r
 *(.rodata)
 *(.rodata*)
 .rodata.str1.1
                0x08009124       0x56 build_arm_cortex_m3_base_application_stm32l/message.o
 .rodata.log2lkup.5251
                0x0800917a      0x100 build_arm_cortex_m3_base_application_stm32l/task.o
 .rodata.str1.1
                0x0800927a       0x1d build_arm_cortex_m3_base_application_stm32l/task.o
 .rodata.str1.1
                0x08009297        0x3 build_arm_cortex_m3_base_application_stm32l/timer.o
 .rodata.str1.1
                0x0800929a       0x1d build_arm_cortex_m3_base_application_stm32l/fifo.o
 .rodata.str1.1
                0x080092b7      0x345 build_arm_cortex_m3_base_application_stm32l/sys_dbg.o
                                0x347 (size before relaxing)
 .rodata.Virtual_Com_Port_StringVendor
                0x080095fc       0x26 build_arm_cortex_m3_base_application_stm32l/usb_desc.o
                0x080095fc                Virtual_Com_Port_StringVendor
 .rodata.Virtual_Com_Port_DeviceDescriptor
                0x08009622       0x12 build_arm_cortex_m3_base_application_stm32l/usb_desc.o
                0x08009622                Virtual_Com_Port_DeviceDescriptor
 .rodata.Virtual_Com_Port_StringLangID
                0x08009634        0x4 build_arm_cortex_m3_base_application_stm32l/usb_desc.o
                0x08009634                Virtual_Com_Port_StringLangID
 .rodata.Virtual_Com_Port_StringProduct
                0x08009638       0x32 build_arm_cortex_m3_base_application_stm32l/usb_desc.o
                0x08009638                Virtual_Com_Port_StringProduct
 .rodata.Virtual_Com_Port_ConfigDescriptor
                0x0800966a       0x43 build_arm_cortex_m3_base_application_stm32l/usb_desc.o
                0x0800966a                Virtual_Com_Port_ConfigDescriptor
 .rodata.str1.1
                0x080096ad        0x4 build_arm_cortex_m3_base_application_stm32l/stm32l.o
 .rodata.str1.1
                0x080096b1        0x3 build_arm_cortex_m3_base_application_stm32l/system.o
 .rodata.str1.1
                0x080096b4       0x67 build_arm_cortex_m3_base_application_stm32l/sys_cfg.o
                                 0x69 (size before relaxing)
 .rodata.str1.1
                0x0800971b        0x4 build_arm_cortex_m3_base_application_stm32l/io_cfg.o
 .rodata.str1.1
                0x0800971f        0x6 build_arm_cortex_m3_base_application_stm32l/app.o
 .rodata.str1.1
                0x08009725      0x554 build_arm_cortex_m3_base_application_stm32l/shell.o
                                0x738 (size before relaxing)
 .rodata.str1.1
                0x08009c79       0x43 build_arm_cortex_m3_base_application_stm32l/task_shell.o
 .rodata.str1.1
                0x08009cbc       0x49 build_arm_cortex_m3_base_application_stm32l/task_display.o
 .rodata._ZL18flappybird_frame_1
                0x08009cbc        0xf build_arm_cortex_m3_base_application_stm32l/task_game_oled.o
 .rodata._ZL18flappybird_frame_2
                0x08009ccb        0xf build_arm_cortex_m3_base_application_stm32l/task_game_oled.o
 .rodata._ZL9barbottom
                0x08009cda       0x14 build_arm_cortex_m3_base_application_stm32l/task_game_oled.o
 .rodata.str1.1
                0x08009cee       0xa2 build_arm_cortex_m3_base_application_stm32l/task_game_oled.o
                                 0xa9 (size before relaxing)
 .rodata._ZL3brr
                0x08009d90       0x16 build_arm_cortex_m3_base_application_stm32l/task_game_oled.o
 .rodata._ZL6bartop
                0x08009da6       0x14 build_arm_cortex_m3_base_application_stm32l/task_game_oled.o
 .rodata.str1.1
                0x08009dba        0x8 build_arm_cortex_m3_base_application_stm32l/task_uart_if.o
 *fill*         0x08009dc2        0x2 
 .rodata._ZTV12Adafruit_GFX
                0x08009dc4       0x30 build_arm_cortex_m3_base_application_stm32l/Adafruit_GFX.o
                0x08009dc4                vtable for Adafruit_GFX
 .rodata._ZL4font
                0x08009df4      0x4fb build_arm_cortex_m3_base_application_stm32l/Adafruit_GFX.o
 *fill*         0x0800a2ef        0x1 
 .rodata._ZTV19Adafruit_ssd1306syp
                0x0800a2f0       0x44 build_arm_cortex_m3_base_application_stm32l/Adafruit_ssd1306syp.o
                0x0800a2f0                vtable for Adafruit_ssd1306syp
 .rodata.str1.1
                0x0800a334        0x8 build_arm_cortex_m3_base_application_stm32l/nrf_data.o
 .rodata.str1.1
                0x0800a33c        0x4 build_arm_cortex_m3_base_application_stm32l/nrf_phy.o
 .rodata.str1.1
                0x0800a340        0x3 build_arm_cortex_m3_base_application_stm32l/wiring_digital.o
 *fill*         0x0800a343        0x1 
 .rodata._ZTV9IPAddress
                0x0800a344        0xc build_arm_cortex_m3_base_application_stm32l/IPAddress.o
                0x0800a344                vtable for IPAddress
 .rodata._ZTV7TwoWire
                0x0800a350       0x20 build_arm_cortex_m3_base_application_stm32l/Wire.o
                0x0800a350                vtable for TwoWire
 .rodata.str1.1
                0x0800a370        0x4 build_arm_cortex_m3_base_application_stm32l/mini_cpp.o
 .rodata.str1.4
                0x0800a374       0x14 /home/chuong/workspace/tools/gcc-arm-none-eabi-5_4-2016q3/arm-none-eabi/lib/armv7-m/libc.a(lib_a-locale.o)
                                 0x12 (size before relaxing)
 .rodata._ctype_
                0x0800a388      0x101 /home/chuong/workspace/tools/gcc-arm-none-eabi-5_4-2016q3/arm-none-eabi/lib/armv7-m/libc.a(lib_a-ctype_.o)
                0x0800a388                _ctype_
 *(.glue_7)
 .glue_7        0x0800a489        0x0 linker stubs
 *(.glue_7t)
 .glue_7t       0x0800a489        0x0 linker stubs
 *(.init)
 *(.fini)
                0x0800a48c                . = ALIGN (0x4)
 *fill*         0x0800a489        0x3 
                0x0800a48c                _etext = .

.vfp11_veneer   0x0800a48c        0x0
 .vfp11_veneer  0x0800a48c        0x0 linker stubs

.v4_bx          0x0800a48c        0x0
 .v4_bx         0x0800a48c        0x0 linker stubs

.iplt           0x0800a48c        0x0
 .iplt          0x0800a48c        0x0 build_arm_cortex_m3_base_application_stm32l/message.o

.rel.dyn        0x0800a48c        0x0
 .rel.iplt      0x0800a48c        0x0 build_arm_cortex_m3_base_application_stm32l/message.o

.preinit_array  0x0800a48c        0x0
                0x0800a48c                PROVIDE (__preinit_array_start, .)
 *(SORT(.preinit_array.*))
 *(.preinit_array*)
                0x0800a48c                PROVIDE (__preinit_array_end, .)

.init_array     0x0800a48c       0x28
                0x0800a48c                PROVIDE (__init_array_start, .)
 *(SORT(.init_array.*))
 *(.init_array*)
 .init_array    0x0800a48c        0x4 build_arm_cortex_m3_base_application_stm32l/task_game_oled.o
 .init_array    0x0800a490        0x4 build_arm_cortex_m3_base_application_stm32l/view_render.o
 .init_array    0x0800a494        0x4 build_arm_cortex_m3_base_application_stm32l/Dhcp.o
 .init_array    0x0800a498        0x4 build_arm_cortex_m3_base_application_stm32l/Dns.o
 .init_array    0x0800a49c        0x4 build_arm_cortex_m3_base_application_stm32l/EthernetClient.o
 .init_array    0x0800a4a0        0x4 build_arm_cortex_m3_base_application_stm32l/Ethernet.o
 .init_array    0x0800a4a4        0x4 build_arm_cortex_m3_base_application_stm32l/EthernetServer.o
 .init_array    0x0800a4a8        0x4 build_arm_cortex_m3_base_application_stm32l/EthernetUdp.o
 .init_array    0x0800a4ac        0x4 build_arm_cortex_m3_base_application_stm32l/SPI.o
 .init_array    0x0800a4b0        0x4 build_arm_cortex_m3_base_application_stm32l/Wire.o
                0x0800a4b4                PROVIDE (__init_array_end, .)

.fini_array     0x0800a4b4        0x4
                [!provide]                PROVIDE (__fini_array_start, .)
 *(.fini_array*)
 .fini_array    0x0800a4b4        0x4 build_arm_cortex_m3_base_application_stm32l/view_render.o
 *(SORT(.fini_array.*))
                [!provide]                PROVIDE (__fini_array_end, .)

.end_flash      0x0800a4b8        0x0
                0x0800a4b8                _end_flash = .

.start_ram      0x20000000        0x0
                0x20000000                _start_ram = .

.data           0x20000000      0xbfc load address 0x0800a4b8
                0x20000000                _data = .
                0x0800a4b8                _ldata = LOADADDR (.data)
 *(vtable)
 *(.data)
 *(.data*)
 .data.PLLMulTable
                0x20000000        0x9 build_arm_cortex_m3_base_application_stm32l/stm32l1xx_rcc.o
 .data.APBAHBPrescTable
                0x20000009       0x10 build_arm_cortex_m3_base_application_stm32l/stm32l1xx_rcc.o
 .data.Virtual_Com_Port_StringSerial
                0x20000019       0x1a build_arm_cortex_m3_base_application_stm32l/usb_desc.o
                0x20000019                Virtual_Com_Port_StringSerial
 *fill*         0x20000033        0x1 
 .data.pEpInt_IN
                0x20000034       0x1c build_arm_cortex_m3_base_application_stm32l/usb_istr.o
                0x20000034                pEpInt_IN
 .data.pEpInt_OUT
                0x20000050       0x1c build_arm_cortex_m3_base_application_stm32l/usb_istr.o
                0x20000050                pEpInt_OUT
 .data.Config_Descriptor
                0x2000006c        0x8 build_arm_cortex_m3_base_application_stm32l/usb_prop.o
                0x2000006c                Config_Descriptor
 .data.Device_Property
                0x20000074       0x30 build_arm_cortex_m3_base_application_stm32l/usb_prop.o
                0x20000074                Device_Property
 .data.Device_Descriptor
                0x200000a4        0x8 build_arm_cortex_m3_base_application_stm32l/usb_prop.o
                0x200000a4                Device_Descriptor
 .data.String_Descriptor
                0x200000ac       0x20 build_arm_cortex_m3_base_application_stm32l/usb_prop.o
                0x200000ac                String_Descriptor
 .data.linecoding
                0x200000cc        0x8 build_arm_cortex_m3_base_application_stm32l/usb_prop.o
                0x200000cc                linecoding
 .data.Device_Table
                0x200000d4        0x2 build_arm_cortex_m3_base_application_stm32l/usb_prop.o
                0x200000d4                Device_Table
 .data.fSuspendEnabled
                0x200000d6        0x1 build_arm_cortex_m3_base_application_stm32l/usb_pwr.o
                0x200000d6                fSuspendEnabled
 .data.PLLMulTable
                0x200000d7        0x9 build_arm_cortex_m3_base_application_stm32l/system_stm32l1xx.o
                0x200000d7                PLLMulTable
 .data.AHBPrescTable
                0x200000e0       0x10 build_arm_cortex_m3_base_application_stm32l/system_stm32l1xx.o
                0x200000e0                AHBPrescTable
 .data.SystemCoreClock
                0x200000f0        0x4 build_arm_cortex_m3_base_application_stm32l/system_stm32l1xx.o
                0x200000f0                SystemCoreClock
 .data.app_version
                0x200000f4        0x4 build_arm_cortex_m3_base_application_stm32l/app.o
                0x200000f4                app_version
 .data.lgn_cmd_table
                0x200000f8       0xcc build_arm_cortex_m3_base_application_stm32l/shell.o
                0x200000f8                lgn_cmd_table
 .data.app_task_table
                0x200001c4       0x80 build_arm_cortex_m3_base_application_stm32l/task_list.o
                0x200001c4                app_task_table
 .data._ZL12mac_src_addr
                0x20000244        0x5 build_arm_cortex_m3_base_application_stm32l/nrf_data.o
 .data._ZL12mac_des_addr
                0x20000249        0x5 build_arm_cortex_m3_base_application_stm32l/nrf_data.o
 *fill*         0x2000024e        0x2 
 .data.__global_locale
                0x20000250      0x16c /home/chuong/workspace/tools/gcc-arm-none-eabi-5_4-2016q3/arm-none-eabi/lib/armv7-m/libc.a(lib_a-locale.o)
                0x20000250                __global_locale
 .data.__malloc_av_
                0x200003bc      0x408 /home/chuong/workspace/tools/gcc-arm-none-eabi-5_4-2016q3/arm-none-eabi/lib/armv7-m/libc.a(lib_a-mallocr.o)
                0x200003bc                __malloc_av_
 .data.__malloc_trim_threshold
                0x200007c4        0x4 /home/chuong/workspace/tools/gcc-arm-none-eabi-5_4-2016q3/arm-none-eabi/lib/armv7-m/libc.a(lib_a-mallocr.o)
                0x200007c4                __malloc_trim_threshold
 .data.__malloc_sbrk_base
                0x200007c8        0x4 /home/chuong/workspace/tools/gcc-arm-none-eabi-5_4-2016q3/arm-none-eabi/lib/armv7-m/libc.a(lib_a-mallocr.o)
                0x200007c8                __malloc_sbrk_base
 *fill*         0x200007cc        0x4 
 .data.impure_data
                0x200007d0      0x428 /home/chuong/workspace/tools/gcc-arm-none-eabi-5_4-2016q3/arm-none-eabi/lib/armv7-m/libc.a(lib_a-impure.o)
 .data._impure_ptr
                0x20000bf8        0x4 /home/chuong/workspace/tools/gcc-arm-none-eabi-5_4-2016q3/arm-none-eabi/lib/armv7-m/libc.a(lib_a-impure.o)
                0x20000bf8                _impure_ptr
 *(.ram_func)
 *(.ram_func*)
                0x20000bfc                _edata = .

.igot.plt       0x20000bfc        0x0 load address 0x0800b0b4
 .igot.plt      0x20000bfc        0x0 build_arm_cortex_m3_base_application_stm32l/message.o

non_clear_ram   0x20000bfc        0x4 load address 0x0800b0b4
                [!provide]                PROVIDE (__start_non_clear_ram, .)
 non_clear_ram  0x20000bfc        0x4 build_arm_cortex_m3_base_application_stm32l/app_non_clear_ram.o
                0x20000bfc                sys_soft_reboot_counter
                [!provide]                PROVIDE (__stop_non_clear_ram, .)

.bss            0x20000c00     0x207c load address 0x0800b0b8
                0x20000c00                _bss = .
 *(.bss)
 *(.bss*)
 .bss.msg_common_pool
                0x20000c00      0x300 build_arm_cortex_m3_base_application_stm32l/message.o
 .bss.free_list_common_msg_pool
                0x20000f00        0x4 build_arm_cortex_m3_base_application_stm32l/message.o
 .bss.data_msg_dynamic_pool
                0x20000f04      0x400 build_arm_cortex_m3_base_application_stm32l/message.o
 .bss.msg_dynamic_pool
                0x20001304      0x120 build_arm_cortex_m3_base_application_stm32l/message.o
 .bss.head_data_msg_dynamic_pool
                0x20001424        0x4 build_arm_cortex_m3_base_application_stm32l/message.o
 .bss.tail_data_msg_dynamic_pool
                0x20001428        0x4 build_arm_cortex_m3_base_application_stm32l/message.o
 .bss.ak_heap.4943
                0x2000142c        0x4 build_arm_cortex_m3_base_application_stm32l/message.o
 .bss.free_list_pure_msg_pool
                0x20001430        0x4 build_arm_cortex_m3_base_application_stm32l/message.o
 .bss.msg_pure_pool
                0x20001434      0x380 build_arm_cortex_m3_base_application_stm32l/message.o
 .bss.free_list_dynamic_msg_pool
                0x200017b4        0x4 build_arm_cortex_m3_base_application_stm32l/message.o
 .bss.task_ready
                0x200017b8        0x1 build_arm_cortex_m3_base_application_stm32l/task.o
 *fill*         0x200017b9        0x3 
 .bss.current_task_info
                0x200017bc        0x8 build_arm_cortex_m3_base_application_stm32l/task.o
 .bss.current_task_id
                0x200017c4        0x1 build_arm_cortex_m3_base_application_stm32l/task.o
 .bss.task_table_size
                0x200017c5        0x1 build_arm_cortex_m3_base_application_stm32l/task.o
 .bss.task_current
                0x200017c6        0x1 build_arm_cortex_m3_base_application_stm32l/task.o
 *fill*         0x200017c7        0x1 
 .bss.current_active_object
                0x200017c8       0x1c build_arm_cortex_m3_base_application_stm32l/task.o
 .bss.task_table
                0x200017e4        0x4 build_arm_cortex_m3_base_application_stm32l/task.o
 .bss.task_pri_queue
                0x200017e8       0x60 build_arm_cortex_m3_base_application_stm32l/task.o
 .bss.timer_pool
                0x20001848      0x100 build_arm_cortex_m3_base_application_stm32l/timer.o
 .bss.timer_list_head
                0x20001948        0x4 build_arm_cortex_m3_base_application_stm32l/timer.o
 .bss.free_list_timer_pool
                0x2000194c        0x4 build_arm_cortex_m3_base_application_stm32l/timer.o
 .bss.dymc_print_type
                0x20001950        0x1 build_arm_cortex_m3_base_application_stm32l/xprintf.o
 .bss.dymc_print_buf
                0x20001951      0x100 build_arm_cortex_m3_base_application_stm32l/xprintf.o
 *fill*         0x20001a51        0x3 
 .bss.fatal_log
                0x20001a54       0x4c build_arm_cortex_m3_base_application_stm32l/sys_dbg.o
 .bss.sys_boot_obj
                0x20001aa0       0x58 build_arm_cortex_m3_base_application_stm32l/sys_boot.o
 .bss.Data_Mul_MaxPacketSize
                0x20001af8        0x1 build_arm_cortex_m3_base_application_stm32l/usb_core.o
                0x20001af8                Data_Mul_MaxPacketSize
 *fill*         0x20001af9        0x3 
 .bss.DevRemoteWakeup
                0x20001afc        0x4 build_arm_cortex_m3_base_application_stm32l/usb_core.o
                0x20001afc                DevRemoteWakeup
 .bss.wCNTR     0x20001b00        0x4 build_arm_cortex_m3_base_application_stm32l/usb_istr.o
                0x20001b00                wCNTR
 .bss.bIntPackSOF
                0x20001b04        0x1 build_arm_cortex_m3_base_application_stm32l/usb_istr.o
                0x20001b04                bIntPackSOF
 *fill*         0x20001b05        0x3 
 .bss.esof_counter
                0x20001b08        0x4 build_arm_cortex_m3_base_application_stm32l/usb_istr.o
                0x20001b08                esof_counter
 .bss.Request   0x20001b0c        0x1 build_arm_cortex_m3_base_application_stm32l/usb_prop.o
                0x20001b0c                Request
 *fill*         0x20001b0d        0x3 
 .bss.bDeviceState
                0x20001b10        0x4 build_arm_cortex_m3_base_application_stm32l/usb_pwr.o
                0x20001b10                bDeviceState
 .bss.remotewakeupon
                0x20001b14        0x4 build_arm_cortex_m3_base_application_stm32l/usb_pwr.o
                0x20001b14                remotewakeupon
 .bss.nest_entry_critical_counter
                0x20001b18        0x4 build_arm_cortex_m3_base_application_stm32l/stm32l.o
 .bss.div_counter
                0x20001b1c        0x4 build_arm_cortex_m3_base_application_stm32l/system.o
 .bss.millis_current
                0x20001b20        0x4 build_arm_cortex_m3_base_application_stm32l/system.o
 .bss.sys_ctrl_soft_time_out
                0x20001b24        0x4 build_arm_cortex_m3_base_application_stm32l/sys_cfg.o
 .bss.sys_ctrl_soft_counter
                0x20001b28        0x4 build_arm_cortex_m3_base_application_stm32l/sys_cfg.o
 .bss.delay_coeficient
                0x20001b2c        0x4 build_arm_cortex_m3_base_application_stm32l/sys_cfg.o
 .bss.btn_up    0x20001b30       0x18 build_arm_cortex_m3_base_application_stm32l/app_bsp.o
                0x20001b30                btn_up
 .bss.btn_mode  0x20001b48       0x18 build_arm_cortex_m3_base_application_stm32l/app_bsp.o
                0x20001b48                btn_mode
 .bss.btn_down  0x20001b60       0x18 build_arm_cortex_m3_base_application_stm32l/app_bsp.o
                0x20001b60                btn_down
 .bss._ZL8str_list
                0x20001b78       0xc8 build_arm_cortex_m3_base_application_stm32l/shell.o
 .bss._ZL10cmd_buffer
                0x20001c40      0x1f4 build_arm_cortex_m3_base_application_stm32l/shell.o
 .bss._ZL12str_list_len
                0x20001e34        0x1 build_arm_cortex_m3_base_application_stm32l/shell.o
 .bss.shell     0x20001e35       0x21 build_arm_cortex_m3_base_application_stm32l/task_shell.o
                0x20001e35                shell
 *fill*         0x20001e56        0x2 
 .bss.led_life  0x20001e58       0x1c build_arm_cortex_m3_base_application_stm32l/task_life.o
                0x20001e58                led_life
 .bss._ZL21host_firmware_if_type
                0x20001e74        0x1 build_arm_cortex_m3_base_application_stm32l/task_fw.o
 *fill*         0x20001e75        0x3 
 .bss._ZL15bin_file_cursor
                0x20001e78        0x4 build_arm_cortex_m3_base_application_stm32l/task_fw.o
 .bss._ZL17flash_read_buffer
                0x20001e7c      0x100 build_arm_cortex_m3_base_application_stm32l/task_fw.o
 .bss._ZL21host_firmware_task_id
                0x20001f7c        0x1 build_arm_cortex_m3_base_application_stm32l/task_fw.o
 *fill*         0x20001f7d        0x3 
 .bss._ZL20firmware_header_file
                0x20001f80        0xc build_arm_cortex_m3_base_application_stm32l/task_fw.o
 .bss.bar_top_1
                0x20001f8c       0x24 build_arm_cortex_m3_base_application_stm32l/task_game_oled.o
                0x20001f8c                bar_top_1
 .bss.bar_top_2
                0x20001fb0       0x24 build_arm_cortex_m3_base_application_stm32l/task_game_oled.o
                0x20001fb0                bar_top_2
 .bss.line1     0x20001fd4       0x24 build_arm_cortex_m3_base_application_stm32l/task_game_oled.o
                0x20001fd4                line1
 .bss.line2     0x20001ff8       0x24 build_arm_cortex_m3_base_application_stm32l/task_game_oled.o
                0x20001ff8                line2
 .bss.show_demo
                0x2000201c       0x24 build_arm_cortex_m3_base_application_stm32l/task_game_oled.o
                0x2000201c                show_demo
 .bss.player1   0x20002040       0x24 build_arm_cortex_m3_base_application_stm32l/task_game_oled.o
                0x20002040                player1
 .bss.bar_bottom_1
                0x20002064       0x24 build_arm_cortex_m3_base_application_stm32l/task_game_oled.o
                0x20002064                bar_bottom_1
 .bss.bar_bottom_2
                0x20002088       0x24 build_arm_cortex_m3_base_application_stm32l/task_game_oled.o
                0x20002088                bar_bottom_2
 .bss.if_uart_frame
                0x200020ac      0x108 build_arm_cortex_m3_base_application_stm32l/task_uart_if.o
                0x200020ac                if_uart_frame
 .bss._ZL9tx_buffer
                0x200021b4       0xfe build_arm_cortex_m3_base_application_stm32l/task_uart_if.o
 .bss._ZL19uart_rx_frame_state
                0x200022b2        0x1 build_arm_cortex_m3_base_application_stm32l/task_uart_if.o
 *fill*         0x200022b3        0x1 
 .bss.view_render
                0x200022b4       0x28 build_arm_cortex_m3_base_application_stm32l/view_render.o
                0x200022b4                view_render
 .bss._ZL12frame_buffer
                0x200022dc      0x400 build_arm_cortex_m3_base_application_stm32l/Adafruit_ssd1306syp.o
 .bss._ZL11INADDR_NONE
                0x200026dc        0x8 build_arm_cortex_m3_base_application_stm32l/Dhcp.o
 .bss._ZL11INADDR_NONE
                0x200026e4        0x8 build_arm_cortex_m3_base_application_stm32l/Dns.o
 .bss._ZL11INADDR_NONE
                0x200026ec        0x8 build_arm_cortex_m3_base_application_stm32l/EthernetClient.o
 .bss._ZL11INADDR_NONE
                0x200026f4        0x8 build_arm_cortex_m3_base_application_stm32l/Ethernet.o
 .bss.Ethernet  0x200026fc        0xc build_arm_cortex_m3_base_application_stm32l/Ethernet.o
                0x200026fc                Ethernet
 .bss._ZL11INADDR_NONE
                0x20002708        0x8 build_arm_cortex_m3_base_application_stm32l/EthernetServer.o
 .bss._ZL11INADDR_NONE
                0x20002710        0x8 build_arm_cortex_m3_base_application_stm32l/EthernetUdp.o
 .bss._ZL21free_nrf_nwk_pdu_list
                0x20002718        0x4 build_arm_cortex_m3_base_application_stm32l/nrf_data.o
 .bss._ZL16nrf_nwk_msg_pool
                0x2000271c      0x330 build_arm_cortex_m3_base_application_stm32l/nrf_data.o
 .bss._ZL22receiving_mac_sequence
                0x20002a4c        0x1 build_arm_cortex_m3_base_application_stm32l/nrf_mac.o
 *fill*         0x20002a4d        0x3 
 .bss._ZL15nwk_pdu_id_fifo
                0x20002a50       0x14 build_arm_cortex_m3_base_application_stm32l/nrf_mac.o
 .bss._ZL14mac_send_state
                0x20002a64        0x1 build_arm_cortex_m3_base_application_stm32l/nrf_mac.o
 .bss._ZL21sending_nrf_mac_frame
                0x20002a65       0x20 build_arm_cortex_m3_base_application_stm32l/nrf_mac.o
 .bss._ZL35sending_nrf_nwk_frame_retry_counter
                0x20002a85        0x1 build_arm_cortex_m3_base_application_stm32l/nrf_mac.o
 *fill*         0x20002a86        0x2 
 .bss._ZL23receiving_nrf_nwk_frame
                0x20002a88        0x4 build_arm_cortex_m3_base_application_stm32l/nrf_mac.o
 .bss._ZL20sending_mac_sequence
                0x20002a8c        0x1 build_arm_cortex_m3_base_application_stm32l/nrf_mac.o
 .bss._ZL31sending_mac_frame_retry_counter
                0x20002a8d        0x1 build_arm_cortex_m3_base_application_stm32l/nrf_mac.o
 .bss._ZL13mac_rev_state
                0x20002a8e        0x1 build_arm_cortex_m3_base_application_stm32l/nrf_mac.o
 *fill*         0x20002a8f        0x1 
 .bss._ZL21sending_nrf_nwk_frame
                0x20002a90        0x4 build_arm_cortex_m3_base_application_stm32l/nrf_mac.o
 .bss._ZL14nwk_pdu_id_buf
                0x20002a94       0x24 build_arm_cortex_m3_base_application_stm32l/nrf_mac.o
 .bss.nrf_nwk_fsm
                0x20002ab8        0x4 build_arm_cortex_m3_base_application_stm32l/nrf_nwk.o
                0x20002ab8                nrf_nwk_fsm
 .bss._ZL18pload_frame_buffer
                0x20002abc       0x20 build_arm_cortex_m3_base_application_stm32l/nrf_phy.o
 .bss._ZL9phy_state
                0x20002adc        0x1 build_arm_cortex_m3_base_application_stm32l/nrf_phy.o
 *fill*         0x20002add        0x3 
 .bss.SPI       0x20002ae0       0x1c build_arm_cortex_m3_base_application_stm32l/SPI.o
                0x20002ae0                SPI
 .bss._ZN7TwoWire8txBufferE
                0x20002afc       0x20 build_arm_cortex_m3_base_application_stm32l/Wire.o
                0x20002afc                TwoWire::txBuffer
 .bss._ZN7TwoWire8rxBufferE
                0x20002b1c       0x20 build_arm_cortex_m3_base_application_stm32l/Wire.o
                0x20002b1c                TwoWire::rxBuffer
 .bss.Wire      0x20002b3c       0x10 build_arm_cortex_m3_base_application_stm32l/Wire.o
                0x20002b3c                Wire
 .bss._ZN7TwoWire13rxBufferIndexE
                0x20002b4c        0x1 build_arm_cortex_m3_base_application_stm32l/Wire.o
                0x20002b4c                TwoWire::rxBufferIndex
 .bss._ZN7TwoWire14rxBufferLengthE
                0x20002b4d        0x1 build_arm_cortex_m3_base_application_stm32l/Wire.o
                0x20002b4d                TwoWire::rxBufferLength
 .bss._ZN7TwoWire12transmittingE
                0x20002b4e        0x1 build_arm_cortex_m3_base_application_stm32l/Wire.o
                0x20002b4e                TwoWire::transmitting
 .bss._ZN7TwoWire14txBufferLengthE
                0x20002b4f        0x1 build_arm_cortex_m3_base_application_stm32l/Wire.o
                0x20002b4f                TwoWire::txBufferLength
 .bss._ZN7TwoWire13txBufferIndexE
                0x20002b50        0x1 build_arm_cortex_m3_base_application_stm32l/Wire.o
                0x20002b50                TwoWire::txBufferIndex
 *fill*         0x20002b51        0x3 
 .bss._ZZ5_sbrkE4heap
                0x20002b54        0x4 build_arm_cortex_m3_base_application_stm32l/mini_cpp.o
 .bss.__malloc_max_total_mem
                0x20002b58        0x4 /home/chuong/workspace/tools/gcc-arm-none-eabi-5_4-2016q3/arm-none-eabi/lib/armv7-m/libc.a(lib_a-mallocr.o)
                0x20002b58                __malloc_max_total_mem
 .bss.__malloc_max_sbrked_mem
                0x20002b5c        0x4 /home/chuong/workspace/tools/gcc-arm-none-eabi-5_4-2016q3/arm-none-eabi/lib/armv7-m/libc.a(lib_a-mallocr.o)
                0x20002b5c                __malloc_max_sbrked_mem
 .bss.__malloc_top_pad
                0x20002b60        0x4 /home/chuong/workspace/tools/gcc-arm-none-eabi-5_4-2016q3/arm-none-eabi/lib/armv7-m/libc.a(lib_a-mallocr.o)
                0x20002b60                __malloc_top_pad
 .bss.__malloc_current_mallinfo
                0x20002b64       0x28 /home/chuong/workspace/tools/gcc-arm-none-eabi-5_4-2016q3/arm-none-eabi/lib/armv7-m/libc.a(lib_a-mallocr.o)
                0x20002b64                __malloc_current_mallinfo
 *(COMMON)
 COMMON         0x20002b8c        0x8 build_arm_cortex_m3_base_application_stm32l/timer.o
                0x20002b8c                ak_timer_payload_irq
 COMMON         0x20002b94        0x4 build_arm_cortex_m3_base_application_stm32l/xprintf.o
                0x20002b94                xfunc_out
 COMMON         0x20002b98        0x2 build_arm_cortex_m3_base_application_stm32l/usb_core.o
                0x20002b98                StatusInfo
 *fill*         0x20002b9a        0x2 
 COMMON         0x20002b9c       0x32 build_arm_cortex_m3_base_application_stm32l/usb_init.o
                0x20002b9c                SaveState
                0x20002ba0                pProperty
                0x20002ba4                EPindex
                0x20002ba8                Device_Info
                0x20002bc4                pUser_Standard_Requests
                0x20002bc8                pInformation
                0x20002bcc                wInterrupt_Mask
 COMMON         0x20002bce        0x4 build_arm_cortex_m3_base_application_stm32l/usb_int.o
                0x20002bce                SaveRState
                0x20002bd0                SaveTState
 *fill*         0x20002bd2        0x2 
 COMMON         0x20002bd4       0x4c build_arm_cortex_m3_base_application_stm32l/hw_config.o
                0x20002bd4                HSEStartUpStatus
                0x20002bd5                usb_recv_buffer
                0x20002c18                EXTI_InitStructure
 COMMON         0x20002c20        0x8 build_arm_cortex_m3_base_application_stm32l/usb_endp.o
                0x20002c20                usb_packet_sent_flag
                0x20002c24                usb_recv_len
 COMMON         0x20002c28        0x2 build_arm_cortex_m3_base_application_stm32l/usb_istr.o
                0x20002c28                wIstr
 *fill*         0x20002c2a        0x2 
 COMMON         0x20002c2c       0x24 build_arm_cortex_m3_base_application_stm32l/usb_pwr.o
                0x20002c2c                ResumeS
                0x20002c30                EP
 COMMON         0x20002c50       0x28 build_arm_cortex_m3_base_application_stm32l/system.o
                0x20002c50                system_info
 COMMON         0x20002c78        0x4 /home/chuong/workspace/tools/gcc-arm-none-eabi-5_4-2016q3/arm-none-eabi/lib/armv7-m/libc.a(lib_a-reent.o)
                0x20002c78                errno
                0x20002c7c                _ebss = .

.heap           0x20002c7c      0x800 load address 0x0800d134
                0x20002c7c                __heap_start__ = .
                0x2000347c                . = (. + HEAP_SIZE)
 *fill*         0x20002c7c      0x800 
                0x2000347c                . = ALIGN (0x4)
                0x2000347c                __heap_end__ = .

.non_clear_ram  0x2000347c        0x0
                0x2000347c                _non_clear_ram = .
 *(.non_clear_ram)
 *(.non_clear_ram*)
                0x2000347c                _enon_clear_ram = .

.end_ram        0x2000347c        0x0
                0x2000347c                _end_ram = .
                0x20004000                _estack = (ORIGIN (SRAM) + LENGTH (SRAM))

/DISCARD/
 libc.a(*)
 libm.a(*)
 libg.a(*)
 libgcc.a(*)
LOAD /home/chuong/workspace/tools/gcc-arm-none-eabi-5_4-2016q3/arm-none-eabi/lib/armv7-m/libc.a
LOAD /home/chuong/workspace/tools/gcc-arm-none-eabi-5_4-2016q3/arm-none-eabi/lib/armv7-m/libm.a
LOAD /home/chuong/workspace/tools/gcc-arm-none-eabi-5_4-2016q3/lib/gcc/arm-none-eabi/5.4.1/armv7-m/libgcc.a
LOAD /home/chuong/workspace/tools/gcc-arm-none-eabi-5_4-2016q3/arm-none-eabi/lib/armv7-m/libg.a
LOAD build_arm_cortex_m3_base_application_stm32l/message.o
LOAD build_arm_cortex_m3_base_application_stm32l/fsm.o
LOAD build_arm_cortex_m3_base_application_stm32l/tsm.o
LOAD build_arm_cortex_m3_base_application_stm32l/task.o
LOAD build_arm_cortex_m3_base_application_stm32l/timer.o
LOAD build_arm_cortex_m3_base_application_stm32l/utils.o
LOAD build_arm_cortex_m3_base_application_stm32l/xprintf.o
LOAD build_arm_cortex_m3_base_application_stm32l/cmd_line.o
LOAD build_arm_cortex_m3_base_application_stm32l/log_queue.o
LOAD build_arm_cortex_m3_base_application_stm32l/fifo.o
LOAD build_arm_cortex_m3_base_application_stm32l/ring_buffer.o
LOAD build_arm_cortex_m3_base_application_stm32l/button.o
LOAD build_arm_cortex_m3_base_application_stm32l/flash.o
LOAD build_arm_cortex_m3_base_application_stm32l/fuzzy_logic.o
LOAD build_arm_cortex_m3_base_application_stm32l/ir.o
LOAD build_arm_cortex_m3_base_application_stm32l/kalman.o
LOAD build_arm_cortex_m3_base_application_stm32l/led.o
LOAD build_arm_cortex_m3_base_application_stm32l/rtc.o
LOAD build_arm_cortex_m3_base_application_stm32l/hs1101.o
LOAD build_arm_cortex_m3_base_application_stm32l/sys_dbg.o
LOAD build_arm_cortex_m3_base_application_stm32l/sys_boot.o
LOAD build_arm_cortex_m3_base_application_stm32l/sys_svc.o
LOAD build_arm_cortex_m3_base_application_stm32l/hal_nrf_hw.o
LOAD build_arm_cortex_m3_base_application_stm32l/hal_nrf_l01.o
LOAD build_arm_cortex_m3_base_application_stm32l/stm32l1xx_gpio.o
LOAD build_arm_cortex_m3_base_application_stm32l/stm32l1xx_rcc.o
LOAD build_arm_cortex_m3_base_application_stm32l/stm32l1xx_usart.o
LOAD build_arm_cortex_m3_base_application_stm32l/stm32l1xx_spi.o
LOAD build_arm_cortex_m3_base_application_stm32l/misc.o
LOAD build_arm_cortex_m3_base_application_stm32l/stm32l1xx_exti.o
LOAD build_arm_cortex_m3_base_application_stm32l/stm32l1xx_syscfg.o
LOAD build_arm_cortex_m3_base_application_stm32l/stm32l1xx_tim.o
LOAD build_arm_cortex_m3_base_application_stm32l/stm32l1xx_adc.o
LOAD build_arm_cortex_m3_base_application_stm32l/stm32l1xx_rtc.o
LOAD build_arm_cortex_m3_base_application_stm32l/stm32l1xx_pwr.o
LOAD build_arm_cortex_m3_base_application_stm32l/stm32l1xx_flash.o
LOAD build_arm_cortex_m3_base_application_stm32l/stm32l1xx_iwdg.o
LOAD build_arm_cortex_m3_base_application_stm32l/stm32l1xx_comp.o
LOAD build_arm_cortex_m3_base_application_stm32l/stm32l1xx_dac.o
LOAD build_arm_cortex_m3_base_application_stm32l/stm32l1xx_i2c.o
LOAD build_arm_cortex_m3_base_application_stm32l/dtostrf.o
LOAD build_arm_cortex_m3_base_application_stm32l/hooks.o
LOAD build_arm_cortex_m3_base_application_stm32l/usb_core.o
LOAD build_arm_cortex_m3_base_application_stm32l/usb_init.o
LOAD build_arm_cortex_m3_base_application_stm32l/usb_int.o
LOAD build_arm_cortex_m3_base_application_stm32l/usb_mem.o
LOAD build_arm_cortex_m3_base_application_stm32l/usb_regs.o
LOAD build_arm_cortex_m3_base_application_stm32l/usb_sil.o
LOAD build_arm_cortex_m3_base_application_stm32l/hw_config.o
LOAD build_arm_cortex_m3_base_application_stm32l/usb_desc.o
LOAD build_arm_cortex_m3_base_application_stm32l/usb_endp.o
LOAD build_arm_cortex_m3_base_application_stm32l/usb_istr.o
LOAD build_arm_cortex_m3_base_application_stm32l/usb_prop.o
LOAD build_arm_cortex_m3_base_application_stm32l/usb_pwr.o
LOAD build_arm_cortex_m3_base_application_stm32l/stm32l.o
LOAD build_arm_cortex_m3_base_application_stm32l/system.o
LOAD build_arm_cortex_m3_base_application_stm32l/sys_cfg.o
LOAD build_arm_cortex_m3_base_application_stm32l/io_cfg.o
LOAD build_arm_cortex_m3_base_application_stm32l/system_stm32l1xx.o
LOAD build_arm_cortex_m3_base_application_stm32l/app.o
LOAD build_arm_cortex_m3_base_application_stm32l/app_data.o
LOAD build_arm_cortex_m3_base_application_stm32l/app_non_clear_ram.o
LOAD build_arm_cortex_m3_base_application_stm32l/app_bsp.o
LOAD build_arm_cortex_m3_base_application_stm32l/rf_remote_ctrl.o
LOAD build_arm_cortex_m3_base_application_stm32l/shell.o
LOAD build_arm_cortex_m3_base_application_stm32l/task_shell.o
LOAD build_arm_cortex_m3_base_application_stm32l/task_life.o
LOAD build_arm_cortex_m3_base_application_stm32l/task_fw.o
LOAD build_arm_cortex_m3_base_application_stm32l/task_list.o
LOAD build_arm_cortex_m3_base_application_stm32l/task_display.o
LOAD build_arm_cortex_m3_base_application_stm32l/task_game_oled.o
LOAD build_arm_cortex_m3_base_application_stm32l/task_if.o
LOAD build_arm_cortex_m3_base_application_stm32l/task_rf24_if.o
LOAD build_arm_cortex_m3_base_application_stm32l/task_uart_if.o
LOAD build_arm_cortex_m3_base_application_stm32l/task_dbg.o
LOAD build_arm_cortex_m3_base_application_stm32l/view_item.o
LOAD build_arm_cortex_m3_base_application_stm32l/view_render.o
LOAD build_arm_cortex_m3_base_application_stm32l/screen_manager.o
LOAD build_arm_cortex_m3_base_application_stm32l/Adafruit_GFX.o
LOAD build_arm_cortex_m3_base_application_stm32l/Adafruit_ssd1306syp.o
LOAD build_arm_cortex_m3_base_application_stm32l/glcdfont.o
LOAD build_arm_cortex_m3_base_application_stm32l/DS1302.o
LOAD build_arm_cortex_m3_base_application_stm32l/eeprom.o
LOAD build_arm_cortex_m3_base_application_stm32l/EmonLib.o
LOAD build_arm_cortex_m3_base_application_stm32l/exor.o
LOAD build_arm_cortex_m3_base_application_stm32l/I2Cdev.o
LOAD build_arm_cortex_m3_base_application_stm32l/L3G4200D.o
LOAD build_arm_cortex_m3_base_application_stm32l/LTC68032.o
LOAD build_arm_cortex_m3_base_application_stm32l/MPU6050.o
LOAD build_arm_cortex_m3_base_application_stm32l/SHT1x.o
LOAD build_arm_cortex_m3_base_application_stm32l/thermistor.o
LOAD build_arm_cortex_m3_base_application_stm32l/socket.o
LOAD build_arm_cortex_m3_base_application_stm32l/w5100.o
LOAD build_arm_cortex_m3_base_application_stm32l/Dhcp.o
LOAD build_arm_cortex_m3_base_application_stm32l/Dns.o
LOAD build_arm_cortex_m3_base_application_stm32l/EthernetClient.o
LOAD build_arm_cortex_m3_base_application_stm32l/Ethernet.o
LOAD build_arm_cortex_m3_base_application_stm32l/EthernetServer.o
LOAD build_arm_cortex_m3_base_application_stm32l/EthernetUdp.o
LOAD build_arm_cortex_m3_base_application_stm32l/nrf_data.o
LOAD build_arm_cortex_m3_base_application_stm32l/nrf_mac.o
LOAD build_arm_cortex_m3_base_application_stm32l/nrf_nwk.o
LOAD build_arm_cortex_m3_base_application_stm32l/nrf_phy.o
LOAD build_arm_cortex_m3_base_application_stm32l/link_hal.o
LOAD build_arm_cortex_m3_base_application_stm32l/link_mac.o
LOAD build_arm_cortex_m3_base_application_stm32l/link_phy.o
LOAD build_arm_cortex_m3_base_application_stm32l/wiring_digital.o
LOAD build_arm_cortex_m3_base_application_stm32l/wiring_shift.o
LOAD build_arm_cortex_m3_base_application_stm32l/Print.o
LOAD build_arm_cortex_m3_base_application_stm32l/Stream.o
LOAD build_arm_cortex_m3_base_application_stm32l/WString.o
LOAD build_arm_cortex_m3_base_application_stm32l/WMath.o
LOAD build_arm_cortex_m3_base_application_stm32l/itoa.o
LOAD build_arm_cortex_m3_base_application_stm32l/IPAddress.o
LOAD build_arm_cortex_m3_base_application_stm32l/SPI.o
LOAD build_arm_cortex_m3_base_application_stm32l/Wire.o
LOAD build_arm_cortex_m3_base_application_stm32l/twi.o
LOAD build_arm_cortex_m3_base_application_stm32l/mini_cpp.o
LOAD /home/chuong/workspace/tools/gcc-arm-none-eabi-5_4-2016q3/arm-none-eabi/lib/armv7-m/libc.a
LOAD /home/chuong/workspace/tools/gcc-arm-none-eabi-5_4-2016q3/arm-none-eabi/lib/armv7-m/libm.a
LOAD /home/chuong/workspace/tools/gcc-arm-none-eabi-5_4-2016q3/lib/gcc/arm-none-eabi/5.4.1/armv7-m/libgcc.a
LOAD /home/chuong/workspace/tools/gcc-arm-none-eabi-5_4-2016q3/arm-none-eabi/lib/armv7-m/libg.a
OUTPUT(build_arm_cortex_m3_base_application_stm32l/arm_cortex_m3_base_application.axf elf32-littlearm)

.debug_info     0x00000000    0x3a432
 .debug_info    0x00000000     0x1022 build_arm_cortex_m3_base_application_stm32l/message.o
 .debug_info    0x00001022      0x208 build_arm_cortex_m3_base_application_stm32l/fsm.o
 .debug_info    0x0000122a      0xaab build_arm_cortex_m3_base_application_stm32l/task.o
 .debug_info    0x00001cd5      0x788 build_arm_cortex_m3_base_application_stm32l/timer.o
 .debug_info    0x0000245d      0x54c build_arm_cortex_m3_base_application_stm32l/xprintf.o
 .debug_info    0x000029a9      0x1d9 build_arm_cortex_m3_base_application_stm32l/cmd_line.o
 .debug_info    0x00002b82      0x3de build_arm_cortex_m3_base_application_stm32l/fifo.o
 .debug_info    0x00002f60      0x282 build_arm_cortex_m3_base_application_stm32l/button.o
 .debug_info    0x000031e2      0x6b6 build_arm_cortex_m3_base_application_stm32l/flash.o
 .debug_info    0x00003898      0x2fe build_arm_cortex_m3_base_application_stm32l/led.o
 .debug_info    0x00003b96      0xe54 build_arm_cortex_m3_base_application_stm32l/sys_dbg.o
 .debug_info    0x000049ea      0x396 build_arm_cortex_m3_base_application_stm32l/sys_boot.o
 .debug_info    0x00004d80       0xbc build_arm_cortex_m3_base_application_stm32l/sys_svc.o
 .debug_info    0x00004e3c       0xf4 build_arm_cortex_m3_base_application_stm32l/hal_nrf_hw.o
 .debug_info    0x00004f30     0x12ed build_arm_cortex_m3_base_application_stm32l/hal_nrf_l01.o
 .debug_info    0x0000621d      0x72e build_arm_cortex_m3_base_application_stm32l/stm32l1xx_gpio.o
 .debug_info    0x0000694b      0xa5d build_arm_cortex_m3_base_application_stm32l/stm32l1xx_rcc.o
 .debug_info    0x000073a8      0xaa6 build_arm_cortex_m3_base_application_stm32l/stm32l1xx_usart.o
 .debug_info    0x00007e4e      0x99a build_arm_cortex_m3_base_application_stm32l/stm32l1xx_spi.o
 .debug_info    0x000087e8      0x55e build_arm_cortex_m3_base_application_stm32l/misc.o
 .debug_info    0x00008d46      0x303 build_arm_cortex_m3_base_application_stm32l/stm32l1xx_exti.o
 .debug_info    0x00009049      0x53f build_arm_cortex_m3_base_application_stm32l/stm32l1xx_syscfg.o
 .debug_info    0x00009588     0x1c4e build_arm_cortex_m3_base_application_stm32l/stm32l1xx_tim.o
 .debug_info    0x0000b1d6     0x135c build_arm_cortex_m3_base_application_stm32l/stm32l1xx_flash.o
 .debug_info    0x0000c532      0x211 build_arm_cortex_m3_base_application_stm32l/stm32l1xx_iwdg.o
 .debug_info    0x0000c743      0xafc build_arm_cortex_m3_base_application_stm32l/stm32l1xx_i2c.o
 .debug_info    0x0000d23f      0xe40 build_arm_cortex_m3_base_application_stm32l/usb_core.o
 .debug_info    0x0000e07f      0x45a build_arm_cortex_m3_base_application_stm32l/usb_init.o
 .debug_info    0x0000e4d9      0x206 build_arm_cortex_m3_base_application_stm32l/usb_int.o
 .debug_info    0x0000e6df      0x1e0 build_arm_cortex_m3_base_application_stm32l/usb_mem.o
 .debug_info    0x0000e8bf      0xb5b build_arm_cortex_m3_base_application_stm32l/usb_regs.o
 .debug_info    0x0000f41a      0x258 build_arm_cortex_m3_base_application_stm32l/usb_sil.o
 .debug_info    0x0000f672      0xa69 build_arm_cortex_m3_base_application_stm32l/hw_config.o
 .debug_info    0x000100db      0x18c build_arm_cortex_m3_base_application_stm32l/usb_desc.o
 .debug_info    0x00010267      0x1e7 build_arm_cortex_m3_base_application_stm32l/usb_endp.o
 .debug_info    0x0001044e      0x3b3 build_arm_cortex_m3_base_application_stm32l/usb_istr.o
 .debug_info    0x00010801      0xb2b build_arm_cortex_m3_base_application_stm32l/usb_prop.o
 .debug_info    0x0001132c      0x388 build_arm_cortex_m3_base_application_stm32l/usb_pwr.o
 .debug_info    0x000116b4      0x1c5 build_arm_cortex_m3_base_application_stm32l/stm32l.o
 .debug_info    0x00011879      0xc82 build_arm_cortex_m3_base_application_stm32l/system.o
 .debug_info    0x000124fb     0x17a7 build_arm_cortex_m3_base_application_stm32l/sys_cfg.o
 .debug_info    0x00013ca2     0x3566 build_arm_cortex_m3_base_application_stm32l/io_cfg.o
 .debug_info    0x00017208      0x596 build_arm_cortex_m3_base_application_stm32l/system_stm32l1xx.o
 .debug_info    0x0001779e      0xab4 build_arm_cortex_m3_base_application_stm32l/app.o
 .debug_info    0x00018252       0xa5 build_arm_cortex_m3_base_application_stm32l/app_non_clear_ram.o
 .debug_info    0x000182f7      0x33c build_arm_cortex_m3_base_application_stm32l/app_bsp.o
 .debug_info    0x00018633      0x10f build_arm_cortex_m3_base_application_stm32l/rf_remote_ctrl.o
 .debug_info    0x00018742     0x23d2 build_arm_cortex_m3_base_application_stm32l/shell.o
 .debug_info    0x0001ab14      0x54e build_arm_cortex_m3_base_application_stm32l/task_shell.o
 .debug_info    0x0001b062      0x2b3 build_arm_cortex_m3_base_application_stm32l/task_life.o
 .debug_info    0x0001b315      0xce9 build_arm_cortex_m3_base_application_stm32l/task_fw.o
 .debug_info    0x0001bffe      0x289 build_arm_cortex_m3_base_application_stm32l/task_list.o
 .debug_info    0x0001c287      0x43b build_arm_cortex_m3_base_application_stm32l/task_display.o
 .debug_info    0x0001c6c2     0x103d build_arm_cortex_m3_base_application_stm32l/task_game_oled.o
 .debug_info    0x0001d6ff      0x39a build_arm_cortex_m3_base_application_stm32l/task_if.o
 .debug_info    0x0001da99      0x20f build_arm_cortex_m3_base_application_stm32l/task_rf24_if.o
 .debug_info    0x0001dca8      0xb16 build_arm_cortex_m3_base_application_stm32l/task_uart_if.o
 .debug_info    0x0001e7be      0x203 build_arm_cortex_m3_base_application_stm32l/task_dbg.o
 .debug_info    0x0001e9c1      0x6ce build_arm_cortex_m3_base_application_stm32l/view_render.o
 .debug_info    0x0001f08f     0x2257 build_arm_cortex_m3_base_application_stm32l/Adafruit_GFX.o
 .debug_info    0x000212e6     0x10d6 build_arm_cortex_m3_base_application_stm32l/Adafruit_ssd1306syp.o
 .debug_info    0x000223bc      0x21f build_arm_cortex_m3_base_application_stm32l/eeprom.o
 .debug_info    0x000225db     0x14ce build_arm_cortex_m3_base_application_stm32l/Dhcp.o
 .debug_info    0x00023aa9      0xfd3 build_arm_cortex_m3_base_application_stm32l/Dns.o
 .debug_info    0x00024a7c     0x2e64 build_arm_cortex_m3_base_application_stm32l/EthernetClient.o
 .debug_info    0x000278e0     0x2a6f build_arm_cortex_m3_base_application_stm32l/Ethernet.o
 .debug_info    0x0002a34f     0x21a1 build_arm_cortex_m3_base_application_stm32l/EthernetServer.o
 .debug_info    0x0002c4f0     0x3d73 build_arm_cortex_m3_base_application_stm32l/EthernetUdp.o
 .debug_info    0x00030263      0x3fd build_arm_cortex_m3_base_application_stm32l/nrf_data.o
 .debug_info    0x00030660      0xc94 build_arm_cortex_m3_base_application_stm32l/nrf_mac.o
 .debug_info    0x000312f4      0x978 build_arm_cortex_m3_base_application_stm32l/nrf_nwk.o
 .debug_info    0x00031c6c      0xb30 build_arm_cortex_m3_base_application_stm32l/nrf_phy.o
 .debug_info    0x0003279c      0x1cc build_arm_cortex_m3_base_application_stm32l/link_mac.o
 .debug_info    0x00032968      0x203 build_arm_cortex_m3_base_application_stm32l/link_phy.o
 .debug_info    0x00032b6b      0x47b build_arm_cortex_m3_base_application_stm32l/wiring_digital.o
 .debug_info    0x00032fe6     0x1381 build_arm_cortex_m3_base_application_stm32l/Print.o
 .debug_info    0x00034367      0x29f build_arm_cortex_m3_base_application_stm32l/WMath.o
 .debug_info    0x00034606     0x1822 build_arm_cortex_m3_base_application_stm32l/IPAddress.o
 .debug_info    0x00035e28      0xed8 build_arm_cortex_m3_base_application_stm32l/SPI.o
 .debug_info    0x00036d00     0x25af build_arm_cortex_m3_base_application_stm32l/Wire.o
 .debug_info    0x000392af      0xb78 build_arm_cortex_m3_base_application_stm32l/twi.o
 .debug_info    0x00039e27      0x60b build_arm_cortex_m3_base_application_stm32l/mini_cpp.o

.debug_abbrev   0x00000000     0xad45
 .debug_abbrev  0x00000000      0x3c0 build_arm_cortex_m3_base_application_stm32l/message.o
 .debug_abbrev  0x000003c0       0xcb build_arm_cortex_m3_base_application_stm32l/fsm.o
 .debug_abbrev  0x0000048b      0x2a9 build_arm_cortex_m3_base_application_stm32l/task.o
 .debug_abbrev  0x00000734      0x2ed build_arm_cortex_m3_base_application_stm32l/timer.o
 .debug_abbrev  0x00000a21      0x1d5 build_arm_cortex_m3_base_application_stm32l/xprintf.o
 .debug_abbrev  0x00000bf6      0x112 build_arm_cortex_m3_base_application_stm32l/cmd_line.o
 .debug_abbrev  0x00000d08      0x165 build_arm_cortex_m3_base_application_stm32l/fifo.o
 .debug_abbrev  0x00000e6d      0x141 build_arm_cortex_m3_base_application_stm32l/button.o
 .debug_abbrev  0x00000fae      0x16c build_arm_cortex_m3_base_application_stm32l/flash.o
 .debug_abbrev  0x0000111a      0x117 build_arm_cortex_m3_base_application_stm32l/led.o
 .debug_abbrev  0x00001231      0x23f build_arm_cortex_m3_base_application_stm32l/sys_dbg.o
 .debug_abbrev  0x00001470      0x16a build_arm_cortex_m3_base_application_stm32l/sys_boot.o
 .debug_abbrev  0x000015da       0x65 build_arm_cortex_m3_base_application_stm32l/sys_svc.o
 .debug_abbrev  0x0000163f       0x99 build_arm_cortex_m3_base_application_stm32l/hal_nrf_hw.o
 .debug_abbrev  0x000016d8      0x1b2 build_arm_cortex_m3_base_application_stm32l/hal_nrf_l01.o
 .debug_abbrev  0x0000188a      0x1e5 build_arm_cortex_m3_base_application_stm32l/stm32l1xx_gpio.o
 .debug_abbrev  0x00001a6f      0x20d build_arm_cortex_m3_base_application_stm32l/stm32l1xx_rcc.o
 .debug_abbrev  0x00001c7c      0x1d9 build_arm_cortex_m3_base_application_stm32l/stm32l1xx_usart.o
 .debug_abbrev  0x00001e55      0x1e8 build_arm_cortex_m3_base_application_stm32l/stm32l1xx_spi.o
 .debug_abbrev  0x0000203d      0x158 build_arm_cortex_m3_base_application_stm32l/misc.o
 .debug_abbrev  0x00002195      0x1b0 build_arm_cortex_m3_base_application_stm32l/stm32l1xx_exti.o
 .debug_abbrev  0x00002345      0x1b8 build_arm_cortex_m3_base_application_stm32l/stm32l1xx_syscfg.o
 .debug_abbrev  0x000024fd      0x2d2 build_arm_cortex_m3_base_application_stm32l/stm32l1xx_tim.o
 .debug_abbrev  0x000027cf      0x299 build_arm_cortex_m3_base_application_stm32l/stm32l1xx_flash.o
 .debug_abbrev  0x00002a68      0x114 build_arm_cortex_m3_base_application_stm32l/stm32l1xx_iwdg.o
 .debug_abbrev  0x00002b7c      0x232 build_arm_cortex_m3_base_application_stm32l/stm32l1xx_i2c.o
 .debug_abbrev  0x00002dae      0x3dd build_arm_cortex_m3_base_application_stm32l/usb_core.o
 .debug_abbrev  0x0000318b      0x10e build_arm_cortex_m3_base_application_stm32l/usb_init.o
 .debug_abbrev  0x00003299       0xf2 build_arm_cortex_m3_base_application_stm32l/usb_int.o
 .debug_abbrev  0x0000338b       0xae build_arm_cortex_m3_base_application_stm32l/usb_mem.o
 .debug_abbrev  0x00003439      0x1f3 build_arm_cortex_m3_base_application_stm32l/usb_regs.o
 .debug_abbrev  0x0000362c      0x103 build_arm_cortex_m3_base_application_stm32l/usb_sil.o
 .debug_abbrev  0x0000372f      0x2ab build_arm_cortex_m3_base_application_stm32l/hw_config.o
 .debug_abbrev  0x000039da       0x75 build_arm_cortex_m3_base_application_stm32l/usb_desc.o
 .debug_abbrev  0x00003a4f      0x123 build_arm_cortex_m3_base_application_stm32l/usb_endp.o
 .debug_abbrev  0x00003b72      0x15c build_arm_cortex_m3_base_application_stm32l/usb_istr.o
 .debug_abbrev  0x00003cce      0x22e build_arm_cortex_m3_base_application_stm32l/usb_prop.o
 .debug_abbrev  0x00003efc      0x1d4 build_arm_cortex_m3_base_application_stm32l/usb_pwr.o
 .debug_abbrev  0x000040d0       0xe2 build_arm_cortex_m3_base_application_stm32l/stm32l.o
 .debug_abbrev  0x000041b2      0x2ec build_arm_cortex_m3_base_application_stm32l/system.o
 .debug_abbrev  0x0000449e      0x393 build_arm_cortex_m3_base_application_stm32l/sys_cfg.o
 .debug_abbrev  0x00004831      0x313 build_arm_cortex_m3_base_application_stm32l/io_cfg.o
 .debug_abbrev  0x00004b44      0x147 build_arm_cortex_m3_base_application_stm32l/system_stm32l1xx.o
 .debug_abbrev  0x00004c8b      0x2a4 build_arm_cortex_m3_base_application_stm32l/app.o
 .debug_abbrev  0x00004f2f       0x4b build_arm_cortex_m3_base_application_stm32l/app_non_clear_ram.o
 .debug_abbrev  0x00004f7a      0x121 build_arm_cortex_m3_base_application_stm32l/app_bsp.o
 .debug_abbrev  0x0000509b       0x86 build_arm_cortex_m3_base_application_stm32l/rf_remote_ctrl.o
 .debug_abbrev  0x00005121      0x319 build_arm_cortex_m3_base_application_stm32l/shell.o
 .debug_abbrev  0x0000543a      0x1df build_arm_cortex_m3_base_application_stm32l/task_shell.o
 .debug_abbrev  0x00005619      0x110 build_arm_cortex_m3_base_application_stm32l/task_life.o
 .debug_abbrev  0x00005729      0x232 build_arm_cortex_m3_base_application_stm32l/task_fw.o
 .debug_abbrev  0x0000595b       0xc8 build_arm_cortex_m3_base_application_stm32l/task_list.o
 .debug_abbrev  0x00005a23      0x169 build_arm_cortex_m3_base_application_stm32l/task_display.o
 .debug_abbrev  0x00005b8c      0x31f build_arm_cortex_m3_base_application_stm32l/task_game_oled.o
 .debug_abbrev  0x00005eab      0x164 build_arm_cortex_m3_base_application_stm32l/task_if.o
 .debug_abbrev  0x0000600f       0xdc build_arm_cortex_m3_base_application_stm32l/task_rf24_if.o
 .debug_abbrev  0x000060eb      0x2d6 build_arm_cortex_m3_base_application_stm32l/task_uart_if.o
 .debug_abbrev  0x000063c1       0xdc build_arm_cortex_m3_base_application_stm32l/task_dbg.o
 .debug_abbrev  0x0000649d      0x2a2 build_arm_cortex_m3_base_application_stm32l/view_render.o
 .debug_abbrev  0x0000673f      0x45d build_arm_cortex_m3_base_application_stm32l/Adafruit_GFX.o
 .debug_abbrev  0x00006b9c      0x357 build_arm_cortex_m3_base_application_stm32l/Adafruit_ssd1306syp.o
 .debug_abbrev  0x00006ef3       0xc2 build_arm_cortex_m3_base_application_stm32l/eeprom.o
 .debug_abbrev  0x00006fb5      0x465 build_arm_cortex_m3_base_application_stm32l/Dhcp.o
 .debug_abbrev  0x0000741a      0x3c6 build_arm_cortex_m3_base_application_stm32l/Dns.o
 .debug_abbrev  0x000077e0      0x517 build_arm_cortex_m3_base_application_stm32l/EthernetClient.o
 .debug_abbrev  0x00007cf7      0x571 build_arm_cortex_m3_base_application_stm32l/Ethernet.o
 .debug_abbrev  0x00008268      0x437 build_arm_cortex_m3_base_application_stm32l/EthernetServer.o
 .debug_abbrev  0x0000869f      0x66c build_arm_cortex_m3_base_application_stm32l/EthernetUdp.o
 .debug_abbrev  0x00008d0b      0x189 build_arm_cortex_m3_base_application_stm32l/nrf_data.o
 .debug_abbrev  0x00008e94      0x2d3 build_arm_cortex_m3_base_application_stm32l/nrf_mac.o
 .debug_abbrev  0x00009167      0x1bc build_arm_cortex_m3_base_application_stm32l/nrf_nwk.o
 .debug_abbrev  0x00009323      0x1ea build_arm_cortex_m3_base_application_stm32l/nrf_phy.o
 .debug_abbrev  0x0000950d       0xc2 build_arm_cortex_m3_base_application_stm32l/link_mac.o
 .debug_abbrev  0x000095cf       0xd1 build_arm_cortex_m3_base_application_stm32l/link_phy.o
 .debug_abbrev  0x000096a0      0x119 build_arm_cortex_m3_base_application_stm32l/wiring_digital.o
 .debug_abbrev  0x000097b9      0x333 build_arm_cortex_m3_base_application_stm32l/Print.o
 .debug_abbrev  0x00009aec      0x134 build_arm_cortex_m3_base_application_stm32l/WMath.o
 .debug_abbrev  0x00009c20      0x39d build_arm_cortex_m3_base_application_stm32l/IPAddress.o
 .debug_abbrev  0x00009fbd      0x345 build_arm_cortex_m3_base_application_stm32l/SPI.o
 .debug_abbrev  0x0000a302      0x577 build_arm_cortex_m3_base_application_stm32l/Wire.o
 .debug_abbrev  0x0000a879      0x293 build_arm_cortex_m3_base_application_stm32l/twi.o
 .debug_abbrev  0x0000ab0c      0x239 build_arm_cortex_m3_base_application_stm32l/mini_cpp.o

.debug_loc      0x00000000    0x13e10
 .debug_loc     0x00000000      0xcf9 build_arm_cortex_m3_base_application_stm32l/message.o
 .debug_loc     0x00000cf9       0x42 build_arm_cortex_m3_base_application_stm32l/fsm.o
 .debug_loc     0x00000d3b      0x465 build_arm_cortex_m3_base_application_stm32l/task.o
 .debug_loc     0x000011a0      0x35e build_arm_cortex_m3_base_application_stm32l/timer.o
 .debug_loc     0x000014fe      0x35d build_arm_cortex_m3_base_application_stm32l/xprintf.o
 .debug_loc     0x0000185b       0xe7 build_arm_cortex_m3_base_application_stm32l/cmd_line.o
 .debug_loc     0x00001942      0x239 build_arm_cortex_m3_base_application_stm32l/fifo.o
 .debug_loc     0x00001b7b      0x178 build_arm_cortex_m3_base_application_stm32l/button.o
 .debug_loc     0x00001cf3      0x2a4 build_arm_cortex_m3_base_application_stm32l/flash.o
 .debug_loc     0x00001f97      0x216 build_arm_cortex_m3_base_application_stm32l/led.o
 .debug_loc     0x000021ad      0x342 build_arm_cortex_m3_base_application_stm32l/sys_dbg.o
 .debug_loc     0x000024ef       0x58 build_arm_cortex_m3_base_application_stm32l/sys_boot.o
 .debug_loc     0x00002547       0x21 build_arm_cortex_m3_base_application_stm32l/hal_nrf_hw.o
 .debug_loc     0x00002568      0x7c5 build_arm_cortex_m3_base_application_stm32l/hal_nrf_l01.o
 .debug_loc     0x00002d2d      0x36c build_arm_cortex_m3_base_application_stm32l/stm32l1xx_gpio.o
 .debug_loc     0x00003099      0x74b build_arm_cortex_m3_base_application_stm32l/stm32l1xx_rcc.o
 .debug_loc     0x000037e4      0x724 build_arm_cortex_m3_base_application_stm32l/stm32l1xx_usart.o
 .debug_loc     0x00003f08      0x5fa build_arm_cortex_m3_base_application_stm32l/stm32l1xx_spi.o
 .debug_loc     0x00004502      0x147 build_arm_cortex_m3_base_application_stm32l/misc.o
 .debug_loc     0x00004649       0xd9 build_arm_cortex_m3_base_application_stm32l/stm32l1xx_exti.o
 .debug_loc     0x00004722      0x56a build_arm_cortex_m3_base_application_stm32l/stm32l1xx_syscfg.o
 .debug_loc     0x00004c8c     0x18a3 build_arm_cortex_m3_base_application_stm32l/stm32l1xx_tim.o
 .debug_loc     0x0000652f     0x1924 build_arm_cortex_m3_base_application_stm32l/stm32l1xx_flash.o
 .debug_loc     0x00007e53       0x62 build_arm_cortex_m3_base_application_stm32l/stm32l1xx_iwdg.o
 .debug_loc     0x00007eb5      0x601 build_arm_cortex_m3_base_application_stm32l/stm32l1xx_i2c.o
 .debug_loc     0x000084b6      0x7d2 build_arm_cortex_m3_base_application_stm32l/usb_core.o
 .debug_loc     0x00008c88       0xbc build_arm_cortex_m3_base_application_stm32l/usb_int.o
 .debug_loc     0x00008d44      0x258 build_arm_cortex_m3_base_application_stm32l/usb_mem.o
 .debug_loc     0x00008f9c      0xa7e build_arm_cortex_m3_base_application_stm32l/usb_regs.o
 .debug_loc     0x00009a1a       0xcf build_arm_cortex_m3_base_application_stm32l/usb_sil.o
 .debug_loc     0x00009ae9      0x177 build_arm_cortex_m3_base_application_stm32l/hw_config.o
 .debug_loc     0x00009c60       0x36 build_arm_cortex_m3_base_application_stm32l/usb_istr.o
 .debug_loc     0x00009c96      0x1ab build_arm_cortex_m3_base_application_stm32l/usb_prop.o
 .debug_loc     0x00009e41      0x105 build_arm_cortex_m3_base_application_stm32l/usb_pwr.o
 .debug_loc     0x00009f46       0x57 build_arm_cortex_m3_base_application_stm32l/system.o
 .debug_loc     0x00009f9d       0xbc build_arm_cortex_m3_base_application_stm32l/sys_cfg.o
 .debug_loc     0x0000a059      0x6b3 build_arm_cortex_m3_base_application_stm32l/io_cfg.o
 .debug_loc     0x0000a70c      0x101 build_arm_cortex_m3_base_application_stm32l/system_stm32l1xx.o
 .debug_loc     0x0000a80d       0xf2 build_arm_cortex_m3_base_application_stm32l/app_bsp.o
 .debug_loc     0x0000a8ff      0xd41 build_arm_cortex_m3_base_application_stm32l/shell.o
 .debug_loc     0x0000b640       0x3f build_arm_cortex_m3_base_application_stm32l/task_shell.o
 .debug_loc     0x0000b67f       0x2c build_arm_cortex_m3_base_application_stm32l/task_life.o
 .debug_loc     0x0000b6ab      0x32a build_arm_cortex_m3_base_application_stm32l/task_fw.o
 .debug_loc     0x0000b9d5       0x5e build_arm_cortex_m3_base_application_stm32l/task_display.o
 .debug_loc     0x0000ba33      0x20d build_arm_cortex_m3_base_application_stm32l/task_game_oled.o
 .debug_loc     0x0000bc40      0x139 build_arm_cortex_m3_base_application_stm32l/task_if.o
 .debug_loc     0x0000bd79      0x4e5 build_arm_cortex_m3_base_application_stm32l/task_uart_if.o
 .debug_loc     0x0000c25e      0x21c build_arm_cortex_m3_base_application_stm32l/view_render.o
 .debug_loc     0x0000c47a     0x16fa build_arm_cortex_m3_base_application_stm32l/Adafruit_GFX.o
 .debug_loc     0x0000db74      0x8d6 build_arm_cortex_m3_base_application_stm32l/Adafruit_ssd1306syp.o
 .debug_loc     0x0000e44a      0x108 build_arm_cortex_m3_base_application_stm32l/eeprom.o
 .debug_loc     0x0000e552      0x729 build_arm_cortex_m3_base_application_stm32l/Dhcp.o
 .debug_loc     0x0000ec7b      0x559 build_arm_cortex_m3_base_application_stm32l/Dns.o
 .debug_loc     0x0000f1d4      0x5f4 build_arm_cortex_m3_base_application_stm32l/EthernetClient.o
 .debug_loc     0x0000f7c8      0xb63 build_arm_cortex_m3_base_application_stm32l/Ethernet.o
 .debug_loc     0x0001032b      0x2c0 build_arm_cortex_m3_base_application_stm32l/EthernetServer.o
 .debug_loc     0x000105eb      0x776 build_arm_cortex_m3_base_application_stm32l/EthernetUdp.o
 .debug_loc     0x00010d61       0xeb build_arm_cortex_m3_base_application_stm32l/nrf_data.o
 .debug_loc     0x00010e4c      0x2d2 build_arm_cortex_m3_base_application_stm32l/nrf_mac.o
 .debug_loc     0x0001111e      0x2bf build_arm_cortex_m3_base_application_stm32l/nrf_nwk.o
 .debug_loc     0x000113dd      0x169 build_arm_cortex_m3_base_application_stm32l/nrf_phy.o
 .debug_loc     0x00011546      0x414 build_arm_cortex_m3_base_application_stm32l/wiring_digital.o
 .debug_loc     0x0001195a     0x1108 build_arm_cortex_m3_base_application_stm32l/Print.o
 .debug_loc     0x00012a62      0x141 build_arm_cortex_m3_base_application_stm32l/WMath.o
 .debug_loc     0x00012ba3      0x261 build_arm_cortex_m3_base_application_stm32l/IPAddress.o
 .debug_loc     0x00012e04      0x45a build_arm_cortex_m3_base_application_stm32l/SPI.o
 .debug_loc     0x0001325e      0x7e3 build_arm_cortex_m3_base_application_stm32l/Wire.o
 .debug_loc     0x00013a41      0x361 build_arm_cortex_m3_base_application_stm32l/twi.o
 .debug_loc     0x00013da2       0x6e build_arm_cortex_m3_base_application_stm32l/mini_cpp.o

.debug_aranges  0x00000000     0x26c0
 .debug_aranges
                0x00000000       0xb0 build_arm_cortex_m3_base_application_stm32l/message.o
 .debug_aranges
                0x000000b0       0x20 build_arm_cortex_m3_base_application_stm32l/fsm.o
 .debug_aranges
                0x000000d0       0x90 build_arm_cortex_m3_base_application_stm32l/task.o
 .debug_aranges
                0x00000160       0x58 build_arm_cortex_m3_base_application_stm32l/timer.o
 .debug_aranges
                0x000001b8       0x50 build_arm_cortex_m3_base_application_stm32l/xprintf.o
 .debug_aranges
                0x00000208       0x20 build_arm_cortex_m3_base_application_stm32l/cmd_line.o
 .debug_aranges
                0x00000228       0x48 build_arm_cortex_m3_base_application_stm32l/fifo.o
 .debug_aranges
                0x00000270       0x38 build_arm_cortex_m3_base_application_stm32l/button.o
 .debug_aranges
                0x000002a8       0x58 build_arm_cortex_m3_base_application_stm32l/flash.o
 .debug_aranges
                0x00000300       0x50 build_arm_cortex_m3_base_application_stm32l/led.o
 .debug_aranges
                0x00000350       0x38 build_arm_cortex_m3_base_application_stm32l/sys_dbg.o
 .debug_aranges
                0x00000388       0x30 build_arm_cortex_m3_base_application_stm32l/sys_boot.o
 .debug_aranges
                0x000003b8       0x28 build_arm_cortex_m3_base_application_stm32l/sys_svc.o
 .debug_aranges
                0x000003e0       0x20 build_arm_cortex_m3_base_application_stm32l/hal_nrf_hw.o
 .debug_aranges
                0x00000400      0x218 build_arm_cortex_m3_base_application_stm32l/hal_nrf_l01.o
 .debug_aranges
                0x00000618       0x88 build_arm_cortex_m3_base_application_stm32l/stm32l1xx_gpio.o
 .debug_aranges
                0x000006a0      0x148 build_arm_cortex_m3_base_application_stm32l/stm32l1xx_rcc.o
 .debug_aranges
                0x000007e8      0x100 build_arm_cortex_m3_base_application_stm32l/stm32l1xx_usart.o
 .debug_aranges
                0x000008e8       0xd0 build_arm_cortex_m3_base_application_stm32l/stm32l1xx_spi.o
 .debug_aranges
                0x000009b8       0x40 build_arm_cortex_m3_base_application_stm32l/misc.o
 .debug_aranges
                0x000009f8       0x48 build_arm_cortex_m3_base_application_stm32l/stm32l1xx_exti.o
 .debug_aranges
                0x00000a40       0x80 build_arm_cortex_m3_base_application_stm32l/stm32l1xx_syscfg.o
 .debug_aranges
                0x00000ac0      0x298 build_arm_cortex_m3_base_application_stm32l/stm32l1xx_tim.o
 .debug_aranges
                0x00000d58      0x188 build_arm_cortex_m3_base_application_stm32l/stm32l1xx_flash.o
 .debug_aranges
                0x00000ee0       0x48 build_arm_cortex_m3_base_application_stm32l/stm32l1xx_iwdg.o
 .debug_aranges
                0x00000f28      0x110 build_arm_cortex_m3_base_application_stm32l/stm32l1xx_i2c.o
 .debug_aranges
                0x00001038       0x98 build_arm_cortex_m3_base_application_stm32l/usb_core.o
 .debug_aranges
                0x000010d0       0x20 build_arm_cortex_m3_base_application_stm32l/usb_init.o
 .debug_aranges
                0x000010f0       0x28 build_arm_cortex_m3_base_application_stm32l/usb_int.o
 .debug_aranges
                0x00001118       0x28 build_arm_cortex_m3_base_application_stm32l/usb_mem.o
 .debug_aranges
                0x00001140      0x1a0 build_arm_cortex_m3_base_application_stm32l/usb_regs.o
 .debug_aranges
                0x000012e0       0x30 build_arm_cortex_m3_base_application_stm32l/usb_sil.o
 .debug_aranges
                0x00001310       0x60 build_arm_cortex_m3_base_application_stm32l/hw_config.o
 .debug_aranges
                0x00001370       0x18 build_arm_cortex_m3_base_application_stm32l/usb_desc.o
 .debug_aranges
                0x00001388       0x28 build_arm_cortex_m3_base_application_stm32l/usb_endp.o
 .debug_aranges
                0x000013b0       0x20 build_arm_cortex_m3_base_application_stm32l/usb_istr.o
 .debug_aranges
                0x000013d0       0x80 build_arm_cortex_m3_base_application_stm32l/usb_prop.o
 .debug_aranges
                0x00001450       0x40 build_arm_cortex_m3_base_application_stm32l/usb_pwr.o
 .debug_aranges
                0x00001490       0x40 build_arm_cortex_m3_base_application_stm32l/stm32l.o
 .debug_aranges
                0x000014d0       0xc8 build_arm_cortex_m3_base_application_stm32l/system.o
 .debug_aranges
                0x00001598       0xd8 build_arm_cortex_m3_base_application_stm32l/sys_cfg.o
 .debug_aranges
                0x00001670      0x2e0 build_arm_cortex_m3_base_application_stm32l/io_cfg.o
 .debug_aranges
                0x00001950       0x28 build_arm_cortex_m3_base_application_stm32l/system_stm32l1xx.o
 .debug_aranges
                0x00001978       0x48 build_arm_cortex_m3_base_application_stm32l/app.o
 .debug_aranges
                0x000019c0       0x18 build_arm_cortex_m3_base_application_stm32l/app_non_clear_ram.o
 .debug_aranges
                0x000019d8       0x30 build_arm_cortex_m3_base_application_stm32l/app_bsp.o
 .debug_aranges
                0x00001a08       0x20 build_arm_cortex_m3_base_application_stm32l/rf_remote_ctrl.o
 .debug_aranges
                0x00001a28       0xa8 build_arm_cortex_m3_base_application_stm32l/shell.o
 .debug_aranges
                0x00001ad0       0x28 build_arm_cortex_m3_base_application_stm32l/task_shell.o
 .debug_aranges
                0x00001af8       0x20 build_arm_cortex_m3_base_application_stm32l/task_life.o
 .debug_aranges
                0x00001b18       0x20 build_arm_cortex_m3_base_application_stm32l/task_fw.o
 .debug_aranges
                0x00001b38       0x18 build_arm_cortex_m3_base_application_stm32l/task_list.o
 .debug_aranges
                0x00001b50       0x20 build_arm_cortex_m3_base_application_stm32l/task_display.o
 .debug_aranges
                0x00001b70       0x60 build_arm_cortex_m3_base_application_stm32l/task_game_oled.o
 .debug_aranges
                0x00001bd0       0x20 build_arm_cortex_m3_base_application_stm32l/task_if.o
 .debug_aranges
                0x00001bf0       0x20 build_arm_cortex_m3_base_application_stm32l/task_rf24_if.o
 .debug_aranges
                0x00001c10       0x30 build_arm_cortex_m3_base_application_stm32l/task_uart_if.o
 .debug_aranges
                0x00001c40       0x20 build_arm_cortex_m3_base_application_stm32l/task_dbg.o
 .debug_aranges
                0x00001c60       0x58 build_arm_cortex_m3_base_application_stm32l/view_render.o
 .debug_aranges
                0x00001cb8      0x108 build_arm_cortex_m3_base_application_stm32l/Adafruit_GFX.o
 .debug_aranges
                0x00001dc0       0x98 build_arm_cortex_m3_base_application_stm32l/Adafruit_ssd1306syp.o
 .debug_aranges
                0x00001e58       0x30 build_arm_cortex_m3_base_application_stm32l/eeprom.o
 .debug_aranges
                0x00001e88       0x88 build_arm_cortex_m3_base_application_stm32l/Dhcp.o
 .debug_aranges
                0x00001f10       0x48 build_arm_cortex_m3_base_application_stm32l/Dns.o
 .debug_aranges
                0x00001f58       0xc0 build_arm_cortex_m3_base_application_stm32l/EthernetClient.o
 .debug_aranges
                0x00002018       0x88 build_arm_cortex_m3_base_application_stm32l/Ethernet.o
 .debug_aranges
                0x000020a0       0x50 build_arm_cortex_m3_base_application_stm32l/EthernetServer.o
 .debug_aranges
                0x000020f0       0xb8 build_arm_cortex_m3_base_application_stm32l/EthernetUdp.o
 .debug_aranges
                0x000021a8       0x70 build_arm_cortex_m3_base_application_stm32l/nrf_data.o
 .debug_aranges
                0x00002218       0x20 build_arm_cortex_m3_base_application_stm32l/nrf_mac.o
 .debug_aranges
                0x00002238       0x30 build_arm_cortex_m3_base_application_stm32l/nrf_nwk.o
 .debug_aranges
                0x00002268       0x38 build_arm_cortex_m3_base_application_stm32l/nrf_phy.o
 .debug_aranges
                0x000022a0       0x20 build_arm_cortex_m3_base_application_stm32l/link_mac.o
 .debug_aranges
                0x000022c0       0x20 build_arm_cortex_m3_base_application_stm32l/link_phy.o
 .debug_aranges
                0x000022e0       0x30 build_arm_cortex_m3_base_application_stm32l/wiring_digital.o
 .debug_aranges
                0x00002310       0xd0 build_arm_cortex_m3_base_application_stm32l/Print.o
 .debug_aranges
                0x000023e0       0x48 build_arm_cortex_m3_base_application_stm32l/WMath.o
 .debug_aranges
                0x00002428       0x68 build_arm_cortex_m3_base_application_stm32l/IPAddress.o
 .debug_aranges
                0x00002490       0x98 build_arm_cortex_m3_base_application_stm32l/SPI.o
 .debug_aranges
                0x00002528       0xe8 build_arm_cortex_m3_base_application_stm32l/Wire.o
 .debug_aranges
                0x00002610       0x68 build_arm_cortex_m3_base_application_stm32l/twi.o
 .debug_aranges
                0x00002678       0x48 build_arm_cortex_m3_base_application_stm32l/mini_cpp.o

.debug_ranges   0x00000000     0x2ba0
 .debug_ranges  0x00000000      0x160 build_arm_cortex_m3_base_application_stm32l/message.o
 .debug_ranges  0x00000160       0x10 build_arm_cortex_m3_base_application_stm32l/fsm.o
 .debug_ranges  0x00000170       0xc8 build_arm_cortex_m3_base_application_stm32l/task.o
 .debug_ranges  0x00000238       0x78 build_arm_cortex_m3_base_application_stm32l/timer.o
 .debug_ranges  0x000002b0       0x40 build_arm_cortex_m3_base_application_stm32l/xprintf.o
 .debug_ranges  0x000002f0       0x10 build_arm_cortex_m3_base_application_stm32l/cmd_line.o
 .debug_ranges  0x00000300       0x38 build_arm_cortex_m3_base_application_stm32l/fifo.o
 .debug_ranges  0x00000338       0x28 build_arm_cortex_m3_base_application_stm32l/button.o
 .debug_ranges  0x00000360       0x48 build_arm_cortex_m3_base_application_stm32l/flash.o
 .debug_ranges  0x000003a8       0x40 build_arm_cortex_m3_base_application_stm32l/led.o
 .debug_ranges  0x000003e8       0x70 build_arm_cortex_m3_base_application_stm32l/sys_dbg.o
 .debug_ranges  0x00000458       0x20 build_arm_cortex_m3_base_application_stm32l/sys_boot.o
 .debug_ranges  0x00000478       0x18 build_arm_cortex_m3_base_application_stm32l/sys_svc.o
 .debug_ranges  0x00000490       0x10 build_arm_cortex_m3_base_application_stm32l/hal_nrf_hw.o
 .debug_ranges  0x000004a0      0x208 build_arm_cortex_m3_base_application_stm32l/hal_nrf_l01.o
 .debug_ranges  0x000006a8       0x78 build_arm_cortex_m3_base_application_stm32l/stm32l1xx_gpio.o
 .debug_ranges  0x00000720      0x138 build_arm_cortex_m3_base_application_stm32l/stm32l1xx_rcc.o
 .debug_ranges  0x00000858       0xf0 build_arm_cortex_m3_base_application_stm32l/stm32l1xx_usart.o
 .debug_ranges  0x00000948       0xc0 build_arm_cortex_m3_base_application_stm32l/stm32l1xx_spi.o
 .debug_ranges  0x00000a08       0x30 build_arm_cortex_m3_base_application_stm32l/misc.o
 .debug_ranges  0x00000a38       0x38 build_arm_cortex_m3_base_application_stm32l/stm32l1xx_exti.o
 .debug_ranges  0x00000a70       0x70 build_arm_cortex_m3_base_application_stm32l/stm32l1xx_syscfg.o
 .debug_ranges  0x00000ae0      0x2c0 build_arm_cortex_m3_base_application_stm32l/stm32l1xx_tim.o
 .debug_ranges  0x00000da0      0x1a8 build_arm_cortex_m3_base_application_stm32l/stm32l1xx_flash.o
 .debug_ranges  0x00000f48       0x38 build_arm_cortex_m3_base_application_stm32l/stm32l1xx_iwdg.o
 .debug_ranges  0x00000f80      0x100 build_arm_cortex_m3_base_application_stm32l/stm32l1xx_i2c.o
 .debug_ranges  0x00001080      0x110 build_arm_cortex_m3_base_application_stm32l/usb_core.o
 .debug_ranges  0x00001190       0x10 build_arm_cortex_m3_base_application_stm32l/usb_init.o
 .debug_ranges  0x000011a0       0x18 build_arm_cortex_m3_base_application_stm32l/usb_int.o
 .debug_ranges  0x000011b8       0x18 build_arm_cortex_m3_base_application_stm32l/usb_mem.o
 .debug_ranges  0x000011d0      0x240 build_arm_cortex_m3_base_application_stm32l/usb_regs.o
 .debug_ranges  0x00001410       0x20 build_arm_cortex_m3_base_application_stm32l/usb_sil.o
 .debug_ranges  0x00001430       0x50 build_arm_cortex_m3_base_application_stm32l/hw_config.o
 .debug_ranges  0x00001480       0x18 build_arm_cortex_m3_base_application_stm32l/usb_endp.o
 .debug_ranges  0x00001498       0x10 build_arm_cortex_m3_base_application_stm32l/usb_istr.o
 .debug_ranges  0x000014a8       0x70 build_arm_cortex_m3_base_application_stm32l/usb_prop.o
 .debug_ranges  0x00001518       0x30 build_arm_cortex_m3_base_application_stm32l/usb_pwr.o
 .debug_ranges  0x00001548       0x30 build_arm_cortex_m3_base_application_stm32l/stm32l.o
 .debug_ranges  0x00001578       0xb8 build_arm_cortex_m3_base_application_stm32l/system.o
 .debug_ranges  0x00001630       0xc8 build_arm_cortex_m3_base_application_stm32l/sys_cfg.o
 .debug_ranges  0x000016f8      0x2d0 build_arm_cortex_m3_base_application_stm32l/io_cfg.o
 .debug_ranges  0x000019c8       0x30 build_arm_cortex_m3_base_application_stm32l/system_stm32l1xx.o
 .debug_ranges  0x000019f8       0x38 build_arm_cortex_m3_base_application_stm32l/app.o
 .debug_ranges  0x00001a30       0x20 build_arm_cortex_m3_base_application_stm32l/app_bsp.o
 .debug_ranges  0x00001a50       0x10 build_arm_cortex_m3_base_application_stm32l/rf_remote_ctrl.o
 .debug_ranges  0x00001a60       0xe0 build_arm_cortex_m3_base_application_stm32l/shell.o
 .debug_ranges  0x00001b40       0x18 build_arm_cortex_m3_base_application_stm32l/task_shell.o
 .debug_ranges  0x00001b58       0x10 build_arm_cortex_m3_base_application_stm32l/task_life.o
 .debug_ranges  0x00001b68       0x28 build_arm_cortex_m3_base_application_stm32l/task_fw.o
 .debug_ranges  0x00001b90       0x10 build_arm_cortex_m3_base_application_stm32l/task_display.o
 .debug_ranges  0x00001ba0       0x68 build_arm_cortex_m3_base_application_stm32l/task_game_oled.o
 .debug_ranges  0x00001c08       0x28 build_arm_cortex_m3_base_application_stm32l/task_if.o
 .debug_ranges  0x00001c30       0x10 build_arm_cortex_m3_base_application_stm32l/task_rf24_if.o
 .debug_ranges  0x00001c40       0x68 build_arm_cortex_m3_base_application_stm32l/task_uart_if.o
 .debug_ranges  0x00001ca8       0x10 build_arm_cortex_m3_base_application_stm32l/task_dbg.o
 .debug_ranges  0x00001cb8       0x48 build_arm_cortex_m3_base_application_stm32l/view_render.o
 .debug_ranges  0x00001d00      0x190 build_arm_cortex_m3_base_application_stm32l/Adafruit_GFX.o
 .debug_ranges  0x00001e90       0xa0 build_arm_cortex_m3_base_application_stm32l/Adafruit_ssd1306syp.o
 .debug_ranges  0x00001f30       0x20 build_arm_cortex_m3_base_application_stm32l/eeprom.o
 .debug_ranges  0x00001f50       0xd0 build_arm_cortex_m3_base_application_stm32l/Dhcp.o
 .debug_ranges  0x00002020       0xa0 build_arm_cortex_m3_base_application_stm32l/Dns.o
 .debug_ranges  0x000020c0      0x100 build_arm_cortex_m3_base_application_stm32l/EthernetClient.o
 .debug_ranges  0x000021c0      0x278 build_arm_cortex_m3_base_application_stm32l/Ethernet.o
 .debug_ranges  0x00002438       0xd8 build_arm_cortex_m3_base_application_stm32l/EthernetServer.o
 .debug_ranges  0x00002510      0x100 build_arm_cortex_m3_base_application_stm32l/EthernetUdp.o
 .debug_ranges  0x00002610       0x78 build_arm_cortex_m3_base_application_stm32l/nrf_data.o
 .debug_ranges  0x00002688       0x60 build_arm_cortex_m3_base_application_stm32l/nrf_mac.o
 .debug_ranges  0x000026e8       0x38 build_arm_cortex_m3_base_application_stm32l/nrf_nwk.o
 .debug_ranges  0x00002720       0x58 build_arm_cortex_m3_base_application_stm32l/nrf_phy.o
 .debug_ranges  0x00002778       0x10 build_arm_cortex_m3_base_application_stm32l/link_mac.o
 .debug_ranges  0x00002788       0x10 build_arm_cortex_m3_base_application_stm32l/link_phy.o
 .debug_ranges  0x00002798       0x20 build_arm_cortex_m3_base_application_stm32l/wiring_digital.o
 .debug_ranges  0x000027b8      0x138 build_arm_cortex_m3_base_application_stm32l/Print.o
 .debug_ranges  0x000028f0       0x38 build_arm_cortex_m3_base_application_stm32l/WMath.o
 .debug_ranges  0x00002928       0x70 build_arm_cortex_m3_base_application_stm32l/IPAddress.o
 .debug_ranges  0x00002998       0x88 build_arm_cortex_m3_base_application_stm32l/SPI.o
 .debug_ranges  0x00002a20       0xf0 build_arm_cortex_m3_base_application_stm32l/Wire.o
 .debug_ranges  0x00002b10       0x58 build_arm_cortex_m3_base_application_stm32l/twi.o
 .debug_ranges  0x00002b68       0x38 build_arm_cortex_m3_base_application_stm32l/mini_cpp.o

.debug_line     0x00000000    0x11b2d
 .debug_line    0x00000000      0x4a4 build_arm_cortex_m3_base_application_stm32l/message.o
 .debug_line    0x000004a4      0x124 build_arm_cortex_m3_base_application_stm32l/fsm.o
 .debug_line    0x000005c8      0x377 build_arm_cortex_m3_base_application_stm32l/task.o
 .debug_line    0x0000093f      0x29f build_arm_cortex_m3_base_application_stm32l/timer.o
 .debug_line    0x00000bde      0x28c build_arm_cortex_m3_base_application_stm32l/xprintf.o
 .debug_line    0x00000e6a      0x198 build_arm_cortex_m3_base_application_stm32l/cmd_line.o
 .debug_line    0x00001002      0x271 build_arm_cortex_m3_base_application_stm32l/fifo.o
 .debug_line    0x00001273      0x195 build_arm_cortex_m3_base_application_stm32l/button.o
 .debug_line    0x00001408      0x29e build_arm_cortex_m3_base_application_stm32l/flash.o
 .debug_line    0x000016a6      0x1cd build_arm_cortex_m3_base_application_stm32l/led.o
 .debug_line    0x00001873      0x408 build_arm_cortex_m3_base_application_stm32l/sys_dbg.o
 .debug_line    0x00001c7b      0x1ab build_arm_cortex_m3_base_application_stm32l/sys_boot.o
 .debug_line    0x00001e26      0x15f build_arm_cortex_m3_base_application_stm32l/sys_svc.o
 .debug_line    0x00001f85      0x197 build_arm_cortex_m3_base_application_stm32l/hal_nrf_hw.o
 .debug_line    0x0000211c      0x6ad build_arm_cortex_m3_base_application_stm32l/hal_nrf_l01.o
 .debug_line    0x000027c9      0x38d build_arm_cortex_m3_base_application_stm32l/stm32l1xx_gpio.o
 .debug_line    0x00002b56      0x53f build_arm_cortex_m3_base_application_stm32l/stm32l1xx_rcc.o
 .debug_line    0x00003095      0x502 build_arm_cortex_m3_base_application_stm32l/stm32l1xx_usart.o
 .debug_line    0x00003597      0x46b build_arm_cortex_m3_base_application_stm32l/stm32l1xx_spi.o
 .debug_line    0x00003a02      0x28a build_arm_cortex_m3_base_application_stm32l/misc.o
 .debug_line    0x00003c8c      0x2b2 build_arm_cortex_m3_base_application_stm32l/stm32l1xx_exti.o
 .debug_line    0x00003f3e      0x358 build_arm_cortex_m3_base_application_stm32l/stm32l1xx_syscfg.o
 .debug_line    0x00004296      0x9ad build_arm_cortex_m3_base_application_stm32l/stm32l1xx_tim.o
 .debug_line    0x00004c43      0x769 build_arm_cortex_m3_base_application_stm32l/stm32l1xx_flash.o
 .debug_line    0x000053ac      0x23e build_arm_cortex_m3_base_application_stm32l/stm32l1xx_iwdg.o
 .debug_line    0x000055ea      0x516 build_arm_cortex_m3_base_application_stm32l/stm32l1xx_i2c.o
 .debug_line    0x00005b00      0x4e3 build_arm_cortex_m3_base_application_stm32l/usb_core.o
 .debug_line    0x00005fe3      0x1e3 build_arm_cortex_m3_base_application_stm32l/usb_init.o
 .debug_line    0x000061c6      0x244 build_arm_cortex_m3_base_application_stm32l/usb_int.o
 .debug_line    0x0000640a      0x1c2 build_arm_cortex_m3_base_application_stm32l/usb_mem.o
 .debug_line    0x000065cc      0x5d4 build_arm_cortex_m3_base_application_stm32l/usb_regs.o
 .debug_line    0x00006ba0      0x226 build_arm_cortex_m3_base_application_stm32l/usb_sil.o
 .debug_line    0x00006dc6      0x415 build_arm_cortex_m3_base_application_stm32l/hw_config.o
 .debug_line    0x000071db      0x158 build_arm_cortex_m3_base_application_stm32l/usb_desc.o
 .debug_line    0x00007333      0x237 build_arm_cortex_m3_base_application_stm32l/usb_endp.o
 .debug_line    0x0000756a      0x25a build_arm_cortex_m3_base_application_stm32l/usb_istr.o
 .debug_line    0x000077c4      0x36a build_arm_cortex_m3_base_application_stm32l/usb_prop.o
 .debug_line    0x00007b2e      0x31b build_arm_cortex_m3_base_application_stm32l/usb_pwr.o
 .debug_line    0x00007e49      0x1fb build_arm_cortex_m3_base_application_stm32l/stm32l.o
 .debug_line    0x00008044      0x51f build_arm_cortex_m3_base_application_stm32l/system.o
 .debug_line    0x00008563      0x5e4 build_arm_cortex_m3_base_application_stm32l/sys_cfg.o
 .debug_line    0x00008b47      0xd0c build_arm_cortex_m3_base_application_stm32l/io_cfg.o
 .debug_line    0x00009853      0x220 build_arm_cortex_m3_base_application_stm32l/system_stm32l1xx.o
 .debug_line    0x00009a73      0x38e build_arm_cortex_m3_base_application_stm32l/app.o
 .debug_line    0x00009e01      0x10f build_arm_cortex_m3_base_application_stm32l/app_non_clear_ram.o
 .debug_line    0x00009f10      0x18e build_arm_cortex_m3_base_application_stm32l/app_bsp.o
 .debug_line    0x0000a09e      0x15b build_arm_cortex_m3_base_application_stm32l/rf_remote_ctrl.o
 .debug_line    0x0000a1f9      0x75e build_arm_cortex_m3_base_application_stm32l/shell.o
 .debug_line    0x0000a957      0x2e5 build_arm_cortex_m3_base_application_stm32l/task_shell.o
 .debug_line    0x0000ac3c      0x18a build_arm_cortex_m3_base_application_stm32l/task_life.o
 .debug_line    0x0000adc6      0x424 build_arm_cortex_m3_base_application_stm32l/task_fw.o
 .debug_line    0x0000b1ea      0x13a build_arm_cortex_m3_base_application_stm32l/task_list.o
 .debug_line    0x0000b324      0x226 build_arm_cortex_m3_base_application_stm32l/task_display.o
 .debug_line    0x0000b54a      0x443 build_arm_cortex_m3_base_application_stm32l/task_game_oled.o
 .debug_line    0x0000b98d      0x1bd build_arm_cortex_m3_base_application_stm32l/task_if.o
 .debug_line    0x0000bb4a      0x17c build_arm_cortex_m3_base_application_stm32l/task_rf24_if.o
 .debug_line    0x0000bcc6      0x350 build_arm_cortex_m3_base_application_stm32l/task_uart_if.o
 .debug_line    0x0000c016      0x186 build_arm_cortex_m3_base_application_stm32l/task_dbg.o
 .debug_line    0x0000c19c      0x34a build_arm_cortex_m3_base_application_stm32l/view_render.o
 .debug_line    0x0000c4e6      0x6aa build_arm_cortex_m3_base_application_stm32l/Adafruit_GFX.o
 .debug_line    0x0000cb90      0x43c build_arm_cortex_m3_base_application_stm32l/Adafruit_ssd1306syp.o
 .debug_line    0x0000cfcc      0x1a2 build_arm_cortex_m3_base_application_stm32l/eeprom.o
 .debug_line    0x0000d16e      0x5b7 build_arm_cortex_m3_base_application_stm32l/Dhcp.o
 .debug_line    0x0000d725      0x3d8 build_arm_cortex_m3_base_application_stm32l/Dns.o
 .debug_line    0x0000dafd      0x508 build_arm_cortex_m3_base_application_stm32l/EthernetClient.o
 .debug_line    0x0000e005      0x5f7 build_arm_cortex_m3_base_application_stm32l/Ethernet.o
 .debug_line    0x0000e5fc      0x395 build_arm_cortex_m3_base_application_stm32l/EthernetServer.o
 .debug_line    0x0000e991      0x52f build_arm_cortex_m3_base_application_stm32l/EthernetUdp.o
 .debug_line    0x0000eec0      0x25f build_arm_cortex_m3_base_application_stm32l/nrf_data.o
 .debug_line    0x0000f11f      0x436 build_arm_cortex_m3_base_application_stm32l/nrf_mac.o
 .debug_line    0x0000f555      0x28e build_arm_cortex_m3_base_application_stm32l/nrf_nwk.o
 .debug_line    0x0000f7e3      0x3a0 build_arm_cortex_m3_base_application_stm32l/nrf_phy.o
 .debug_line    0x0000fb83      0x14b build_arm_cortex_m3_base_application_stm32l/link_mac.o
 .debug_line    0x0000fcce      0x14b build_arm_cortex_m3_base_application_stm32l/link_phy.o
 .debug_line    0x0000fe19      0x2ef build_arm_cortex_m3_base_application_stm32l/wiring_digital.o
 .debug_line    0x00010108      0x48a build_arm_cortex_m3_base_application_stm32l/Print.o
 .debug_line    0x00010592      0x22f build_arm_cortex_m3_base_application_stm32l/WMath.o
 .debug_line    0x000107c1      0x380 build_arm_cortex_m3_base_application_stm32l/IPAddress.o
 .debug_line    0x00010b41      0x416 build_arm_cortex_m3_base_application_stm32l/SPI.o
 .debug_line    0x00010f57      0x502 build_arm_cortex_m3_base_application_stm32l/Wire.o
 .debug_line    0x00011459      0x34f build_arm_cortex_m3_base_application_stm32l/twi.o
 .debug_line    0x000117a8      0x385 build_arm_cortex_m3_base_application_stm32l/mini_cpp.o

.debug_str      0x00000000     0xe463
 .debug_str     0x00000000      0x5d5 build_arm_cortex_m3_base_application_stm32l/message.o
                                0x6d3 (size before relaxing)
 .debug_str     0x000005d5       0x2c build_arm_cortex_m3_base_application_stm32l/fsm.o
                                0x27a (size before relaxing)
 .debug_str     0x00000601      0x2d5 build_arm_cortex_m3_base_application_stm32l/task.o
                                0x66c (size before relaxing)
 .debug_str     0x000008d6      0x193 build_arm_cortex_m3_base_application_stm32l/timer.o
                                0x5a9 (size before relaxing)
 .debug_str     0x00000a69      0x141 build_arm_cortex_m3_base_application_stm32l/xprintf.o
                                0x333 (size before relaxing)
 .debug_str     0x00000baa       0x5c build_arm_cortex_m3_base_application_stm32l/cmd_line.o
                                0x22e (size before relaxing)
 .debug_str     0x00000c06       0xad build_arm_cortex_m3_base_application_stm32l/fifo.o
                                0x2bf (size before relaxing)
 .debug_str     0x00000cb3       0xb4 build_arm_cortex_m3_base_application_stm32l/button.o
                                0x279 (size before relaxing)
 .debug_str     0x00000d67      0x138 build_arm_cortex_m3_base_application_stm32l/flash.o
                                0x2fe (size before relaxing)
 .debug_str     0x00000e9f       0x9f build_arm_cortex_m3_base_application_stm32l/led.o
                                0x26a (size before relaxing)
 .debug_str     0x00000f3e      0x258 build_arm_cortex_m3_base_application_stm32l/sys_dbg.o
                                0x625 (size before relaxing)
 .debug_str     0x00001196      0x15f build_arm_cortex_m3_base_application_stm32l/sys_boot.o
                                0x3c0 (size before relaxing)
 .debug_str     0x000012f5       0x45 build_arm_cortex_m3_base_application_stm32l/sys_svc.o
                                0x1d6 (size before relaxing)
 .debug_str     0x0000133a       0x4f build_arm_cortex_m3_base_application_stm32l/hal_nrf_hw.o
                                0x1fd (size before relaxing)
 .debug_str     0x00001389      0x887 build_arm_cortex_m3_base_application_stm32l/hal_nrf_l01.o
                                0xbaa (size before relaxing)
 .debug_str     0x00001c10      0x315 build_arm_cortex_m3_base_application_stm32l/stm32l1xx_gpio.o
                                0x54f (size before relaxing)
 .debug_str     0x00001f25      0x507 build_arm_cortex_m3_base_application_stm32l/stm32l1xx_rcc.o
                                0x780 (size before relaxing)
 .debug_str     0x0000242c      0x467 build_arm_cortex_m3_base_application_stm32l/stm32l1xx_usart.o
                                0x740 (size before relaxing)
 .debug_str     0x00002893      0x37e build_arm_cortex_m3_base_application_stm32l/stm32l1xx_spi.o
                                0x6ad (size before relaxing)
 .debug_str     0x00002c11      0x20c build_arm_cortex_m3_base_application_stm32l/misc.o
                                0x43f (size before relaxing)
 .debug_str     0x00002e1d      0x1b3 build_arm_cortex_m3_base_application_stm32l/stm32l1xx_exti.o
                                0x39b (size before relaxing)
 .debug_str     0x00002fd0      0x2db build_arm_cortex_m3_base_application_stm32l/stm32l1xx_syscfg.o
                                0x4f6 (size before relaxing)
 .debug_str     0x000032ab      0x9e9 build_arm_cortex_m3_base_application_stm32l/stm32l1xx_tim.o
                                0xcc9 (size before relaxing)
 .debug_str     0x00003c94      0x601 build_arm_cortex_m3_base_application_stm32l/stm32l1xx_flash.o
                                0x83c (size before relaxing)
 .debug_str     0x00004295       0xf0 build_arm_cortex_m3_base_application_stm32l/stm32l1xx_iwdg.o
                                0x2dd (size before relaxing)
 .debug_str     0x00004385      0x378 build_arm_cortex_m3_base_application_stm32l/stm32l1xx_i2c.o
                                0x6c9 (size before relaxing)
 .debug_str     0x000046fd      0x857 build_arm_cortex_m3_base_application_stm32l/usb_core.o
                                0xb81 (size before relaxing)
 .debug_str     0x00004f54       0x83 build_arm_cortex_m3_base_application_stm32l/usb_init.o
                                0x5ae (size before relaxing)
 .debug_str     0x00004fd7       0x7b build_arm_cortex_m3_base_application_stm32l/usb_int.o
                                0x295 (size before relaxing)
 .debug_str     0x00005052       0x7b build_arm_cortex_m3_base_application_stm32l/usb_mem.o
                                0x26e (size before relaxing)
 .debug_str     0x000050cd      0x33c build_arm_cortex_m3_base_application_stm32l/usb_regs.o
                                0x56e (size before relaxing)
 .debug_str     0x00005409       0xae build_arm_cortex_m3_base_application_stm32l/usb_sil.o
                                0x2d6 (size before relaxing)
 .debug_str     0x000054b7      0x4a7 build_arm_cortex_m3_base_application_stm32l/hw_config.o
                                0xb6e (size before relaxing)
 .debug_str     0x0000595e       0xca build_arm_cortex_m3_base_application_stm32l/usb_desc.o
                                0x28b (size before relaxing)
 .debug_str     0x00005a28       0x6a build_arm_cortex_m3_base_application_stm32l/usb_endp.o
                                0x2d4 (size before relaxing)
 .debug_str     0x00005a92       0xe7 build_arm_cortex_m3_base_application_stm32l/usb_istr.o
